:020000040800F2
:1000000000200020D5010008DD010008E101000802
:1000100000000000000000000000000000000000E0
:10002000000000000000000000000000E5010008E2
:100030000000000000000000E9010008452200085F
:10004000F1010008F1010008F1010008F1010008C8
:10005000F1010008F1010008F1010008F1010008B8
:10006000F1010008F1010008F1010008F1010008A8
:10007000F1010008F1010008F1010008F101000898
:10008000F1010008F101000800000000F101000882
:10009000F1010008F1010008F1010008F101000878
:1000A000F1010008F1010008F101000881270008B2
:1000B000FD26000800000000F1010008000000001B
:1000C0005FF808F130B583B0314B324A1360324AE1
:1000D0001360324B3249002201E01A6004338B4234
:1000E000FBD32C4B1B68002B03D12B4B1B68002B25
:1000F00000D0FEE7264B2B4A13602B4A13602B4B94
:100100002B4A2C4903E010681860043304328B42F8
:10011000F9D3244B1A68284B9A4204D1224B1A680F
:100120001B689A4200D0FEE700F092FE01A86946E3
:1001300000F014FE214B224DED1AAD10002404E016
:10014000A3001E4A9B5898470134A542F8DC1D4B7A
:100150001D4DED1AAD10002404E0A30019481B58F2
:1001600098470134A542F8DC0198009902F0D4F8D0
:10017000051C164B164CE41AA41004E0013CA30025
:10018000124A9B589847002CF8DC281C00F0B8FD58
:10019000BABADECA88000020A8100020880000201B
:1001A000AC1000200000002084000020000000208F
:1001B000543400088800002078563412F4010008F6
:1001C000F4010008F4010008F8010008F801000833
:1001D000FC01000808B5FFF775FFC046FEE7C04602
:1001E000FEE7C046FEE7C046FEE7C046FEE7C04663
:0401F000FEE7C04620
:0801F400192500082925000867
:1001FC00F8B5051C0E1C9023DB05984212D03D4B24
:10020C0098420FD03C4B98420CD03C4B984209D0B2
:10021C003B4B984206D03B4B984203D03A48B42112
:10022C0000F09EFD3368002B03D13748B52100F058
:10023C0097FD3379032B03D93348B62100F090FD99
:10024C00F379022B03D93048B72100F089FD002443
:10025C0001274BE03B1CA34032681A409A4244D120
:10026C003379013B012B28D87379012B05D9032B4A
:10027C0003D02548C72100F073FDAA686300032151
:10028C0099408A43AA60AA68717999400B1C134360
:10029C00AB60B379012B03D91B48CE2100F060FD74
:1002AC00AA8823041B0C391C99408A43AA80AA886B
:1002BC00B17999408BB21343AB8029686300032258
:1002CC00101C98408143296028683179994001437A
:1002DC002960E9682004C00B82409143E960EA6818
:1002EC00F17999400B1C1343EB6001340F2CB1D9FD
:1002FC00F8BDC0460004004800080048000C004847
:10030C0000100048001400480832000838B5041CDE
:10031C000D1C9023DB05984213D0274B984210D02C
:10032C00264B98420DD0264B98420AD0254B98422A
:10033C0007D0254B984204D024489B21490000F05B
:10034C000FFD6B1E9BB2012B30D9042D2ED0082D26
:10035C002CD0102D2AD0202D28D0402D26D0802D09
:10036C0024D080235B009D4220D080239B009D42A3
:10037C001CD08023DB009D4218D080231B019D42A2
:10038C0014D080235B019D4210D080239B019D42A1
:10039C000CD08023DB019D4208D080231B029D42A0
:1003AC0004D00A483821FF3100F0DAFC208A0540DD
:1003BC00281C451EA84138BD000400480008004810
:1003CC00000C0048001000480014004808320008D7
:1003DC0038B5041C0D1C9023DB05984213D00E4B32
:1003EC00984210D00D4B98420DD00D4B98420AD02C
:1003FC000C4B984207D00C4B984204D00B48C821A8
:10040C00490000F0ADFC002D04D108489221FF31C9
:10041C0000F0A6FCA56138BD0004004800080048A7
:10042C00000C004800100048001400480832000876
:10043C0038B5041C0D1C9023DB05984213D00E4BD1
:10044C00984210D00D4B98420DD00D4B98420AD0CB
:10045C000C4B984207D00C4B984204D00B48A62169
:10046C00FF3100F07DFC002D04D10848D321490058
:10047C0000F076FC258538BD0004004800080048D3
:10048C00000C004800100048001400480832000816
:10049C0070B5041C0D1C161C9023DB05984212D061
:1004AC00174B98420FD0174B98420CD0164B9842D2
:1004BC0009D0164B984206D0154B984203D01548DC
:1004CC00154900F04DFC0F2D03D91248134900F0CB
:1004DC0047FC072E03D90F48114900F041FC0723B4
:1004EC002B409B009E40E908083189000A590F20D7
:1004FC00984082430A510B591E430E5170BDC046A1
:10050C000004004800080048000C00480010004897
:10051C0000140048083200080D0200000E02000012
:10052C000F02000070B5041C8378012B03D91A4804
:10053C00522100F015FC6378032B03D91648532184
:10054C0000F00EFCA378002B1BD02578AA08134BC7
:10055C00C0329200D65803210D40E900FF20051C43
:10056C008D40AE43351C6678B60130408840011C86
:10057C002943D15022781F210A4001219140196052
:10058C0008E023781F21194001238B40191C80237C
:10059C00024AD15070BDC0463C32000800E100E078
:1005AC0070B5041C5E4B5B680C221340042B0CD002
:1005BC0002D8002B05D028E0082B0AD00C2B20D019
:1005CC0023E0584B0360002022E0564B03600020D0
:1005DC001EE0534B5D68AD025A682D0F0235C023E7
:1005EC005B021A4202D15048684308E04C4BDB6A6C
:1005FC000F21194001314B4802F018F96843206073
:10060C0006E04A4B0360002002E0464B23600020CA
:10061C00434B5A681206120F454DA95CC9B22668A5
:10062C00321CCA40111C62605A685205520FAA5CF7
:10063C00D2B2D1400A1CA1601B6BD90502D43D4B30
:10064C00E36008E0364B5B68590402D45308E3605E
:10065C0001E09308E360324B1B6B590602D4364B16
:10066C00236102E080231B0223612D4B1B6BD906F7
:10067C0002D42C4B636100E06661294B1B6B99071C
:10068C0001D1A26119E0264B1B6B03210B40012BFE
:10069C0001D1A66111E0224B1B6B03210B40022BF5
:1006AC0003D180231B02A36107E01D4B1B6B0321AD
:1006BC000B40032B01D11B4BA361194B196BC023AE
:1006CC009B02194201D1E26120E0154B1B6BC02249
:1006DC0092021A4080235B029A4201D1E66115E036
:1006EC000F4B1B6BC02292021A4080239B029A4232
:1006FC0003D180231B02E36108E0094B1A6BC02372
:10070C009B021A409A4201D1064BE361044B1B6BCE
:10071C001A0602D4054B236200E0206270BDC0466D
:10072C000010024000127A0000093D00006CDC024F
:10073C0004000020809FD5001280000038B5041CF6
:10074C000D1C0D4B184201D1002803D10B480C494C
:10075C0000F006FB012D03D908480A4900F000FB04
:10076C00002D04D0084B5A6914435C6103E0064B1E
:10077C005A69A2435A6138BDAAFF81FE7032000843
:10078C0036050000370500000010024038B5041C87
:10079C000D1C0D4B184201D1002803D10B480C49FC
:1007AC0000F0DEFA012D03D908480A4900F0D8FA06
:1007BC00002D04D0084B9A6914439C6103E0064B4E
:1007CC009A69A2439A6138BDFEA5B8FF7032000841
:1007DC005A0500005B0500000010024038B5041CEF
:1007EC000D1C0E4B184201D1002803D10C480D49A9
:1007FC0000F0B6FA012D04D90948B121C90000F066
:10080C00AFFA002D04D0084BDA691443DC6103E025
:10081C00054BDA69A243DA6138BDC046CCB6118506
:10082C00703200088705000000100240F0B5474602
:10083C0080B48AB0041C0D1C5C4B98420CD05C4BF1
:10084C00984209D05B4B984206D05B4B984203D040
:10085C005A48DC2100F084FA2A68013A584B9A4233
:10086C0003D95648DD2100F07BFA6B68002B0AD0C7
:10087C0080225201934206D0524A934203D04F48F1
:10088C00DE2100F06DFAAB68002B0BD080229201B8
:10089C00934207D0C0229201934203D04748DF21F4
:1008AC0000F05EFAEB68002B0BD08022D200934252
:1008BC0007D0C022D200934203D04048E02100F080
:1008CC004FFA2B690C22191C914301D1002B03D137
:1008DC003A48E12100F044FA6B69002B0FD08022DA
:1008EC00520093420BD080229200934207D0C02238
:1008FC009200934203D03148E22100F031FA236890
:10090C0001229343236062682F4B1340AA68134360
:10091C00636022682D4B1A406B68E9680B432969A8
:10092C000B4313432360A268294B13406A6913439A
:10093C00A36001A8FFF734FE1C4B9C4201D1079F1A
:10094C0005E01B4B9C4201D1089F00E0039F2368EC
:10095C0019040CD57F00B8462F684046391C01F0AD
:10096C0065FF061C4046391C01F0A4FF0AE02A680A
:10097C009046381C111C01F059FF061C381C4146CE
:10098C0001F098FF2A685208002391425B41F61847
:10099C002368190404D533075B0F0E4A16401E4317
:1009AC00B6B2A6810AB004BC9046F0BD0038014036
:1009BC000044004000480040004C0040A0320008B9
:1009CC007F8D5B0000100010FFCFFFFFF3E9FFFFEE
:1009DC00FFFCFFFFF0FF000038B5041C0D1C124B90
:1009EC0098420DD0114B98420AD0114B984207D027
:1009FC00104B984204D01048C821490000F0B0F9BF
:100A0C00012D04D90C489221FF3100F0A9F9002DD9
:100A1C0004D0226801231343236003E023680122DE
:100A2C009343236038BDC046003801400044004069
:100A3C0000480040004C0040A032000838B5041CAF
:100A4C000D1C0D4B98420CD00C4B984209D00C4B02
:100A5C00984206D00B4B984203D00B480B4900F040
:100A6C007FF90B4B9D4203D907480A4900F078F9EE
:100A7C00ED05ED0D258538BD0038014000440040E2
:100A8C0000480040004C0040A032000895030000D4
:100A9C00FF0100009603000010B5041C094B98429E
:100AAC000CD0094B984209D0084B984206D0084B01
:100ABC00984203D00748084900F052F9A08CC005B1
:100ACC00C00D10BD003801400044004000480040FB
:100ADC00004C0040A0320008A603000070B5051CB5
:100AEC000C1C161C2C4B98420CD02C4B984209D049
:100AFC002B4B984206D02B4B984203D02A482B49BB
:100B0C0000F02EF984235B009C4225D0284B9C429C
:100B1C0022D0284B9C421FD0274B9C421CD0274BE9
:100B2C009C4219D0264B9C4216D0264B9C4213D08B
:100B3C00C0239B009C420FD0234B9C420CD0234BD8
:100B4C009C4209D0224B9C4206D0224B9C4203D0A3
:100B5C001548214900F004F9012E03D912481F4908
:100B6C0000F0FEF82B1CA2B2120AFF210C4001214E
:100B7C00A1400C1C022A01D12B1D03E0032A01D138
:100B8C002B1C0833002E03D01A6814431C6002E09F
:100B9C001A68A2431A6070BD00380140004400403E
:100BAC0000480040004C0040A0320008050700003F
:100BBC0007010700060106000501050004010400F9
:100BCC00060208000A0309001A010B001B010C00A5
:100BDC000E011100160314000607000007070000A1
:100BEC0038B5051C0C1C2F4B98420CD02E4B984240
:100BFC0009D02E4B984206D02D4B984203D02D484D
:100C0C002D4900F0ADF884235B009C422AD02B4B7D
:100C1C009C4227D02A4B9C4224D02A4B9C4221D068
:100C2C00294B9C421ED0294B9C421BD0284B9C42EA
:100C3C0018D0284B9C4215D0274B9C4212D0274BE6
:100C4C009C420FD0264B9C420CD0264B9C4209D088
:100C5C00254B9C4206D0254B9C4203D01548244979
:100C6C0000F07EF8A3B21B0AFF2222400121914022
:100C7C000A1C012B02D129680A4006E0022B02D182
:100C8C0069680A4001E0A9680A40240C0123A340CA
:100C9C001C1CEB691C400020002A02D0201C441EA6
:100CAC00A04138BD003801400044004000480040DD
:100CBC00004C0040A0320008E607000007010700C6
:100CCC0006010600050105000401040006020800E7
:100CDC000A030900000303000003020000030100E3
:100CEC001A010B001B010C000E011100160314005D
:100CFC00E7070000FEE7C04608B5034800F054F8CB
:100D0C000120FFF7F7FFC046D432000808B50D4BA1
:100D1C001B68002B02D10C4A0A4B1A60094B1B684A
:100D2C000330032290431818084A904206D901F068
:100D3C00CDFD0C2303600120404202E0014A10600B
:100D4C00181C08BD8C000020AC100020001C0020DA
:100D5C0001230360014B0B607047C0461400002058
:100D6C0008B5031C0A1C0348191C00F005F8FFF712
:100D7C00C3FFC046283300080FB400B583B004ABE2
:100D8C0004CB01930748802102F0D4F9011E03DD46
:100D9C00044800F053F8011C081C03B008BC04B054
:100DAC001847C0469400002010B5041C01F0A0FEAA
:100DBC00011C201C00F042F80248012100F03EF812
:100DCC0010BDC04654330008F0B55F4656464D463C
:100DDC004446F0B485B0041C8A46435C0E1C002BC0
:100DEC001BD10425281C211CABBE041C1DE0351E88
:100DFC00102D00D95D46434604E022786946CA545A
:100E0C0001330134AB42F8D36F464246FA5448469C
:100E1C00391CABBE071C761B05E010239B4600213A
:100E2C00884604229146002EE1D1504605B03CBCC8
:100E3C0090469946A246AB46F0BDC04608B5FFF7B2
:100E4C00C3FF08BD08B500F05BF808BD82B00023F5
:100E5C0001930093274B1968802252020A431A60AF
:100E6C00191C80229202A020C0010B681340009331
:100E7C00019B01330193009B002B02D1019B834208
:100E8C00F3D11C4B1B689A0302D50123009301E09C
:100E9C0000230093009B012B2AD11122164B1A60C0
:100EAC00144B5A685A605A685A605968134A0A4077
:100EBC005A605968882252030A435A601968802282
:100ECC0052040A431A60191C802292040B681342C4
:100EDC00FCD0084B5A6803218A435A605968022295
:100EEC000A435A60191C0C224B681340082BFBD187
:100EFC0002B070470010024000200240FF7FC0FF8C
:100F0C0008B5124B19680122114319605868104931
:100F1C000140596018680F490140196018680E4962
:100F2C000140196058680D4901405960D96A0F2079
:100F3C008143D962186B0A4901401963596B91437B
:100F4C00596300229A60FFF781FF08BD0010024030
:100F5C000CB8FF08FFFFF6FEFFFFFBFFFFFFC0FF13
:100F6C00ACFEFFFF70B5041C0E1C00230370732332
:100F7C008360081C01F0BCFD0130606001F0ACFC2A
:100F8C00051E02D10323237003E0311C01F0A8FDE0
:100F9C002561201C70BDC04600230370692383604B
:100FAC00042343600161704700230370692383604D
:100FBC000423436001617047002303706623836040
:100FCC00042343600161704710B582B06B460091F9
:100FDC000192002202707422826008224260021C7C
:100FEC00103212CB12C202B010BDC04600210170EB
:100FFC000821416064218160026143617047C046F1
:10100C00F0B54F464646C0B483B0071C894690469F
:10101C000023037062238360101C043078600092FC
:10102C0001AD6C460334042304E023782B70331C8D
:10103C000135013C5E1E002BF7DC019C009400285E
:10104C000DDD01F049FC051E02D103233B7008E0C5
:10105C0010C04946424601F053FC3D6101E00023BB
:10106C003B61381C03B00CBC90469946F0BDC046A1
:10107C0010B5041C4368002B0BDD8368732B03D164
:10108C00006901F033FC04E0622B02D1006901F02D
:10109C002DFC201C10BDC046022303708160002370
:1010AC004360704770B5431C012282560126212AE9
:1010BC0001D1831C002670427041C0B214E001249F
:1010CC001C572D2C0AD10C7852B265B2AA4203DC03
:1010DC0002229A5695420DDD033305E052B20024EC
:1010EC000C57A24208D001331A785D2A05D0002A89
:1010FC00E5D102E0301C00E0301C70BD70B50E1C58
:10110C00013013E0013400E0041C23787D2B05D062
:10111C00002B03D02F2B01D02C2BF3D1251A311CF3
:10112C002A1C01F0ECFC002809D0601C03787D2BF4
:10113C0007D0002B07D02F2BE6D1002004E0281C71
:10114C0002E0002000E0002070BDC04608B5031C82
:10115C0002785D2A12D050B25D2805DC01203F2AAE
:10116C0027D05B2A05D01EE07B2A0FD07D2A12D017
:10117C0019E0181CFFF796FF1BE0013B00229A5662
:10118C005B2AFAD1181CFFF78DFF12E0181CFFF731
:10119C00B5FF0EE0013B00229A567B2AFAD1181CAF
:1011AC00FFF7ACFF05E050B20023CB56C01A424209
:1011BC00504108BD70B5041C0D1C0B782F2B01D0B1
:1011CC00002B0ED123782F2B2ED00120002B2ED0CC
:1011DC0000202A2B2BD160782F2827D0434258414E
:1011EC0025E006782A2E0BD10130FFF7E3FF031C14
:1011FC000120002B1BD1691C201CFFF7DBFF16E024
:10120C00FFF7A4FF002812D05B2E03D07B2E06D153
:10121C0000E0013423785D2B01D07D2BF9D1601CCB
:10122C00691CFFF7C7FF02E0012000E0012070BD40
:10123C00F0B557464E464546E0B480460F1C0B7839
:10124C0000200A1C002B01D178E0013213782F2BDF
:10125C0004D0002BF9D14446002008E0444600207D
:10126C0005E05BB22A3B59424B41C018013423784C
:10127C002F2B01D0002BF4D1013C551E012815D089
:10128C0002282BD054E0201C291CFFF75FFF0028FC
:10129C0054D05D2E03D07D2E06D100E0013C237886
:1012AC005B2B01D07B2BF9D1013C013D26782A2EFA
:1012BC00E9D1012042E0201C291CFFF747FF002840
:1012CC003CD05D2E03D07D2E06D100E0013C23786E
:1012DC005B2B01D07B2BF9D1013C013D26782A2ECA
:1012EC00E9D10135A946013CA2461DE05446012333
:1012FC005B4299444E4612E0201C311CFFF726FF3E
:10130C0000280FD05D2D03D07D2D06D100E0013CCF
:10131C0023785B2B01D07B2BF9D1013C013E257846
:10132C002A2DE9D1444508D0B945DFD8002005E085
:10133C004046391CFFF73EFF00E001201CBC9046E4
:10134C009946A246F0BDC046F0B557464E464546B6
:10135C00E0B480460F1C9246994601F0B7FB00287A
:10136C000BD1404601F0C4FB52461060381C01F012
:10137C00BFFB4B461860032064E000235246136009
:10138C004A4613603D1C444645E02A2E14D1201CCD
:10139C00291CFFF74DFF002801D153E001342378BD
:1013AC002F2B03D0002BF9D100E001352B782F2BFC
:1013BC0031D0002BF9D12EE02A2B0ED100E00134D4
:1013CC0026782F2E03D0002EF9D100E001352E788F
:1013DC002F2E20D0002EF9D11DE0201C291CFFF748
:1013EC00B5FE00282DD05B2E08D100E0013400237F
:1013FC00E3565D2BFAD1013401350CE07B2E08D17C
:10140C0000E001340023E3567D2BFAD101342D1872
:10141C0001E0013401352B78002B02D02678002E08
:10142C00B3D14246A31A52461360EF1B4B461F60C2
:10143C002878434258412378002B03D102231843C8
:10144C0000E000201CBC90469946A246F0BDC04668
:10145C0083688B4203DD43688900C85802E004238B
:10146C00037300207047C04600B583B00068801835
:10147C0001AA6B46FFF768FF033843425841C0B2DC
:10148C0003B000BD38B5041C151C1A1CFFF7ECFF8B
:10149C000023002802D0201CA8470123181C38BDAB
:1014AC0070B5051C0E1C006801F020FA301C01F010
:1014BC001FFB013001F010FA041E04D103232B731F
:1014CC0000232B6003E0311C01F00AFB2C6070BD83
:1014DC0070B5051C067B731E9E41F6B2002408E015
:1014EC00281C211CFFF7B4FF03785A1E93411E439E
:1014FC000134AB68A342F3DC301C70BD38B5041C5E
:10150C00FFF7A6FF051C201CFFF7E2FF00230028B5
:10151C0000D12B7A58B238BDF0B54F464646C0B410
:10152C0085B0061C0C1C081C00F054FC301CFFF78A
:10153C00CFFF002800D0B6E03768381C01F0D8FA8D
:10154C00421C03258543201C391C00F059FC04E087
:10155C00201C002100F04CFC3D1C6F1E002DF7D10F
:10156C00201C2C2100F044FC08E0301C291CFFF747
:10157C00C5FFC1B2201C00F03BFC0135B268AA4289
:10158C00F3DC0323934306D1042304E0201C002145
:10159C0000F02EFC2B1C5D1E002BF7D10027032224
:1015AC0091460423984678E0301C391CFFF750FF15
:1015BC00051C8368732B01D0622B12D1201C296966
:1015CC006A6800F01DFC6B685B424A46134004E0FD
:1015DC00201C002100F00CFC2B1C5D1E002BF7D1F5
:1015EC005AE0642B11D1173002AA082304E00378C7
:1015FC0013700B1C01320138591E002BF7DC201C18
:10160C0002A9082200F0FCFB46E0742B2ED1011C31
:10161C00103102A8082201F073F901A96A460B32B5
:10162C00434604E013780B70031C0131013A581E39
:10163C00002BF7DC019B0093201C6946424600F00E
:10164C00DFFB01A96A460F32434604E013780B70A6
:10165C00031C0131013A581E002BF7DC019A009251
:10166C00201C6946424600F0CBFB15E0542B13D0EE
:10167C00462B11D0011C133102AA434604E00B780F
:10168C001370031C01320139581E002BF7DC6A68F9
:10169C00201C02A900F0B4FB0137B368BB4283DC09
:1016AC00201C00F09DFB05B00CBC90469946F0BD8B
:1016BC0070B5041CCEB2182001F0A4F8051C71B250
:1016CC00FFF7EAFC2B78032B01D1237311E0A168FF
:1016DC0001318900606801F0B9F9002802D10323B7
:1016EC00237306E06060A2689300C550A3680133C1
:1016FC00A36070BD38B5041C0D1C8269002A08DD7E
:10170C0043695A1C42610269D1548369013B83616C
:10171C0010E041691131006901F098F9206100284D
:10172C0006D063695A1C6261C5541023A36101E0A1
:10173C000323237338BDC04610B5041C0069102167
:10174C0001F084F92061002802D01023A36103E08A
:10175C0003232373002323610023636110BDC04660
:10176C0038B5041C0025056085600573456005616E
:10177C0045618561FFF7E0FF657338BD38B5041C22
:10178C000D1CFFF7EDFF201C291CFFF789FE201C08
:10179C0038BDC04610B5041CFFF7E2FF02232373CB
:1017AC00201C10BD70B5061C0023037300240BE035
:1017BC00301C211CFFF74CFE051E04D0FFF758FC13
:1017CC00281C01F019F80134B368A342F0DC7068EE
:1017DC0001F08CF800237360B3607373301CFFF757
:1017EC00ABFF70BD10B5041C006801F07FF8201C25
:1017FC00FFF7D8FF206901F079F8201C10BDC04616
:10180C0010B5041C2169FFF74BFE00232373201C29
:10181C00FFF792FF10BDC046F0B5474680B48AB0C2
:10182C00071C0C1C00265FE2381C311CFFF710FE55
:10183C000378022B00D056E28368623B122B00D94E
:10184C0056E29B00CB4AD3589F467A69042A00D0B3
:10185C004EE202A8396901F053F804A96A460B322A
:10186C00042304E013780B70031C0131013A581E59
:10187C00002BF7DC049DBB689E421ADA381C311C25
:10188C00FFF7E6FD041E04D0FFF7F2FB201C00F06E
:10189C00B3FF182000F0B6FF041C291CFFF77CFBDB
:1018AC002378032B01D13B7326E0B6007B689C5157
:1018BC0022E09E421ED1182000F0A4FF041C291C1B
:1018CC00FFF76AFB2378032B01D13B7314E0B96853
:1018DC0001318900786801F0B9F8002802D103239E
:1018EC003B7309E07860BA689300C450BB6801335D
:1018FC00BB6001E004233B73381CFFF71DFFF7E1CD
:10190C007B69042B00D0F3E102A83969042200F0B2
:10191C00F7FF04A96A460B32042304E013780B701A
:10192C00031C0131013A581E002BF7DC049DBB68E7
:10193C009E421ADA381C311CFFF78AFD041E04D0B3
:10194C00FFF796FB201C00F057FF182000F05AFF01
:10195C00041C291CFFF730FB2378032B01D13B73AC
:10196C0026E0B6007A68945122E09E421ED11820DF
:10197C0000F048FF041C291CFFF71EFB2378032BE7
:10198C0001D13B7314E0B96801318900786801F02A
:10199C005DF8002802D103233B7309E07860BA6834
:1019AC009300C450BB680133BB6001E004233B735C
:1019BC00381CFFF7C1FE9BE17B69082B00D097E137
:1019CC0002A83969082200F09BFF04A96A460F326D
:1019DC00082304E013780B70031C0131013A581EE4
:1019EC00002BF7DC049C059DBB689E421EDA381C5C
:1019FC00311CFFF72DFD8046002804D0FFF738FB83
:101A0C00404600F0F9FE182000F0FCFE8046221C37
:101A1C002B1CFFF7EBFA42461378032B01D13B73D7
:101A2C0028E0B60042467B689A5123E09E421FD1C3
:101A3C00182000F0E7FE061C221C2B1CFFF7D6FA20
:101A4C003378032B01D13B7314E0B9680131890061
:101A5C00786800F0FBFF002802D103233B7309E0F8
:101A6C007860BA689300C650BB680133BB6001E074
:101A7C0004233B73381CFFF75FFE39E17B69082BAD
:101A8C0000D035E168463969082200F039FF04A915
:101A9C006A460332042304E013780B70031C0131F3
:101AAC00013A581E002BF7DC049A009204A96A46EE
:101ABC000732042304E013780B70031C0131013A44
:101ACC00581E002BF7DC049B019302A869460822E0
:101ADC0000F016FFBB689E4220DA381C311CFFF761
:101AEC00B7FC041E04D0FFF7C3FA201C00F084FEE0
:101AFC0006A802A9082200F003FF182000F082FEBD
:101B0C00041C0699079AFFF75FFA2378032B01D17F
:101B1C003B7333E0B6007A6894512FE09E422BD190
:101B2C0004A802A9082200F0EBFE08A804A90822C8
:101B3C0000F0E6FE182000F065FE041C0899099AD6
:101B4C00FFF742FA2378032B01D13B7316E0B968F7
:101B5C0001318900786800F079FF002802D1032355
:101B6C003B730BE07860BA689300C450BB680133D8
:101B7C00BB6003E08433000804233B73381CFFF77D
:101B8C00DBFDB5E0002C00D0B2E03D69BB689E42A5
:101B9C001ADA381C311CFFF75BFC041E04D0FFF76B
:101BAC0067FA201C00F028FE182000F02BFE041C05
:101BBC00291CFFF7D7F92378032B01D13B7326E0BF
:101BCC00B6007B689C5122E09E421ED1182000F08A
:101BDC0019FE041C291CFFF7C5F92378032B01D12E
:101BEC003B7314E0B96801318900786800F02EFF6E
:101BFC00002802D103233B7309E07860BA68930094
:101C0C00C450BB680133BB6001E004233B73381C38
:101C1C00FFF792FD06237B736AE07D69042D67DD77
:101C2C003B69984602A8191C042200F069FE04A81E
:101C3C006A460B32042304E013780370231C013032
:101C4C00013A5C1E002BF7DC049C231D9D424FD1F6
:101C5C0004229044BB689E421BDA381C311CFFF7EF
:101C6C00F7FB051E04D0FFF703FA281C00F0C4FD97
:101C7C00182000F0C7FD051C4146221CFFF7C0F9D7
:101C8C002B78032B01D13B7327E0B6007B689D5169
:101C9C0023E09E421FD1182000F0B4FD051C4146E4
:101CAC00221CFFF7ADF92B78032B01D13B7314E009
:101CBC00B96801318900786800F0C8FE002802D1AB
:101CCC0003233B7309E07860BA689300C550BB6886
:101CDC000133BB6001E004233B73381CFFF72CFD80
:101CEC0006237B7304E00136BB68B34200DD9BE541
:101CFC000AB004BC9046F0BD38B5041C0D1CFFF7AF
:101D0C00F9FC637B062B53D89B002A4AD3589F4679
:101D1C002F2D4DD1012363734AE0002D48D1201C97
:101D2C00FFF76EFD0223637342E02C2D40D1032399
:101D3C006373201CFFF700FD3AE0002D04D0201C3B
:101D4C00291CFFF7B5FC01E004236373A26803238D
:101D5C00934300D104239B186169994228D1201C1C
:101D6C00FFF7EAFC0523637322E0201C291CFFF714
:101D7C0053FD1DE0A568013D18E0201C291CFFF750
:101D8C0067FB0378002B10D143685B42032213409E
:101D9C0002D1052363730BE062699A4208D1201CBF
:101DAC00FFF7CAFC0523637302E0013D002DE4DA62
:101DBC0038BDC046D033000870B5061C06E04D1C7B
:101DCC000978301CFFF798FF221C291C541E002A8E
:101DDC00F5D170BD002280235B00C2547047C04611
:101DEC0080235B00C25C0223FF33C2547047C046A1
:101DFC0080235B00C25C81540132C2547047C046E0
:101E0C0070B5061C06E04D1C0978301CFFF7F0FF7E
:101E1C00221C291C541E002AF5D170BD10B582B0AD
:101E2C00802080020121FEF789FC8020C002012164
:101E3C00FEF784FC08230093012369460B710023F1
:101E4C008B7103224A71CB71044C201CFEF7D0F924
:101E5C00201C0821FEF7BCFA02B010BD000400489B
:101E6C00016042608360044BC36000230361242241
:101E7C008354252283547047EC33000800B583B09B
:101E8C00802080020121FEF759FC022300930023DD
:101E9C006A4613710123D3719020C0056946FEF781
:101EAC00A7F903B000BDC0467047C04670B588B0F6
:101EBC00041C9020C0050221FEF728FA4342584129
:101ECC00C0B22423E0542523E35C98424BD0252355
:101EDC00E054251C1435281C2449E268236900F0C1
:101EEC00D3FD01A8291CFFF749FC2423E65C18202C
:101EFC0000F088FC051C311CFFF756F82B78032BDF
:101F0C0003D1032201AB1A7312E002980399013139
:101F1C00890000F09BFD002803D1032201AB1A734A
:101F2C0006E00290039A9300C550039B0133039380
:101F3C0001A82168FFF7F0FA21680223FF33CA5C7D
:101F4C00606800F00FF92423E35C002B04D00848F0
:101F5C000821FEF76DFA03E005480821FEF738FA70
:101F6C0001A8FFF73FFC08B070BDC046F033000875
:101F7C0000040048012303710023A322D2008350E4
:101F8C00822292008350C4229200835001607047D9
:101F9C0010B5C0290CD18221890043585A1CC31892
:101FAC00DB245C71531C43508018DC23437115E017
:101FBC00DB290CD18221890043585A1CC318DB241D
:101FCC005C71531C43508018DD23437106E0822260
:101FDC00920083585C1C8450C018417110BDC046DF
:101FEC00F0B5474680B40024C4239B00C4500023A2
:101FFC00C426B600DB24A446C025A84629E0CC188C
:10200C002578DB2D1BD15C1C0C192578DC2D08D117
:10201C0085596F1C875145198427BF00ED19474618
:10202C002F702478DD2C08D18459651C8551041936
:10203C008425AD00641967462770023309E0855981
:10204C006F1C8751247845198427BF00ED192C701B
:10205C0001339342D3DBC4239B00C258C5239B009E
:10206C00C25004BC9046F0BDF8B54F464646C0B4CD
:10207C008121490080256D00FF26A327FF00022344
:10208C00984601239C46C6239B00994631E0541C7C
:10209C005C529C5C03685A5A32405A520379012BA9
:1020AC000BD1C02C02D16346037122E06346C351AD
:1020BC004B46C454434603711BE0022B19D1C25941
:1020CC00FF2A02D96346037113E0C02C08D1012307
:1020DC000371C6239B00C118FFF782FF01200EE09D
:1020EC00531CC3518218C6239B00D218147043464C
:1020FC00037103685A5A5C5BA242C8D100200CBC25
:10210C0090469946F8BDC046012282239B00C250DE
:10211C00C02343717047C046822189004258531C2A
:10212C0043508218C0215171832292008350704712
:10213C00F0B5474680B480460D1C141CFFF7E4FF35
:10214C0006E06F1C29784046FFF722FF341C3D1C2B
:10215C00661E002CF5D14046FFF7DEFF04BC90460E
:10216C00F0BDC046F0B5474680B4041CFFF7E0FF55
:10217C0000258327BF008126B600FF21884614E086
:10218C0023689A5B511C9953611949799B18013347
:10219C00FF33197123689A5B41460A409A53822394
:1021AC009B002268D35898470135E059A842E7D8DC
:1021BC0004BC9046F0BDC04608B50C4B18680C49E1
:1021CC0000F034FB01380B4B98420DD80A4B586089
:1021DC000A4A106A0002000AC02109060143116272
:1021EC0000229A6007221A6008BDC0461C0000201D
:1021FC0010270000FFFFFF0010E000E000ED00E002
:10220C00034B18601A1C1368002BFCD17047C04696
:10221C00880C0020064B1B68002B03D0044B1A685B
:10222C00013A1A60034B1A6801321A607047C046B3
:10223C00880C00208C0C002008B5FFF7EBFF08BDC4
:10224C00024B1A6901321A617047C04634070020EC
:10225C0008B5034800230361FFF710FE08BDC04614
:10226C003407002010B588B00D4CE2681434201CE3
:10227C000C4900F009FC01A8211CFFF77FFA0A4C5D
:10228C0001A8211CFFF748F90223FF33E25C074841
:10229C00211CFFF767FF01A8FFF7A4FA08B010BDD7
:1022AC0034070020F8330008140100205C070020DC
:1022BC0008B5011C0148FFF7F7FD08BD34070020E5
:1022CC0038B5012812D10A4B99420FD1094D281C5F
:1022DC000949FFF74FFE094C201C0949FFF74AFE3C
:1022EC00084809492A1C231CFFF7BAFD38BDC04613
:1022FC00FFFF000018020020900C00205C0700205B
:10230C009C0E00203407002014010020F0B5574625
:10231C004E464546E0B488B000F020F9FFF77EFD4C
:10232C00FFF74AFF6B48FFF7A9FD01A8FFF732FA48
:10233C00694C201C0821FEF74BF8FA25AD00281C2F
:10234C00FFF75EFF201C0821FEF772F8281CFFF730
:10235C0057FF201C0821FEF73BF8281CFFF750FF05
:10236C00201C0821FEF764F85C4C251C8421890094
:10237C006618201CFFF778FE0028FAD0C5239B00B6
:10238C00EA5801A8311CFFF717FD01A8FFF7A0F8C8
:10239C00002828D101A852490022FFF765F800282F
:1023AC001DD0504C01A8211CFFF7B6F80223FF33B7
:1023BC00E25C4D48211CFFF7D5FE01A8FFF7F2F9AE
:1023CC0045480821FEF704F8444CA04684218900B6
:1023DC008946C144434F3F4E351C143507E001A8D4
:1023EC00FFF7E0F9C5E701A8FFF7DCF9C1E7201C0E
:1023FC00FFF73AFE002841D0C5239B004146CA583E
:10240C0001A84946FFF7D8FC01A8FFF761F800289E
:10241C0031D101A8391CFFF77FF80223FF33FA5C96
:10242C003148391CFFF79EFE281C3049F26833698D
:10243C0000F02AFB01A8291C2D4A0023FFF722F8E3
:10244C00281C2C49F26800F01FFB01A8291C2A4A01
:10245C000023FFF717F801A82849294A0023FFF7A2
:10246C0011F801A82749284A0023FFF70BF801A807
:10247C00FFF798F902E001A8FFF794F91A48FFF763
:10248C00F3FD002821D01849C5239B00CA5884238A
:10249C009B00C91801A8FFF78FFC01A8FFF718F8DB
:1024AC0000280FD10F498A4601A8FFF735F80223FF
:1024BC00FF335146CA5C0948FFF754FE01A8FFF7E9
:1024CC0071F902E001A8FFF76DF90248FFF7EEFC85
:1024DC008DE7C04634070020000400481802002095
:1024EC00FC330008140100205C070020F0330008C6
:1024FC00BD220008F83300084D22000804340008FF
:10250C0071220008103400085D22000808B5012073
:10251C000149FFF7D5FE08BDFFFF000008B50020FC
:10252C000149FFF7CDFE08BDFFFF000008B50348C9
:10253C0003490122FEF7D2FA08BDC046003801401B
:10254C000701070008B5034803490122FEF7C6FA44
:10255C0008BDC0460044004007010700F0B55F46C7
:10256C0056464D464446F0B48BB0584B8026760008
:10257C000024002291469C5381256D005C538120E0
:10258C0080001C5252495C5282229200514F9F5043
:10259C00514B9C535C531C525C52504999508023B4
:1025AC009B029A46181C0121FEF7C8F850460121DF
:1025BC00FEF714F99027FF05381C02210122FDF7C4
:1025CC0067FF381C03210122FDF762FF02AD0C23CB
:1025DC00029303226A7102232B714A46AA710123CA
:1025EC009846EB71381C291CFDF702FEE1235B02B7
:1025FC00049305940694079409940C220892384B82
:10260C009B46181C04A9FEF711F9584635490122BE
:10261C00FEF764FA01AE1C2333704A4672704346CF
:10262C00B370301CFDF77EFF58460121FEF7D4F93C
:10263C0050460121FEF782F88020C0010121FEF7EF
:10264C00A5F8381C09210122FDF722FF381C0A21AC
:10265C000122FDF71DFFC023DB00029303226A71E8
:10266C0002232B714A46AA714346EB71381C291C74
:10267C00FDF7BEFDE12252020492059406940794E4
:10268C0009940C230893184C201C04A9FEF7CEF8CF
:10269C00201C14490122FEF721FA201C13490122A7
:1026AC00FEF71CFA1B2333704A4672704346B37014
:1026BC00301CFDF737FF201C0121FEF78DF90BB004
:1026CC003CBC90469946A246AB46F0BD900C00200F
:1026DC0006020000392500089C0E00205125000838
:1026EC0000440040050105000038014007010700C7
:1026FC0070B51B481B49FEF773FA00280CD01A4C16
:10270C0080256D00665B1648FEF7C6F9A055635B25
:10271C000133FF221340635311481449FEF760FA4A
:10272C0000281CD0104B812292009A5A10495B5AF7
:10273C009A420FD05C1CA4B20B4A081C5452D318FA
:10274C000133FF331979FF231C4014520448FEF760
:10275C0075F904E0024805490022FEF7BFF970BD87
:10276C0000440040050105009C0E002007010700F5
:10277C000602000070B51B481B49FEF731FA002811
:10278C000CD01A4C80256D00665B1648FEF784F958
:10279C00A055635B0133FF22134063531148144966
:1027AC00FEF71EFA00281CD0104B812292009A5A78
:1027BC0010495B5A9A420FD05C1CA4B20B4A081CFD
:1027CC005452D3180133FF331979FF231C40145290
:1027DC000448FEF733F904E0024805490022FEF7ED
:1027EC007DF970BD0038014005010500900C0020FA
:1027FC00070107000602000008B5002801D000F010
:10280C0075F808BD10B5041E02D1012400E09847EC
:10281C00201C00F061F8002805D1034B1B68002B2D
:10282C00F5D1FEF769FA10BD780C0020002934D0E0
:10283C000123002210B488422CD301242407A14286
:10284C0004D2814202D209011B01F8E7E400A14243
:10285C0004D2814202D249005B00F8E7884201D3DE
:10286C00401A1A434C08A04202D3001B5C082243B6
:10287C008C08A04202D3001B9C082243CC08A04227
:10288C0002D3001BDC082243002803D01B0901D013
:10289C000909E3E7101C10BC7047002801D0002088
:1028AC00C04307B4024802A14018029003BDC046C1
:1028BC00190000000029F0D003B5FFF7B9FF0EBCDA
:1028CC004243891A1847C0467047C046014B1868E6
:1028DC007047C0468000002008B5034B011C1868E7
:1028EC0000F060F808BDC0468000002008B5034B1E
:1028FC00011C186800F00EF808BDC04680000020CE
:10290C0010B50023934203D0CC5CC4540133F9E7D7
:10291C0010BD000030B5002940D004390B68002BE5
:10292C0000DAC9181E4A1368141C002B02D14B6024
:10293C00116033E099420FD208680A189A4205D107
:10294C0013685268C01808604A6000E04B60216050
:10295C0024E08A4203D8131C5A68002AF9D11D6856
:10296C005C198C420BD1096869185818196090428F
:10297C0014D114685268091919605A600EE08C421F
:10298C0002D90C23036009E008680C18944203D1A7
:10299C0014685268001908604A60596030BDC0461E
:1029AC00800C002070B50323CD1C9D430835061CFC
:1029BC000C2D01D20C2501E0002D3FDB8D423DD3C7
:1029CC00204B1C681A1C211C002913D00868431BBF
:1029DC000DD40B2B02D90B60CC181EE08C4202D10B
:1029EC00636813601AE0486860600C1C16E00C1CED
:1029FC004968E9E7144C2068002803D1301C00F02A
:102A0C0031F82060301C291C00F02CF8431C15D028
:102A1C00C41C03239C4384420AD12560201C0B3028
:102A2C000722231D9043C31A0BD05A42E25008E0F0
:102A3C00211A301C00F016F80130EED10C23336053
:102A4C00002070BD800C00207C0C002008B50A1CF6
:102A5C000349031C0868191C00F0A0FB08BDC04604
:102A6C008000002038B5074C0023051C081C23608F
:102A7C00FEF74CF9431C03D12368002B00D02B60CC
:102A8C0038BDC046840C00200EB400B59CB01DAB04
:102A9C0004CB822202A992008A810A4A02908A609F
:102AAC004A6101225242CA81074A086110681D9A84
:102ABC00019300F09BF8029A002313701CB008BC21
:102ACC0003B01847FFFFFF7F8000002002780B78CF
:102ADC0001300131002A01D09A42F7D0D01A704748
:102AEC00031C0A7801311A700133002AF9D170479E
:102AFC000023C25C0133002AFBD1581E7047031C13
:102B0C00002010B582420FD01C780878A04201D169
:102B1C00012A03D118780B78C01A05E0013A002875
:102B2C00F8D001330131EFE710BD0000F0B58D682E
:102B3C0085B0071C0C1C03920193AB4245D3902229
:102B4C008B89D20013423DD0626903265643096932
:102B5C002068F20F401A96190290021C019801325B
:102B6C0012187610964200D2161C381C5A050FD536
:102B7C00311CFFF717FF051E13D0029A2169FFF7CE
:102B8C00BFFEA289184B134080221343A38111E08E
:102B9C00321C00F003FB051E0CD1381C2169FFF719
:102BAC00B9FE0C233B60A389402213430120A3816F
:102BBC00404217E0029B2561ED1825606661019D7E
:102BCC00F61AA6600198A84200D2019D2A1C206822
:102BDC00039900F0CAFAA2680020531BA360236873
:102BEC005D19256005B0F0BD7FFBFFFFF0B59FB010
:102BFC00039005938B890E1C171C19060FD532698F
:102C0C00002A0CD14021FFF7CDFE30603061002846
:102C1C0003D103990C230B60C9E04023736106AD0B
:102C2C0000236B6120236B763023AB763C1C23781E
:102C3C00002B03D1E21B029211D003E0252BF9D01B
:102C4C000134F4E70398311C3A1C029BFFF76EFF2A
:102C5C00013000D1A6E06969029A8B186B61237868
:102C6C00002B00D19EE0012252426A606A4600238A
:102C7C005B3201342B60EB60AB601370AB654E4F75
:102C8C002178381C052200F065FA002807D0C71BF4
:102C9C002B680120B840184328600134EFE72B68FB
:102CAC00D90603D56A4620215B3211701A0703D569
:102CBC006A462B215B32117022782A2A01D0099B9B
:102CCC000EE0059A111D12680591002A01DB09928C
:102CDC0004E05242EA60022213432B60013409E003
:102CEC002278303A092A04D80A214B4301349B1824
:102CFC00F6E7099323782E2B18D163782A2B09D168
:102D0C00059B02341A1D1B680592002B0DDA01235A
:102D1C005B420AE0013400232278303A092A04D8B5
:102D2C000A214B4301349B18F6E70793234F217874
:102D3C00381C032200F00EFA002806D0C71B2B68A3
:102D4C004020B84018432860013421781C480622E2
:102D5C00671C297600F0FEF9002812D0194B002BC5
:102D6C0006D1059B0722073393430833059314E0E0
:102D7C0005AB00930398291C321C134B00E000BFD9
:102D8C0007E005AB00930398291C321C0E4B00F096
:102D9C0091F804900499013104D06A69049953188C
:102DAC006B6143E7B3895A0601D40B9801E001200B
:102DBC0040421FB0F0BDC0461E3400082434000849
:102DCC002834000800000000392B0008F7B5151C4A
:102DDC0001930A698B68061C0C1C934200DA131CC5
:102DEC00221C2B6043321278002A01D001332B6055
:102DFC002068800602D52B6802332B6021680627D9
:102E0C000F401FD0231C43331B785A1E934122685A
:102E1C0092061FD5E11840313020C870211C5A1C75
:102E2C0045310978A21840320233D17012E0221CCD
:102E3C00301C019919320123089FB847013011D079
:102E4C00009F01370097E0682968009F431A9F4252
:102E5C00EDDBD7E7221C301C01994332089FB847A1
:102E6C00013002D10120404223E0206806212B686A
:102E7C00E26801400025042903D1D51AEB43DB1786
:102E8C001D40A26823699A4201DDD31AED18002770
:102E9C000097009FAF420BDA221C301C01991A32AA
:102EAC000123089FB8470130DCD0009F0137EFE7C2
:102EBC000020FEBDF0B50D1C8BB04335069205907D
:102ECC00079304950B7E0C1C109A6E2B00D1A7E077
:102EDC0011D8632B22D009D8002B00D1B0E0582B8D
:102EEC0000D0C0E045310B707B4D4EE0642B1CD004
:102EFC00692B1AD0B7E0732B00D1A5E009D86F2B42
:102F0C0029D0702B00D0AEE00E68202333430B6029
:102F1C0036E0752B1FD0782B32D0A4E013680D1C33
:102F2C00191D423511601B689FE0216813680E065D
:102F3C0003D5191D11601E6805E04806F9D5191D49
:102F4C00116000215E5E644B002E3BDA049D2D2245
:102F5C0076422A7036E0216813680E0603D5191DD7
:102F6C0011601E6804E04806F9D5191D1E88116011
:102F7C00594B227E039308276F2A1ED00A271CE088
:102F8C00231C78214533554D197011682368081D91
:102F9C00039510601E0601D50E6802E05806FBD59D
:102FAC000E88D90702D52022134323601027002E48
:102FBC0003D1226820239A432260231C002243332E
:102FCC001A7001E003930A276368A360002B03DBEC
:102FDC002568042295432560002E02D1049D002B08
:102FEC000ED0049D301C391CFFF764FC0398013D86
:102FFC00435C301C2B70391CFFF718FC061EF1D1FA
:10300C00082F09D12168C90706D5626823699A423D
:10301C0002DC013D30232B70049E731B23612AE0DC
:10302C00086813684969050604D5181D10601B68EB
:10303C00196005E04606F8D5181D10601B6819804C
:10304C0000232361049D16E01368191D11601D688F
:10305C00281CFFF74DFD63682061984200D923615D
:10306C002069606004E0251C42352B70012323612C
:10307C00049E00233370079E05980096211C09AA14
:10308C00069BFFF7A3FE013002D10120404221E054
:10309C002A1C059806992369079DA8470130F4D08E
:1030AC002668B60705D4099BE068984212DA181C0A
:1030BC0010E00025E0680999431A9D42F3DA221CBE
:1030CC000598069919320123079EB0470130DCD0D0
:1030DC000135EFE70BB0F0BD2F3400084034000889
:1030EC0030B5051C9BB0141E04DA8B230360012041
:1030FC0040421DE08222920068460091049100211A
:10310C0082818C4200D0611E0122524202910591B3
:10311C006946CA81281C1A1C1E9BFFF767FD421CBE
:10312C0001DA8B232B60002C02D0009900230B704A
:10313C001BB030BD73B5141C054A061C0D1C106861
:10314C00311C00932A1C231CFFF7CAFF76BDC04616
:10315C0080000020C9B28218904204D003788B42C0
:10316C0002D00130F8E70020704770B5814201D3DE
:10317C0000230CE08C18A042FAD28518131C013BDA
:10318C000BD351426618F65C6918CE54F7E793429C
:10319C0003D0CC5CC4540133F9E770BDF8B5061C00
:1031AC000C1C151C002904D1111CFFF7FBFB041C83
:1031BC0018E0002A03D1FFF7ADFB2C1C12E000F045
:1031CC0013F8A8420ED2301C291CFFF7EBFB071E8C
:1031DC0007D0211C2A1CFFF793FB301C211CFFF786
:1031EC0099FB3C1C201CF8BD04390B68181F002BE4
:1031FC0002DAC8581B18181F704700002E2E2F73A8
:10320C00797374656D2F7372632F73746D333266BB
:10321C00302D7374647065726970682F73746D33BC
:10322C0032663078785F6770696F2E63000000003B
:10323C002E2E2F73797374656D2F7372632F7374C5
:10324C006D333266302D7374647065726970682FDB
:10325C0073746D3332663078785F6D6973632E6387
:10326C00000000002E2E2F73797374656D2F73720E
:10327C00632F73746D333266302D737464706572A2
:10328C006970682F73746D3332663078785F72634F
:10329C00632E63002E2E2F73797374656D2F7372EA
:1032AC00632F73746D333266302D73746470657272
:1032BC006970682F73746D3332663078785F75730C
:1032CC006172742E6300000061626F727428292C85
:1032DC002065786974696E672E2E2E002C20667519
:1032EC006E6374696F6E3A20000000006173736541
:1032FC007274696F6E2022257322206661696C6579
:10330C00643A2066696C6520222573222C206C6936
:10331C006E65202564257325730A0000617373653F
:10332C0072745F706172616D2829206661696C65C9
:10333C00643A2066696C6520222573222C206C6906
:10334C006E652025640A00000A0000006D61696E3C
:10335C0028617267633D25642C20617267763D5B42
:10336C00000000002C200000222573220000000029
:10337C005D293B0A00000000261C0008FC1C00080C
:10338C00C4190008FC1C00080C190008FC1C0008DF
:10339C00FC1C000856180008FC1C0008FC1C00084B
:1033AC00FC1C0008FC1C0008FC1C0008FC1C000891
:1033BC00FC1C0008FC1C0008FC1C0008901B0008EE
:1033CC00881A00081C1D0008261D0008361D000860
:1033DC00461D0008581D0008761D0008801D0008B9
:1033EC006B6579002F25732F256400002F25730042
:1033FC002F726561647900002F72656E756D626560
:10340C00720000002F7265736574696E64657800D4
:10341C004300232D302B2000686C4C0065666745FB
:10342C004647003031323334353637383941424330
:10343C0044454600303132333435363738396162E1
:05344C006364656600E9
:103454007856341200000000010203040102030440
:10346400060708099000002000000000006CDC0240
:103474000000000000000000000000000000000048
:103484000000000000000000000000000000000038
:103494001C340008000000000000000000000000D0
:1034A4000000000000000000000000000000000018
:1034B4000000000000000000000000000000000008
:1034C40000000000000000000000000000000000F8
:0834D40020000020325476981C
:04000005080000C52A
:00000001FF
