:020000040800F2
:1000000000200020D5010008DD010008E101000802
:1000100000000000000000000000000000000000E0
:10002000000000000000000000000000E5010008E2
:100030000000000000000000E90100086D20000839
:10004000F1010008F1010008F1010008F1010008C8
:10005000F1010008F1010008F1010008F1010008B8
:10006000F1010008F1010008F1010008F1010008A8
:10007000F1010008F1010008F1010008F101000898
:10008000F1010008F101000800000000F101000882
:10009000F1010008F1010008F1010008F101000878
:1000A000F1010008F1010008F101000889240008AD
:1000B0008524000800000000F10100080000000095
:1000C0005FF808F130B583B0314B324A1360324AE1
:1000D0001360324B3249002201E01A6004338B4234
:1000E000FBD32C4B1B68002B03D12B4B1B68002B25
:1000F00000D0FEE7264B2B4A13602B4A13602B4B94
:100100002B4A2C4903E010681860043304328B42F8
:10011000F9D3244B1A68284B9A4204D1224B1A680F
:100120001B689A4200D0FEE700F008FE01A869466D
:1001300000F08AFD214B224DED1AAD10002404E0A1
:10014000A3001E4A9B5898470134A542F8DC1D4B7A
:100150001D4DED1AAD10002404E0A30019481B58F2
:1001600098470134A542F8DC0198009902F04EF856
:10017000051C164B164CE41AA41004E0013CA30025
:10018000124A9B589847002CF8DC281C00F02EFDE2
:10019000BABADECA8800002084100020880000203F
:1001A00088100020000000208400002000000020B3
:1001B000F83000088800002078563412F401000856
:1001C000F4010008F4010008F8010008F801000833
:1001D000FC01000808B5FFF775FFC046FEE7C04602
:1001E000FEE7C046FEE7C046FEE7C046FEE7C04663
:0401F000FEE7C04620
:0801F40039230008492300082B
:1001FC00F8B5051C0E1C9023DB05984212D03D4B24
:10020C0098420FD03C4B98420CD03C4B984209D0B2
:10021C003B4B984206D03B4B984203D03A48B42112
:10022C0000F014FD3368002B03D13748B52100F0E2
:10023C000DFD3379032B03D93348B62100F006FDAD
:10024C00F379022B03D93048B72100F0FFFC0024CE
:10025C0001274BE03B1CA34032681A409A4244D120
:10026C003379013B012B28D87379012B05D9032B4A
:10027C0003D02548C72100F0E9FCAA6863000321DC
:10028C0099408A43AA60AA68717999400B1C134360
:10029C00AB60B379012B03D91B48CE2100F0D6FCFF
:1002AC00AA8823041B0C391C99408A43AA80AA886B
:1002BC00B17999408BB21343AB8029686300032258
:1002CC00101C98408143296028683179994001437A
:1002DC002960E9682004C00B82409143E960EA6818
:1002EC00F17999400B1C1343EB6001340F2CB1D9FD
:1002FC00F8BDC0460004004800080048000C004847
:10030C000010004800140048CC2E000838B5041C1E
:10031C000D1C9023DB05984213D00E4B984210D045
:10032C000D4B98420DD00D4B98420AD00C4B984275
:10033C0007D00C4B984204D00B48C821490000F060
:10034C0085FC002D04D108489221FF3100F07EFC81
:10035C00A56138BD0004004800080048000C0048A6
:10036C000010004800140048CC2E000838B5041CBE
:10037C000D1C9023DB05984213D00E4B984210D0E5
:10038C000D4B98420DD00D4B98420AD00C4B984215
:10039C0007D00C4B984204D00B48A621FF3100F03B
:1003AC0055FC002D04D10848D321490000F04EFC27
:1003BC00258538BD0004004800080048000C0048A2
:1003CC000010004800140048CC2E000870B5041C26
:1003DC000D1C161C9023DB05984212D0174B98422B
:1003EC000FD0174B98420CD0164B984209D0164B95
:1003FC00984206D0154B984203D01548154900F089
:10040C0025FC0F2D03D91248134900F01FFC072EB1
:10041C0003D90F48114900F019FC07232B409B000E
:10042C009E40E908083189000A590F209840824300
:10043C000A510B591E430E5170BDC04600040048B2
:10044C0000080048000C0048001000480014004848
:10045C00CC2E00080D0200000E0200000F0200005E
:10046C0070B5041C8378012B03D91A48522100F073
:10047C00EDFB6378032B03D91648532100F0E6FB00
:10048C00A378002B1BD02578AA08134BC0329200FE
:10049C00D65803210D40E900FF20051C8D40AE43CA
:1004AC00351C6678B60130408840011C2943D15078
:1004BC0022781F210A4001219140196008E023781D
:1004CC001F21194001238B40191C8023024AD15053
:1004DC0070BDC046002F000800E100E070B5041CA0
:1004EC005E4B5B680C221340042B0CD002D8002B03
:1004FC0005D028E0082B0AD00C2B20D023E0584B39
:10050C000360002022E0564B036000201EE0534B9A
:10051C005D68AD025A682D0F0235C0235B021A428A
:10052C0002D15048684308E04C4BDB6A0F2119405C
:10053C0001314B4801F0FEFF6843206006E04A4B56
:10054C000360002002E0464B23600020434B5A68B6
:10055C001206120F454DA95CC9B22668321CCA405E
:10056C00111C62605A685205520FAA5CD2B2D1407B
:10057C000A1CA1601B6BD90502D43D4BE36008E05B
:10058C00364B5B68590402D45308E36001E09308CE
:10059C00E360324B1B6B590602D4364B236102E0ED
:1005AC0080231B0223612D4B1B6BD90602D42C4BD1
:1005BC00636100E06661294B1B6B990701D1A26155
:1005CC0019E0264B1B6B03210B40012B01D1A661BB
:1005DC0011E0224B1B6B03210B40022B03D1802318
:1005EC001B02A36107E01D4B1B6B03210B40032B6C
:1005FC0001D11B4BA361194B196BC0239B021942F0
:10060C0001D1E26120E0154B1B6BC02292021A4013
:10061C0080235B029A4201D1E66115E00F4B1B6B04
:10062C00C02292021A4080239B029A4203D180235B
:10063C001B02E36108E0094B1A6BC0239B021A40B2
:10064C009A4201D1064BE361044B1B6B1A0602D490
:10065C00054B236200E0206270BDC04600100240D2
:10066C0000127A0000093D00006CDC02040000203E
:10067C00809FD5001280000038B5041C0D1C0D4B5A
:10068C00184201D1002803D10B480C4900F0DEFAC6
:10069C00012D03D908480A4900F0D8FA002D04D0DE
:1006AC00084B5A6914435C6103E0064B5A69A24338
:1006BC005A6138BDAAFF81FE342F000836050000B0
:1006CC00370500000010024038B5041C0D1C0D4B02
:1006DC00184201D1002803D10B480C4900F0B6FA9E
:1006EC00012D03D908480A4900F0B0FA002D04D0B6
:1006FC00084B9A6914439C6103E0064B9A69A24328
:10070C009A6138BDFEA5B8FF342F00085A050000C9
:10071C005B05000000100240F0B5474680B48AB07B
:10072C00041C0D1C5C4B98420CD05C4B984209D0BD
:10073C005B4B984206D05B4B984203D05A48DC2165
:10074C0000F084FA2A68013A584B9A4203D9564869
:10075C00DD2100F07BFA6B68002B0AD0802252015D
:10076C00934206D0524A934203D04F48DE2100F008
:10077C006DFAAB68002B0BD080229201934207D00C
:10078C00C0229201934203D04748DF2100F05EFA69
:10079C00EB68002B0BD08022D200934207D0C022F2
:1007AC00D200934203D04048E02100F04FFA2B696D
:1007BC000C22191C914301D1002B03D13A48E121A1
:1007CC0000F044FA6B69002B0FD080225200934248
:1007DC000BD080229200934207D0C0229200934209
:1007EC0003D03148E22100F031FA2368012293430F
:1007FC00236062682F4B1340AA681343636022681E
:10080C002D4B1A406B68E9680B4329690B43134362
:10081C002360A268294B13406A691343A36001A8A3
:10082C00FFF75CFE1C4B9C4201D1079F05E01B4B64
:10083C009C4201D1089F00E0039F236819040CD54A
:10084C007F00B8462F684046391C01F073FE061C29
:10085C004046391C01F0B2FE0AE02A689046381C6A
:10086C00111C01F067FE061C381C414601F0A6FE67
:10087C002A685208002391425B41F6182368190438
:10088C0004D533075B0F0E4A16401E43B6B2A68141
:10089C000AB004BC9046F0BD003801400044004052
:1008AC0000480040004C0040642F00087F8D5B0026
:1008BC0000100010FFCFFFFFF3E9FFFFFFFCFFFF6D
:1008CC00F0FF000038B5041C0D1C124B98420DD0E3
:1008DC00114B98420AD0114B984207D0104B9842BA
:1008EC0004D01048C821490000F0B0F9012D04D9FA
:1008FC000C489221FF3100F0A9F9002D04D0226898
:10090C0001231343236003E02368012293432360F4
:10091C0038BDC0460038014000440040004800404B
:10092C00004C0040642F000838B5041C0D1C0D4B06
:10093C0098420CD00C4B984209D00C4B984206D0E4
:10094C000B4B984203D00B480B4900F07FF90B4B33
:10095C009D4203D907480A4900F078F9ED05ED0DE1
:10096C00258538BD00380140004400400048004057
:10097C00004C0040642F000895030000FF010000AC
:10098C009603000010B5041C094B98420CD0094B7F
:10099C00984209D0084B984206D0084B984203D095
:1009AC000748084900F052F9A08CC005C00D10BDD5
:1009BC00003801400044004000480040004C00401A
:1009CC00642F0008A603000070B5051C0C1C161C37
:1009DC002C4B98420CD02C4B984209D02B4B984264
:1009EC0006D02B4B984203D02A482B4900F02EF905
:1009FC0084235B009C4225D0284B9C4222D0284B60
:100A0C009C421FD0274B9C421CD0274B9C4219D098
:100A1C00264B9C4216D0264B9C4213D0C0239B00E5
:100A2C009C420FD0234B9C420CD0234B9C4209D0B0
:100A3C00224B9C4206D0224B9C4203D015482149A4
:100A4C0000F004F9012E03D912481F4900F0FEF8FA
:100A5C002B1CA2B2120AFF210C400121A1400C1C3C
:100A6C00022A01D12B1D03E0032A01D12B1C0833D0
:100A7C00002E03D01A6814431C6002E01A68A243CB
:100A8C001A6070BD0038014000440040004800402E
:100A9C00004C0040642F0008050700000701070008
:100AAC000601060005010500040104000602080009
:100ABC000A0309001A010B001B010C000E011100A6
:100ACC0016031400060700000707000038B5051CC4
:100ADC000C1C2F4B98420CD02E4B984209D02E4B0D
:100AEC00984206D02D4B984203D02D482D4900F04A
:100AFC00ADF884235B009C422AD02B4B9C4227D020
:100B0C002A4B9C4224D02A4B9C4221D0294B9C42FC
:100B1C001ED0294B9C421BD0284B9C4218D0284BF2
:100B2C009C4215D0274B9C4212D0274B9C420FD095
:100B3C00264B9C420CD0264B9C4209D0254B9C4208
:100B4C0006D0254B9C4203D01548244900F07EF872
:100B5C00A3B21B0AFF222240012191400A1C012B47
:100B6C0002D129680A4006E0022B02D169680A40CA
:100B7C0001E0A9680A40240C0123A3401C1CEB696A
:100B8C001C400020002A02D0201C441EA04138BD6D
:100B9C00003801400044004000480040004C004038
:100BAC00642F0008E6070000070107000601060095
:100BBC000501050004010400060208000A030900EF
:100BCC000003030000030200000301001A010B00E4
:100BDC001B010C000E01110016031400E7070000A6
:100BEC00FEE7C04608B5034800F054F80120FFF7B3
:100BFC00F7FFC046982F000808B50D4B1B68002B5B
:100C0C0002D10C4A0A4B1A60094B1B6803300322B1
:100C1C0090431818084A904206D901F0DBFC0C23CB
:100C2C0003600120404202E0014A1060181C08BD1C
:100C3C008C00002088100020001C00200123036081
:100C4C00014B0B607047C0461400002008B5031C14
:100C5C000A1C0348191C00F005F8FFF7C3FFC04637
:100C6C00EC2F00080FB400B583B004AB04CB019398
:100C7C000748802101F0E6FD011E03DD044800F069
:100C8C0053F8011C081C03B008BC04B01847C0463C
:100C9C009400002010B5041C01F08CFD011C201CDC
:100CAC0000F042F80248012100F03EF810BDC046A9
:100CBC0018300008F0B55F4656464D464446F0B431
:100CCC0085B0041C8A46435C0E1C002B1BD10425EA
:100CDC00281C211CABBE041C1DE0351E102D00D998
:100CEC005D46434604E022786946CA540133013418
:100CFC00AB42F8D36F464246FA544846391CABBE59
:100D0C00071C761B05E010239B4600218846042215
:100D1C009146002EE1D1504605B03CBC9046994618
:100D2C00A246AB46F0BDC04608B5FFF7C3FF08BDF1
:100D3C0008B500F05BF808BD82B000230193009366
:100D4C00274B1968802252020A431A60191C802210
:100D5C009202A020C0010B6813400093019B013349
:100D6C000193009B002B02D1019B8342F3D11C4BBE
:100D7C001B689A0302D50123009301E00023009322
:100D8C00009B012B2AD11122164B1A60144B5A6866
:100D9C005A605A685A605968134A0A405A6059682E
:100DAC00882252030A435A601968802252040A436B
:100DBC001A60191C802292040B681342FCD0084B59
:100DCC005A6803218A435A60596802220A435A60BE
:100DDC00191C0C224B681340082BFBD102B0704736
:100DEC000010024000200240FF7FC0FF08B5124BEC
:100DFC001968012211431960586810490140596063
:100E0C0018680F490140196018680E4901401960B3
:100E1C0058680D4901405960D96A0F208143D96245
:100E2C00186B0A4901401963596B914359630022AD
:100E3C009A60FFF781FF08BD001002400CB8FF0854
:100E4C00FFFFF6FEFFFFFBFFFFFFC0FFACFEFFFF47
:100E5C0070B5041C0E1C0023037073238360081CE4
:100E6C0001F0A8FC0130606001F0BAFB051E02D154
:100E7C000323237003E0311C01F094FC2561201C3A
:100E8C0070BDC04600230370692383600423436054
:100E9C000161704700230370662383600423436061
:100EAC000161704710B582B06B460091019200222F
:100EBC0002707422826008224260021C103212CB33
:100ECC0012C202B010BDC046002101700821416061
:100EDC0064218160026143617047C046F0B54F46A2
:100EEC004646C0B483B0071C894690460023037065
:100EFC0062238360101C04307860009201AD6C4654
:100F0C000334042304E023782B70331C0135013C9B
:100F1C005E1E002BF7DC019C009400280DDD01F017
:100F2C005FFB051E02D103233B7008E010C049464D
:100F3C00424601F069FB3D6101E000233B61381C36
:100F4C0003B00CBC90469946F0BDC04610B5041CCD
:100F5C004368002B0BDD8368732B03D1006901F010
:100F6C0049FB04E0622B02D1006901F043FB201C19
:100F7C0010BDC0460223037081600023436070479C
:100F8C0000238268692A00D10369181C7047C04687
:100F9C0070B5431C012282560126212A01D1831CE3
:100FAC00002670427041C0B214E001241C572D2C55
:100FBC000AD10C7852B265B2AA4203DC02229A56CC
:100FCC0095420DDD033305E052B200240C57A242CA
:100FDC0008D001331A785D2A05D0002AE5D102E049
:100FEC00301C00E0301C70BD70B50E1C013013E0DD
:100FFC00013400E0041C23787D2B05D0002B03D09A
:10100C002F2B01D02C2BF3D1251A311C2A1C01F0CB
:10101C00D8FB002809D0601C03787D2B07D0002B4F
:10102C0007D02F2BE6D1002004E0281C02E0002082
:10103C0000E0002070BDC04608B5031C02785D2A94
:10104C0012D050B25D2805DC01203F2A27D05B2A44
:10105C0005D01EE07B2A0FD07D2A12D019E0181C77
:10106C00FFF796FF1BE0013B00229A565B2AFAD150
:10107C00181CFFF78DFF12E0181CFFF7B5FF0EE0F0
:10108C00013B00229A567B2AFAD1181CFFF7ACFFC1
:10109C0005E050B20023CB56C01A4242504108BD65
:1010AC0070B5041C0D1C0B782F2B01D0002B0ED10E
:1010BC0023782F2B2ED00120002B2ED000202A2B72
:1010CC002BD160782F2827D04342584125E0067851
:1010DC002A2E0BD10130FFF7E3FF031C0120002B5C
:1010EC001BD1691C201CFFF7DBFF16E0FFF7A4FFE8
:1010FC00002812D05B2E03D07B2E06D100E00134E9
:10110C0023785D2B01D07D2BF9D1601C691CFFF776
:10111C00C7FF02E0012000E0012070BDF0B557468A
:10112C004E464546E0B480460F1C0B7800200A1C46
:10113C00002B01D178E0013213782F2B04D0002B37
:10114C00F9D14446002008E04446002005E05BB29B
:10115C002A3B59424B41C018013423782F2B01D024
:10116C00002BF4D1013C551E012815D002282BD0A0
:10117C0054E0201C291CFFF75FFF002854D05D2E83
:10118C0003D07D2E06D100E0013C23785B2B01D0EF
:10119C007B2BF9D1013C013D26782A2EE9D1012087
:1011AC0042E0201C291CFFF747FF00283CD05D2E95
:1011BC0003D07D2E06D100E0013C23785B2B01D0BF
:1011CC007B2BF9D1013C013D26782A2EE9D1013542
:1011DC00A946013CA2461DE0544601235B429944BA
:1011EC004E4612E0201C311CFFF726FF00280FD0C2
:1011FC005D2D03D07D2D06D100E0013C23785B2BC7
:10120C0001D07B2BF9D1013C013E25782A2DE9D167
:10121C00444508D0B945DFD8002005E04046391CCC
:10122C00FFF73EFF00E001201CBC90469946A24609
:10123C00F0BDC046F0B557464E464546E0B4804634
:10124C000F1C9246994601F0A3FA00280BD1404698
:10125C0001F0B0FA52461060381C01F0ABFA4B4664
:10126C001860032064E00023524613604A46136062
:10127C003D1C444645E02A2E14D1201C291CFFF7A6
:10128C004DFF002801D153E0013423782F2B03D0DC
:10129C00002BF9D100E001352B782F2B31D0002B0E
:1012AC00F9D12EE02A2B0ED100E0013426782F2E16
:1012BC0003D0002EF9D100E001352E782F2E20D04E
:1012CC00002EF9D11DE0201C291CFFF7B5FE0028CB
:1012DC002DD05B2E08D100E001340023E3565D2BAA
:1012EC00FAD1013401350CE07B2E08D100E0013439
:1012FC000023E3567D2BFAD101342D1801E0013483
:10130C0001352B78002B02D02678002EB3D1424623
:10131C00A31A52461360EF1B4B461F6028784342BA
:10132C0058412378002B03D10223184300E00020FE
:10133C001CBC90469946A246F0BDC04683688B42C1
:10134C0003DD43688900C85802E0042303730020BE
:10135C007047C04600B583B00068801801AA6B4680
:10136C00FFF768FF033843425841C0B203B000BDD9
:10137C0038B5041C151C1A1CFFF7ECFF00230028C1
:10138C0002D0201CA8470123181C38BD70B5051CC1
:10139C000E1C006801F02EF9301C01F00BFA013024
:1013AC0001F01EF9041E04D103232B7300232B60C0
:1013BC0003E0311C01F0F6F92C6070BD70B5051C12
:1013CC00067B731E9E41F6B2002408E0281C211CEB
:1013DC00FFF7B4FF03785A1E93411E430134AB68E8
:1013EC00A342F3DC301C70BD38B5041CFFF7A6FF1C
:1013FC00051C201CFFF7E2FF021C0020002A02D172
:10140C00281CFFF7BDFD38BD38B5041CFFF796FF4F
:10141C00051C201CFFF7D2FF0023002800D12B7ADB
:10142C0058B238BD70B5041C151CFFF787FF061C9D
:10143C00201CFFF7C3FF011C0020002904D1B36856
:10144C005B1B5D426B41D8B270BDC04608B56922CA
:10145C00FFF7E8FF08BDC046F0B54F464646C0B49E
:10146C0085B0061C0C1C081C00F03AFC301CFFF765
:10147C00A5FF002800D0B6E03768381C01F09AF9B7
:10148C00421C03258543201C391C00F03FFC04E062
:10149C00201C002100F032FC3D1C6F1E002DF7D1EA
:1014AC00201C2C2100F02AFC08E0301C291CFFF722
:1014BC00ABFFC1B2201C00F021FC0135B268AA427E
:1014CC00F3DC0323934306D1042304E0201C002106
:1014DC0000F014FC2B1C5D1E002BF7D100270322FF
:1014EC0091460423984678E0301C391CFFF726FF00
:1014FC00051C8368732B01D0622B12D1201C296927
:10150C006A6800F003FC6B685B424A46134004E0D7
:10151C00201C002100F0F2FB2B1C5D1E002BF7D1D0
:10152C005AE0642B11D1173002AA082304E0037887
:10153C0013700B1C01320138591E002BF7DC201CD8
:10154C0002A9082200F0E2FB46E0742B2ED1011C0C
:10155C00103102A8082201F057F801A96A460B3293
:10156C00434604E013780B70031C0131013A581EFA
:10157C00002BF7DC019B0093201C6946424600F0CF
:10158C00C5FB01A96A460F32434604E013780B7081
:10159C00031C0131013A581E002BF7DC019A009212
:1015AC00201C6946424600F0B1FB15E0542B13D0C9
:1015BC00462B11D0011C133102AA434604E00B78D0
:1015CC001370031C01320139581E002BF7DC6A68BA
:1015DC00201C02A900F09AFB0137B368BB4283DCE4
:1015EC00201C00F083FB05B00CBC90469946F0BD66
:1015FC0070B5041CCEB2182000F088FF051C71B227
:10160C00FFF7B8FC2B78032B01D1237311E0A168F1
:10161C0001318900606801F09DF8002802D1032394
:10162C00237306E06060A2689300C550A368013381
:10163C00A36070BD38B5041C0D1C8269002A08DD3E
:10164C0043695A1C42610269D1548369013B83612D
:10165C0010E041691131006901F07CF8206100282B
:10166C0006D063695A1C6261C5541023A36101E062
:10167C000323237338BDC04610B5041C0069102128
:10168C0001F068F82061002802D01023A36103E068
:10169C0003232373002323610023636110BDC04621
:1016AC0038B5041C0025056085600573456005612F
:1016BC0045618561FFF7E0FF657338BD10B5041C0B
:1016CC00FFF7EEFF02232373201C10BD70B5061C20
:1016DC000023037300240BE0301C211CFFF72EFEAB
:1016EC00051E04D0FFF732FC281C00F009FF013462
:1016FC00B368A342F0DC706800F07CFF00237360D9
:10170C00B3607373301CFFF7B7FF70BD10B5041CCA
:10171C002169FFF73BFE00232373201CFFF7ACFF6E
:10172C0010BDC046F0B5474680B48AB0071C0C1CEF
:10173C0000265FE2381C311CFFF700FE0378022BF9
:10174C0000D056E28368623B122B00D956E29B0014
:10175C00CB4AD3589F467A69042A00D04EE202A89D
:10176C00396900F051FF04A96A460B32042304E0E6
:10177C0013780B70031C0131013A581E002BF7DC57
:10178C00049DBB689E421ADA381C311CFFF7D6FD4B
:10179C00041E04D0FFF7DAFB201C00F0B1FE182069
:1017AC0000F0B4FE041C291CFFF76CFB2378032B00
:1017BC0001D13B7326E0B6007B689C5122E09E422F
:1017CC001ED1182000F0A2FE041C291CFFF75AFBA6
:1017DC002378032B01D13B7314E0B96801318900E4
:1017EC00786800F0B7FF002802D103233B7309E0AF
:1017FC007860BA689300C450BB680133BB6001E0E9
:10180C0004233B73381CFFF737FFF7E17B69042B8C
:10181C0000D0F3E102A83969042200F0F5FE04A916
:10182C006A460B32042304E013780B70031C01315D
:10183C00013A581E002BF7DC049DBB689E421ADA55
:10184C00381C311CFFF77AFD041E04D0FFF77EFB19
:10185C00201C00F055FE182000F058FE041C291C1A
:10186C00FFF718FB2378032B01D13B7326E0B6005E
:10187C007A68945122E09E421ED1182000F046FE58
:10188C00041C291CFFF706FB2378032B01D13B73A7
:10189C0014E0B96801318900786800F05BFF00281A
:1018AC0002D103233B7309E07860BA689300C450FB
:1018BC00BB680133BB6001E004233B73381CFFF7AA
:1018CC00DBFE9BE17B69082B00D097E102A839690C
:1018DC00082200F099FE04A96A460F32082304E09E
:1018EC0013780B70031C0131013A581E002BF7DCE6
:1018FC00049C059DBB689E421EDA381C311CFFF708
:10190C001DFD8046002804D0FFF720FB404600F068
:10191C00F7FD182000F0FAFD8046221C2B1CFFF767
:10192C00D3FA42461378032B01D13B7328E0B6005F
:10193C0042467B689A5123E09E421FD1182000F04A
:10194C00E5FD061C221C2B1CFFF7BEFA3378032B7B
:10195C0001D13B7314E0B96801318900786800F05B
:10196C00F9FE002802D103233B7309E07860BA68C2
:10197C009300C650BB680133BB6001E004233B738A
:10198C00381CFFF779FE39E17B69082B00D035E173
:10199C0068463969082200F037FE04A96A4603320A
:1019AC00042304E013780B70031C0131013A581E18
:1019BC00002BF7DC049A009204A96A460732042330
:1019CC0004E013780B70031C0131013A581E002BF4
:1019DC00F7DC049B019302A86946082200F014FE70
:1019EC00BB689E4220DA381C311CFFF7A7FC041E92
:1019FC0004D0FFF7ABFA201C00F082FD06A802A968
:101A0C00082200F001FE182000F080FD041C06994D
:101A1C00079AFFF747FA2378032B01D13B7333E086
:101A2C00B6007A6894512FE09E422BD104A802A9EB
:101A3C00082200F0E9FD08A804A9082200F0E4FD42
:101A4C00182000F063FD041C0899099AFFF72AFA84
:101A5C002378032B01D13B7316E0B968013189005F
:101A6C00786800F077FE002802D103233B730BE06B
:101A7C007860BA689300C450BB680133BB6003E064
:101A8C004830000804233B73381CFFF7F5FDB5E024
:101A9C00002C00D0B2E03D69BB689E421ADA381CBB
:101AAC00311CFFF74BFC041E04D0FFF74FFA201C2F
:101ABC0000F026FD182000F029FD041C291CFFF75E
:101ACC00C7F92378032B01D13B7326E0B6007B6862
:101ADC009C5122E09E421ED1182000F017FD041CE0
:101AEC00291CFFF7B5F92378032B01D13B7314E0C4
:101AFC00B96801318900786800F02CFE002802D109
:101B0C0003233B7309E07860BA689300C450BB6848
:101B1C000133BB6001E004233B73381CFFF7ACFDC1
:101B2C0006237B736AE07D69042D67DD3B6998466B
:101B3C0002A8191C042200F067FD04A86A460B32A7
:101B4C00042304E013780370231C0130013A5C1E5B
:101B5C00002BF7DC049C231D9D424FD104229044A2
:101B6C00BB689E421BDA381C311CFFF7E7FB051ED5
:101B7C0004D0FFF7EBF9281C00F0C2FC182000F091
:101B8C00C5FC051C4146221CFFF7A8F92B78032B3A
:101B9C0001D13B7327E0B6007B689D5123E09E4248
:101BAC001FD1182000F0B2FC051C4146221CFFF787
:101BBC0095F92B78032B01D13B7314E0B9680131F3
:101BCC008900786800F0C6FD002802D103233B731E
:101BDC0009E07860BA689300C550BB680133BB60FC
:101BEC0001E004233B73381CFFF746FD06237B738F
:101BFC0004E00136BB68B34200DD9BE50AB004BCCF
:101C0C009046F0BD38B5041C0D1CFFF713FD637B2B
:101C1C00062B53D89B002A4AD3589F462F2D4DD1C3
:101C2C00012363734AE0002D48D1201CFFF76EFDA1
:101C3C000223637342E02C2D40D103236373201CD9
:101C4C00FFF71AFD3AE0002D04D0201C291CFFF7E9
:101C5C00CFFC01E004236373A2680323934300D1F8
:101C6C0004239B186169994228D1201CFFF704FDBD
:101C7C000523637322E0201C291CFFF753FD1DE094
:101C8C00A568013D18E0201C291CFFF757FB0378C1
:101C9C00002B10D143685B420322134002D1052371
:101CAC0063730BE062699A4208D1201CFFF7E4FCD5
:101CBC000523637302E0013D002DE4DA38BDC04614
:101CCC009430000870B5061C06E04D1C0978301CD9
:101CDC00FFF798FF221C291C541E002AF5D170BD59
:101CEC00002280235B00C2547047C04680235B00F7
:101CFC00C25C0223FF33C2547047C04680235B0092
:101D0C00C25C81540132C2547047C04670B5061C87
:101D1C0006E04D1C0978301CFFF7F0FF221C291C33
:101D2C00541E002AF5D170BDF0B583B0802080021E
:101D3C000121FEF7A1FC8020C0020121FEF79CFCD2
:101D4C000326009601276B461F7100249C715E715F
:101D5C00DC71104D281C6946FEF74AFA802300936B
:101D6C006B461F719C715E71DC719024E405201C24
:101D7C006946FEF73DFA281C0121FEF7C7FA281C1C
:101D8C000221FEF7C3FA201C8021FEF7BFFA03B034
:101D9C00F0BDC04600040048012303710023A322B8
:101DAC00D2008350822292008350C422920083502E
:101DBC000160704710B5C0290CD1822189004358AD
:101DCC005A1CC318DB245C71531C43508018DC2351
:101DDC00437115E0DB290CD18221890043585A1C30
:101DEC00C318DB245C71531C43508018DD234371F2
:101DFC0006E08222920083585C1C8450C01841710A
:101E0C0010BDC046F0B5474680B40024C4239B00E7
:101E1C00C4500023C426B600DB24A446C025A84623
:101E2C0029E0CC182578DB2D1BD15C1C0C192578EE
:101E3C00DC2D08D185596F1C875145198427BF00AB
:101E4C00ED1947462F702478DD2C08D18459651C78
:101E5C00855104198425AD00641967462770023337
:101E6C0009E085596F1C8751247845198427BF00D8
:101E7C00ED192C7001339342D3DBC4239B00C25861
:101E8C00C5239B00C25004BC9046F0BDF8B5041CA1
:101E9C0081256D0080267600FF273CE0511C5953AC
:101EAC00995C23685A5B3A405A532379012B0DD124
:101EBC00C02901D123712EE00122A323DB00E250C3
:101ECC00C6239B00E1540223237124E0022B22D170
:101EDC00A323DB00E258FF2A06D901232371114802
:101EEC000221FEF743FA16E0C02909D10123237120
:101EFC00C6239B00E118201CFFF784FF012010E093
:101F0C00501CA323DB00E050A218C6239B00D21860
:101F1C0011700223237123685A5B995B8A42BDD1ED
:101F2C000020F8BD00040048012282239B00C2500F
:101F3C00C02343717047C046822189004258531C0C
:101F4C0043508218C02151718322920083507047F4
:101F5C00F0B5474680B480460D1C141CFFF7E4FF17
:101F6C0006E06F1C29784046FFF724FF341C3D1C0B
:101F7C00661E002CF5D14046FFF7DEFF04BC9046F0
:101F8C00F0BDC046F0B5474680B4041CFFF7E0FF37
:101F9C0000258327BF008126B600FF21884614E068
:101FAC0023689A5B511C9953611949799B18013329
:101FBC00FF33197123689A5B41460A409A53822376
:101FCC009B002268D35898470135E059A842E7D8BE
:101FDC0004BC9046F0BDC0467047C0467047C04632
:101FEC0008B50C4B18680C4900F0A4FA01380B4BDF
:101FFC0098420DD80A4B58600A4A106A0002000A2F
:10200C00C02109060143116200229A6007221A605E
:10201C0008BDC0461C00002010270000FFFFFF0079
:10202C0010E000E000ED00E0034B18601A1C136890
:10203C00002BFCD17047C046640C0020064B1B687B
:10204C00002B03D0044B1A68013A1A60034B1A6830
:10205C0001321A607047C046640C0020680C0020E6
:10206C0008B5FFF7EBFF08BD70B5051C0021FFF7A5
:10207C00EDF9002800D188E0281C0021FFF7B4F905
:10208C00C3175B0FC01807240440E41A0DD1454E4A
:10209C00301C0221FEF73AF99020C0058021FEF792
:1020AC0035F9301C0121FEF731F9012C0DD13D4ED3
:1020BC00301C0221FEF72AF99020C0058021FEF782
:1020CC0025F9301C0121FEF751F9022C0DD1354EAA
:1020DC00301C0221FEF71AF99020C0058021FEF772
:1020EC0045F9301C0121FEF711F9032C0DD12D4EB1
:1020FC00301C0221FEF70AF99020C0058021FEF762
:10210C0035F9301C0121FEF731F9042C0DD1254E87
:10211C00301C0221FEF72AF99020C0058021FEF721
:10212C00F5F8301C0121FEF7F1F8052C0DD11D4EF0
:10213C00301C0221FEF71AF99020C0058021FEF711
:10214C00E5F8301C0121FEF711F9062C0DD1154EC6
:10215C00301C0221FEF70AF99020C0058021FEF701
:10216C0005F9301C0121FEF7D1F8072C0DD10D4CCF
:10217C00201C0221FEF7FAF89020C0058021FEF702
:10218C00F5F8201C0121FEF7F1F8074C281C211C46
:10219C00FFF762F90223FF33E25C0448211CFFF7CE
:1021AC00F1FE70BD0004004814010020180200204C
:1021BC0038B5041C0D1C01280DD10B4B99420AD1CA
:1021CC000A480B49FFF7E8FD0A480B49FFF7E4FD05
:1021DC000A48FFF701FF002C05D1034B9D4202D1A9
:1021EC000648FFF7FBFE38BDFFFF00001802002079
:1021FC006C0C002038070020780E002034070020DB
:10220C0070B588B001A8FFF759FA00F0B7F8FFF7DE
:10221C008BFDFFF7E5FE404C201C0221FEF776F803
:10222C009026F605301C8021FEF770F8201C012149
:10223C00FEF76CF8FA25AD00281CFFF7F5FE201C04
:10224C000221FEF793F8281CFFF7EEFE301C8021CC
:10225C00FEF78CF8281CFFF7E7FE201C0121FEF787
:10226C0085F82E4E341C84239B00F518301CFFF788
:10227C000DFE0028FAD0C5239B00E25801A8291CAA
:10228C00FFF720FD01A8FFF799F8002821D101A83C
:10229C0023490022FFF75EF8002816D001A8FFF7AB
:1022AC0015FA1D4C201C0221FEF730F89020C005B9
:1022BC008021FEF72BF8201C0121FEF727F8174C84
:1022CC00251C84239B00E61807E001A8FFF7FEF904
:1022DC00CCE701A8FFF7FAF9C8E7201CFFF7D6FDF9
:1022EC000028FAD0C5239B00EA5801A8311CFFF73F
:1022FC00E9FC01A8FFF762F8002809D101A80949F7
:10230C00094A0023FFF734F801A8FFF7DFF9E4E7E7
:10231C0001A8FFF7DBF9E0E70004004818020020F1
:10232C00B0300008B83000087520000808B501204E
:10233C000149FFF73DFF08BDFFFF000008B5002075
:10234C000149FFF735FF08BDFFFF000008B5034842
:10235C0003490122FEF738FB08BDC0460038014096
:10236C000701070008B5034803490122FEF72CFBBF
:10237C0008BDC0460044004007010700F0B54F46B9
:10238C004646C0B48BB0344B80277F000024002617
:10239C00DC5381256D005C53812080001C522F4939
:1023AC0089465C528222920090462D4999502D4BC1
:1023BC00DC535C531C524A469C522B494246995062
:1023CC00802080020121FEF757F98020C0010121F5
:1023DC00FEF77AF99025ED05281C09210122FDF75D
:1023EC00F5FF281C0A210122FDF7F0FF02A9C023EA
:1023FC00DB00029303234B7102230B718E710127B7
:10240C00CF71281CFDF7F4FEE1235B0204930594C5
:10241C000694079409940C230893144C201C04A9CB
:10242C00FEF77AF9201C12490122FEF7CDFA201C86
:10243C0010490122FEF7C8FA01A81B23037046704D
:10244C008770FEF70DF8201C0121FEF73BFA0BB04C
:10245C000CBC90469946F0BD6C0C002006020000A6
:10246C0059230008780E0020712300080038014021
:10247C0005010500070107007047C04670B51B48F1
:10248C001B49FEF723FB00280CD01A4C80256D004D
:10249C00665B1648FEF776FAA055635B0133FF22A4
:1024AC001340635311481449FEF710FB00281CD04D
:1024BC00104B812292009A5A10495B5A9A420FD0C3
:1024CC005C1CA4B20B4A081C5452D3180133FF33C2
:1024DC001979FF231C4014520448FEF725FA04E036
:1024EC00024805490022FEF76FFA70BD0038014022
:1024FC00050105006C0C0020070107000602000016
:10250C0008B5002801D000F075F808BD10B5041E00
:10251C0002D1012400E09847201C00F061F800284B
:10252C0005D1034B1B68002BF5D1FEF75BFB10BDEF
:10253C00540C0020002934D00123002210B488420E
:10254C002CD301242407A14204D2814202D20901D6
:10255C001B01F8E7E400A14204D2814202D24900F7
:10256C005B00F8E7884201D3401A1A434C08A0429A
:10257C0002D3001B5C0822438C08A04202D3001B30
:10258C009C082243CC08A04202D3001BDC08224347
:10259C00002803D01B0901D00909E3E7101C10BC6B
:1025AC007047002801D00020C04307B4024802A1A4
:1025BC004018029003BDC046190000000029F0D05D
:1025CC0003B5FFF7B9FF0EBC4243891A1847C04642
:1025DC007047C046014B18687047C0468000002009
:1025EC0008B5034B011C186800F060F808BDC04624
:1025FC008000002008B5034B011C186800F00EF891
:10260C0008BDC0468000002010B50023934203D0C3
:10261C00CC5CC4540133F9E710BD000030B500297F
:10262C0040D004390B68002B00DAC9181E4A136815
:10263C00141C002B02D14B60116033E099420FD275
:10264C0008680A189A4205D113685268C0180860C5
:10265C004A6000E04B60216024E08A4203D8131CDE
:10266C005A68002AF9D11D685C198C420BD1096893
:10267C00691858181960904214D1146852680919D5
:10268C0019605A600EE08C4202D90C23036009E0F9
:10269C0008680C18944203D1146852680019086039
:1026AC004A60596030BDC0465C0C002070B50323F5
:1026BC00CD1C9D430835061C0C2D01D20C2501E0C8
:1026CC00002D3FDB8D423DD3204B1C681A1C211C76
:1026DC00002913D00868431B0DD40B2B02D90B60B7
:1026EC00CC181EE08C4202D1636813601AE0486873
:1026FC0060600C1C16E00C1C4968E9E7144C20685F
:10270C00002803D1301C00F031F82060301C291C4B
:10271C0000F02CF8431C15D0C41C03239C438442AA
:10272C000AD12560201C0B300722231D9043C31AAD
:10273C000BD05A42E25008E0211A301C00F016F877
:10274C000130EED10C233360002070BD5C0C0020F6
:10275C00580C002008B50A1C0349031C0868191CF6
:10276C0000F080F808BDC0468000002038B5074C4A
:10277C000023051C081C2360FEF73EFA431C03D102
:10278C002368002B00D02B6038BDC046600C0020A5
:10279C0002780B7801300131002A01D09A42F7D02F
:1027AC00D01A7047031C0A7801311A700133002AC1
:1027BC00F9D170470023C25C0133002AFBD1581EAB
:1027CC007047031C002010B582420FD01C7808788B
:1027DC00A04201D1012A03D118780B78C01A05E068
:1027EC00013A0028F8D001330131EFE710BD30B5C4
:1027FC00051C9BB0141E04DA8B230360012040429D
:10280C001DE0822292006846009104910021828191
:10281C008C4200D0611E0122524202910591694600
:10282C00CA81281C1A1C1E9B00F0A2F8421C01DA5B
:10283C008B232B60002C02D0009900230B701BB053
:10284C0030BD000073B5141C054A061C0D1C106825
:10285C00311C00932A1C231CFFF7C9FF76BDC04610
:10286C0080000020F8B5061C0C1C151C002904D196
:10287C00111CFFF71BFF041C18E0002A03D1FFF703
:10288C00CDFE2C1C12E000F011FBA8420ED2301C25
:10289C00291CFFF70BFF071E07D0211C2A1CFFF772
:1028AC00B3FE301C211CFFF7B9FE3C1C201CF8BDEC
:1028BC00F0B58D6885B0071C0C1C03920193AB42DC
:1028CC0045D390228B89D20013423DD062690326F6
:1028DC00564309692068F20F401A96190290021C9F
:1028EC000198013212187610964200D2161C381C30
:1028FC005A050FD5311CFFF7D9FE051E13D0029ACD
:10290C002169FFF781FEA289184B134080221343E3
:10291C00A38111E0321CFFF7A5FF051E0CD1381C5A
:10292C002169FFF77BFE0C233B60A38940221343F4
:10293C000120A381404217E0029B2561ED18256020
:10294C006661019DF61AA6600198A84200D2019D0D
:10295C002A1C2068039900F090FAA2680020531BEF
:10296C00A36023685D19256005B0F0BD7FFBFFFFF8
:10297C00F0B59FB0039005938B890E1C171C19069C
:10298C000FD53269002A0CD14021FFF78FFE306041
:10299C003061002803D103990C230B60C9E040235C
:1029AC00736106AD00236B6120236B763023AB760D
:1029BC003C1C2378002B03D1E21B029211D003E0C4
:1029CC00252BF9D00134F4E70398311C3A1C029BF7
:1029DC00FFF76EFF013000D1A6E06969029A8B18EF
:1029EC006B612378002B00D19EE0012252426A6079
:1029FC006A4600235B3201342B60EB60AB601370D2
:102A0C00AB654E4F2178381C052200F02BFA0028BC
:102A1C0007D0C71B2B680120B8401843286001342D
:102A2C00EFE72B68D90603D56A4620215B3211707B
:102A3C001A0703D56A462B215B32117022782A2A99
:102A4C0001D0099B0EE0059A111D12680591002A10
:102A5C0001DB099204E05242EA60022213432B602C
:102A6C00013409E02278303A092A04D80A214B4370
:102A7C0001349B18F6E7099323782E2B18D1637831
:102A8C002A2B09D1059B02341A1D1B680592002BB9
:102A9C000DDA01235B420AE0013400232278303A3C
:102AAC00092A04D80A214B4301349B18F6E70793F3
:102ABC00234F2178381C032200F0D4F9002806D0CB
:102ACC00C71B2B684020B84018432860013421787C
:102ADC001C480622671C297600F0C4F9002812D085
:102AEC00194B002B06D1059B072207339343083360
:102AFC00059314E005AB00930398291C321C134B6F
:102B0C0000E000BF07E005AB00930398291C321CC2
:102B1C000E4B00F091F804900499013104D06A69CD
:102B2C00049953186B6143E7B3895A0601D40B9887
:102B3C0001E0012040421FB0F0BDC046C230000889
:102B4C00C8300008CC30000800000000BD28000888
:102B5C00F7B5151C01930A698B68061C0C1C934273
:102B6C0000DA131C221C2B6043321278002A01D08D
:102B7C0001332B602068800602D52B6802332B6052
:102B8C00216806270F401FD0231C43331B785A1E85
:102B9C009341226892061FD5E11840313020C8704D
:102BAC00211C5A1C45310978A21840320233D170CD
:102BBC0012E0221C301C019919320123089FB847DE
:102BCC00013011D0009F01370097E0682968009F01
:102BDC00431A9F42EDDBD7E7221C301C019943328C
:102BEC00089FB847013002D10120404223E0206801
:102BFC0006212B68E26801400025042903D1D51A6F
:102C0C00EB43DB171D40A26823699A4201DDD31AFE
:102C1C00ED1800270097009FAF420BDA221C301CE6
:102C2C0001991A320123089FB8470130DCD0009F6C
:102C3C000137EFE70020FEBDF0B50D1C8BB043351E
:102C4C0006920590079304950B7E0C1C109A6E2B24
:102C5C0000D1A7E011D8632B22D009D8002B00D1CA
:102C6C00B0E0582B00D0C0E045310B707B4D4EE0EE
:102C7C00642B1CD0692B1AD0B7E0732B00D1A5E0C4
:102C8C0009D86F2B29D0702B00D0AEE00E68202312
:102C9C0033430B6036E0752B1FD0782B32D0A4E079
:102CAC0013680D1C191D423511601B689FE02168CB
:102CBC0013680E0603D5191D11601E6805E0480641
:102CCC00F9D5191D116000215E5E644B002E3BDAB4
:102CDC00049D2D2276422A7036E0216813680E0678
:102CEC0003D5191D11601E6804E04806F9D5191D9D
:102CFC001E881160594B227E039308276F2A1ED021
:102D0C000A271CE0231C78214533554D1970116896
:102D1C002368081D039510601E0601D50E6802E09D
:102D2C005806FBD50E88D90702D520221343236001
:102D3C001027002E03D1226820239A432260231CE3
:102D4C00002243331A7001E003930A276368A360DF
:102D5C00002B03DB2568042295432560002E02D14D
:102D6C00049D002B0ED0049D301C391CFFF726FC53
:102D7C000398013D435C301C2B70391CFFF7DAFBC8
:102D8C00061EF1D1082F09D12168C90706D5626842
:102D9C0023699A4202DC013D30232B70049E731B85
:102DAC0023612AE0086813684969050604D5181DD3
:102DBC0010601B68196005E04606F8D5181D1060F8
:102DCC001B68198000232361049D16E01368191DEC
:102DDC0011601D68281CFFF7EDFC636820619842A8
:102DEC0000D923612069606004E0251C42352B70FA
:102DFC0001232361049E00233370079E05980096DF
:102E0C00211C09AA069BFFF7A3FE013002D1012069
:102E1C00404221E02A1C059806992369079DA84782
:102E2C000130F4D02668B60705D4099BE0689842B7
:102E3C0012DA181C10E00025E0680999431A9D422B
:102E4C00F3DA221C0598069919320123079EB04724
:102E5C000130DCD00135EFE70BB0F0BDD33000080A
:102E6C00E4300008C9B28218904204D003788B4237
:102E7C0002D00130F8E70020704770B5814201D3D1
:102E8C0000230CE08C18A042FAD28518131C013BCD
:102E9C000BD351426618F65C6918CE54F7E793428F
:102EAC0003D0CC5CC4540133F9E770BD04390B6812
:102EBC00181F002B02DAC8581B18181F7047000087
:102ECC002E2E2F73797374656D2F7372632F737439
:102EDC006D333266302D7374647065726970682F4F
:102EEC0073746D3332663078785F6770696F2E63F8
:102EFC00000000002E2E2F73797374656D2F737282
:102F0C00632F73746D333266302D73746470657215
:102F1C006970682F73746D3332663078785F6D69C1
:102F2C0073632E63000000002E2E2F73797374656B
:102F3C006D2F7372632F73746D333266302D73740F
:102F4C00647065726970682F73746D333266307893
:102F5C00785F7263632E63002E2E2F737973746502
:102F6C006D2F7372632F73746D333266302D7374DF
:102F7C00647065726970682F73746D333266307863
:102F8C00785F75736172742E6300000061626F72FA
:102F9C007428292C2065786974696E672E2E2E0092
:102FAC002C2066756E6374696F6E3A200000000009
:102FBC00617373657274696F6E20222573222066AB
:102FCC0061696C65643A2066696C65202225732200
:102FDC002C206C696E65202564257325730A00000E
:102FEC006173736572745F706172616D28292066FC
:102FFC0061696C65643A2066696C652022257322D0
:10300C002C206C696E652025640A00000A00000003
:10301C006D61696E28617267633D25642C20617255
:10302C0067763D5B000000002C20000022257322F7
:10303C00000000005D293B0A00000000321B000864
:10304C00081C0008D0180008081C000818180008F4
:10305C00081C0008081C000862170008081C00085F
:10306C00081C0008081C0008081C0008081C0008A4
:10307C00081C0008081C0008081C0008081C000894
:10308C009C1A000894190008281C0008321C00081F
:10309C00421C0008521C0008641C0008821C00081A
:1030AC008C1C00082F726561647900002F6C6564BC
:1030BC00000000004300232D302B2000686C4C00D6
:1030CC00656667454647003031323334353637381C
:1030DC00394142434445460030313233343536377A
:0930EC0038396162636465660015
:1030F80078563412000000000102030401020304A0
:10310800060708099000002000000000006CDC029F
:1031180000000000000000000000000000000000A7
:103128000000000000000000000000000000000097
:10313800C03000080000000000000000000000008F
:103148000000000000000000000000000000000077
:103158000000000000000000000000000000000067
:103168000000000000000000000000000000000057
:0831780020000020325476987B
:04000005080000C52A
:00000001FF
