:020000040800F2
:1000000000200020D5010008DD010008E101000802
:1000100000000000000000000000000000000000E0
:10002000000000000000000000000000E5010008E2
:100030000000000000000000E9010008BD140008F5
:10004000F1010008F1010008F1010008F1010008C8
:10005000F1010008F1010008F1010008F1010008B8
:10006000F1010008F1010008F1010008F1010008A8
:10007000F1010008F1010008F1010008F101000898
:10008000F1010008F101000800000000F101000882
:10009000F1010008F1010008F1010008F101000878
:1000A000F1010008F1010008F10100086D180008D5
:1000B0003518000800000000F101000800000000F1
:1000C0005FF808F130B583B0314B324A1360324AE1
:1000D0001360324B3249002201E01A6004338B4234
:1000E000FBD32C4B1B68002B03D12B4B1B68002B25
:1000F00000D0FEE7264B2B4A13602B4A13602B4B94
:100100002B4A2C4903E010681860043304328B42F8
:10011000F9D3244B1A68284B9A4204D1224B1A680F
:100120001B689A4200D0FEE700F0A6FE01A86946CF
:1001300000F028FE214B224DED1AAD10002404E002
:10014000A3001E4A9B5898470134A542F8DC1D4B7A
:100150001D4DED1AAD10002404E0A30019481B58F2
:1001600098470134A542F8DC0198009901F0F4F9B0
:10017000051C164B164CE41AA41004E0013CA30025
:10018000124A9B589847002CF8DC281C00F0CCFD44
:10019000BABADECA88000020A8100020880000201B
:1001A000AC1000200000002084000020000000208F
:1001B000EC2300088800002078563412F40100086F
:1001C000F4010008F4010008F8010008F801000833
:1001D000FC01000808B5FFF775FFC046FEE7C04602
:1001E000FEE7C046FEE7C046FEE7C046FEE7C04663
:0401F000FEE7C04620
:0801F400F115000801160008D6
:1001FC00F8B5051C0E1C9023DB05984212D03D4B24
:10020C0098420FD03C4B98420CD03C4B984209D0B2
:10021C003B4B984206D03B4B984203D03A48B42112
:10022C0000F0B2FD3368002B03D13748B52100F044
:10023C00ABFD3379032B03D93348B62100F0A4FD71
:10024C00F379022B03D93048B72100F09DFD00242F
:10025C0001274BE03B1CA34032681A409A4244D120
:10026C003379013B012B28D87379012B05D9032B4A
:10027C0003D02548C72100F087FDAA68630003213D
:10028C0099408A43AA60AA68717999400B1C134360
:10029C00AB60B379012B03D91B48CE2100F074FD60
:1002AC00AA8823041B0C391C99408A43AA80AA886B
:1002BC00B17999408BB21343AB8029686300032258
:1002CC00101C98408143296028683179994001437A
:1002DC002960E9682004C00B82409143E960EA6818
:1002EC00F17999400B1C1343EB6001340F2CB1D9FD
:1002FC00F8BDC0460004004800080048000C004847
:10030C0000100048001400481822000838B5041CDE
:10031C000D1C9023DB05984213D00E4B984210D045
:10032C000D4B98420DD00D4B98420AD00C4B984275
:10033C0007D00C4B984204D00B48C821490000F060
:10034C0023FD002D04D108489221FF3100F01CFD43
:10035C00A56138BD0004004800080048000C0048A6
:10036C0000100048001400481822000838B5041C7E
:10037C000D1C9023DB05984213D00E4B984210D0E5
:10038C000D4B98420DD00D4B98420AD00C4B984215
:10039C0007D00C4B984204D00B48A621FF3100F03B
:1003AC00F3FC002D04D10848D321490000F0ECFCEB
:1003BC00258538BD0004004800080048000C0048A2
:1003CC0000100048001400481822000870B5041CE6
:1003DC000D1C161C9023DB05984212D0174B98422B
:1003EC000FD0174B98420CD0164B984209D0164B95
:1003FC00984206D0154B984203D01548154900F089
:10040C00C3FC0F2D03D91248134900F0BDFC072E75
:10041C0003D90F48114900F0B7FC07232B409B0070
:10042C009E40E908083189000A590F209840824300
:10043C000A510B591E430E5170BDC04600040048B2
:10044C0000080048000C0048001000480014004848
:10045C00182200080D0200000E0200000F0200001E
:10046C0070B5041C8378012B03D91A48522100F073
:10047C008BFC6378032B03D91648532100F084FCC2
:10048C00A378002B1BD02578AA08134BC0329200FE
:10049C00D65803210D40E900FF20051C8D40AE43CA
:1004AC00351C6678B60130408840011C2943D15078
:1004BC0022781F210A4001219140196008E023781D
:1004CC001F21194001238B40191C8023024AD15053
:1004DC0070BDC0464C22000800E100E070B5041C61
:1004EC005E4B5B680C221340042B0CD002D8002B03
:1004FC0005D028E0082B0AD00C2B20D023E0584B39
:10050C000360002022E0574B036000201EE0534B99
:10051C005D68AD025A682D0F0235C0235B021A428A
:10052C0002D15148684308E04C4BDB6A0F2119405B
:10053C0001314C4801F0C4F96843206006E04B4B94
:10054C000360002002E0464B23600020434B5A68B6
:10055C001206120F464DA95CC9B22668321CCA405D
:10056C00111C62605A685205520FAA5CD2B2D1407B
:10057C000A1CA1601B6BD90502D43E4BE36008E05A
:10058C00364B5B68590402D45308E36001E09308CE
:10059C00E360324B1B6B590602D4374B236102E0EC
:1005AC0080231B0223612D4B1B6BD90602D42C4BD1
:1005BC00636100E06661294B1B6B990701D1A26155
:1005CC0019E0264B1B6B03210B40012B01D1A661BB
:1005DC0011E0224B1B6B03210B40022B03D1802318
:1005EC001B02A36107E01D4B1B6B03210B40032B6C
:1005FC0001D11B4BA361194B196BC0239B021942F0
:10060C0001D1E26120E0154B1B6BC02292021A4013
:10061C0080235B029A4201D1E66115E00F4B1B6B04
:10062C00C02292021A4080239B029A4203D180235B
:10063C001B02E36108E0094B1A6BC0239B021A40B2
:10064C009A4201D1064BE361044B1B6B1A0602D490
:10065C00064B236200E0206270BDC04600100240D1
:10066C0000127A000024F40000093D00006CDC024A
:10067C0004000020809FD5001280000038B5041CB7
:10068C000D1C0D4B184201D1002803D10B480C490D
:10069C0000F07AFB012D03D908480A4900F074FBDD
:1006AC00002D04D0084B5A6914435C6103E0064BDF
:1006BC005A69A2435A6138BDAAFF81FE8022000804
:1006CC0036050000370500000010024038B5041C48
:1006DC000D1C0D4B184201D1002803D10B480C49BD
:1006EC0000F052FB012D03D908480A4900F04CFBDD
:1006FC00002D04D0084B9A6914439C6103E0064B0F
:10070C009A69A2439A6138BDFEA5B8FF8022000801
:10071C005A0500005B0500000010024038B5041CAF
:10072C000D1C0E4B184201D1002803D10C480D4969
:10073C0000F02AFB012D04D90948B121C90000F0B1
:10074C0023FB002D04D0084BDA691443DC6103E071
:10075C00054BDA69A243DA6138BDC046CCB61185C7
:10076C00802200088705000000100240F0B54746C3
:10077C0080B48AB0041C0D1C5C4B98420CD05C4BB2
:10078C00984209D05B4B984206D05B4B984203D001
:10079C005A48DC2100F0F8FA2A68013A584B9A4280
:1007AC0003D95648DD2100F0EFFA6B68002B0AD014
:1007BC0080225201934206D0524A934203D04F48B2
:1007CC00DE2100F0E1FAAB68002B0BD08022920105
:1007DC00934207D0C0229201934203D04748DF21B5
:1007EC0000F0D2FAEB68002B0BD08022D20093429F
:1007FC0007D0C022D200934203D04048E02100F041
:10080C00C3FA2B690C22191C914301D1002B03D183
:10081C003A48E12100F0B8FA6B69002B0FD0802226
:10082C00520093420BD080229200934207D0C022F8
:10083C009200934203D03148E22100F0A5FA2368DC
:10084C0001229343236062682F4B1340AA68134321
:10085C00636022682D4B1A406B68E9680B43296969
:10086C000B4313432360A268294B13406A6913435B
:10087C00A36001A8FFF732FE1C4B9C4201D1079FDD
:10088C0005E01B4B9C4201D1089F00E0039F2368AD
:10089C0019040CD57F00B8462F684046391C01F06E
:1008AC000FF8061C4046391C01F04EF80AE02A6885
:1008BC009046381C111C01F003F8061C381C4146EC
:1008CC0001F042F82A685208002391425B41F61865
:1008DC002368190404D533075B0F0E4A16401E43D8
:1008EC00B6B2A6810AB004BC9046F0BD00380140F7
:1008FC000044004000480040004C0040B02200087A
:10090C007F8D5B0000100010FFCFFFFFF3E9FFFFAE
:10091C00FFFCFFFFF0FF000038B5041C0D1C124B50
:10092C0098420DD0114B98420AD0114B984207D0E7
:10093C00104B984204D01048C821490000F024FA0A
:10094C00012D04D90C489221FF3100F01DFA002D25
:10095C0004D0226801231343236003E0236801229F
:10096C009343236038BDC04600380140004400402A
:10097C0000480040004C0040B022000838B5041C70
:10098C000D1C0D4B98420CD00C4B984209D00C4BC3
:10099C00984206D00B4B984203D00B480B4900F001
:1009AC00F3F90B4B9D4203D907480A4900F0ECF9C7
:1009BC00ED05ED0D258538BD0038014000440040A3
:1009CC0000480040004C0040B02200089503000095
:1009DC00FF0100009603000010B5041C094B98425F
:1009EC000CD0094B984209D0084B984206D0084BC2
:1009FC00984203D00748084900F0C6F9A08CC005FE
:100A0C00C00D10BD003801400044004000480040BB
:100A1C00004C0040B0220008A603000070B5051C75
:100A2C000C1C161C2C4B98420CD02C4B984209D009
:100A3C002B4B984206D02B4B984203D02A482B497B
:100A4C0000F0A2F984235B009C4225D0284B9C42E9
:100A5C0022D0284B9C421FD0274B9C421CD0274BAA
:100A6C009C4219D0264B9C4216D0264B9C4213D04C
:100A7C00C0239B009C420FD0234B9C420CD0234B99
:100A8C009C4209D0224B9C4206D0224B9C4203D064
:100A9C001548214900F078F9012E03D912481F4955
:100AAC0000F072F92B1CA2B2120AFF210C4001219A
:100ABC00A1400C1C022A01D12B1D03E0032A01D1F9
:100ACC002B1C0833002E03D01A6814431C6002E060
:100ADC001A68A2431A6070BD0038014000440040FF
:100AEC0000480040004C0040B02200080507000000
:100AFC0007010700060106000501050004010400BA
:100B0C00060208000A0309001A010B001B010C0065
:100B1C000E01110016031400060700000707000061
:100B2C0038B5051C0C1C314B98420CD0304B9842FC
:100B3C0009D0304B984206D02F4B984203D02F4807
:100B4C002F4900F021F9012C49D0802C47D0402CA2
:100B5C0045D0202C43D0102C41D080235B009C42EC
:100B6C003DD080239B009C4239D0082C37D0042CDC
:100B7C0035D0022C33D08023DB009C422FD0802335
:100B8C001B019C422BD080235B019C4227D08023ED
:100B9C00DB019C4223D080231B029C421FD080236C
:100BAC005B029C421BD080239B029C4217D080236B
:100BBC00DB029C4213D080231B039C420FD080236A
:100BCC005B039C420BD080239B039C4207D0802369
:100BDC00DB039C4203D009480A4900F0D5F8E869C8
:100BEC000440201C441EA04138BDC04600380140C2
:100BFC000044004000480040004C0040B022000877
:100C0C00930700009407000038B5051C0C1C2F4BF3
:100C1C0098420CD02E4B984209D02E4B984206D0BD
:100C2C002D4B984203D02D482D4900F0ADF884236C
:100C3C005B009C422AD02B4B9C4227D02A4B9C42D7
:100C4C0024D02A4B9C4221D0294B9C421ED0294BAC
:100C5C009C421BD0284B9C4218D0284B9C4215D050
:100C6C00274B9C4212D0274B9C420FD0264B9C42C8
:100C7C000CD0264B9C4209D0254B9C4206D0254BD0
:100C8C009C4203D01548244900F07EF8A3B21B0AFD
:100C9C00FF222240012191400A1C012B02D129681C
:100CAC000A4006E0022B02D169680A4001E0A968FB
:100CBC000A40240C0123A3401C1CEB691C4000209F
:100CCC00002A02D0201C441EA04138BD003801402F
:100CDC000044004000480040004C0040B022000896
:100CEC00E6070000070107000601060005010500E4
:100CFC0004010400060208000A03090000030300B3
:100D0C0000030200000301001A010B001B010C0080
:100D1C000E01110016031400E7070000FEE7C046A1
:100D2C0008B5034800F054F80120FFF7F7FFC04660
:100D3C00E422000808B50D4B1B68002B02D10C4AAD
:100D4C000A4B1A60094B1B68033003229043181896
:100D5C00084A904206D900F003FE0C2303600120E0
:100D6C00404202E0014A1060181C08BD8C000020B3
:100D7C00AC100020001C002001230360014B0B6011
:100D8C007047C0461400002008B5031C0A1C034819
:100D9C00191C00F005F8FFF7C3FFC0463823000804
:100DAC000FB400B583B004AB04CB0193074880218A
:100DBC0001F0C8F9011E03DD044800F053F8011CD2
:100DCC00081C03B008BC04B01847C04694000020AF
:100DDC0010B5041C00F0AAFE011C201C00F042F807
:100DEC000248012100F03EF810BDC0466423000803
:100DFC00F0B55F4656464D464446F0B485B0041CEB
:100E0C008A46435C0E1C002B1BD10425281C211C7C
:100E1C00ABBE041C1DE0351E102D00D95D464346AB
:100E2C0004E022786946CA5401330134AB42F8D34A
:100E3C006F464246FA544846391CABBE071C761B1B
:100E4C0005E010239B460021884604229146002E83
:100E5C00E1D1504605B03CBC90469946A246AB4603
:100E6C00F0BDC04608B5FFF7C3FF08BD08B500F0DC
:100E7C005BF808BD82B0002301930093274B1968DF
:100E8C00802252020A431A60191C80229202A0206E
:100E9C00C0010B6813400093019B01330193009B2D
:100EAC00002B02D1019B8342F3D11C4B1B689A038C
:100EBC0002D50123009301E000230093009B012B3A
:100ECC002AD11122164B1A60144B5A685A605A6870
:100EDC005A605968134A0A405A605968882252036A
:100EEC000A435A601968802252040A431A60191C7A
:100EFC00802292040B681342FCD0084B5A680321E1
:100F0C008A435A60596802220A435A60191C0C22FF
:100F1C004B681340082BFBD102B070470010024005
:100F2C0000200240FF7FC0FF08B5124B1968012258
:100F3C0011431960586810490140596018680F49ED
:100F4C000140196018680E490140196058680D4934
:100F5C0001405960D96A0F208143D962186B0A4944
:100F6C0001401963596B9143596300229A60FFF752
:100F7C0081FF08BD001002400CB8FF08FFFFF6FE11
:100F8C00FFFFFBFFFFFFC0FFACFEFFFF0023037062
:100F9C0069238360042343600161704783688B423B
:100FAC0003DD43688900C85802E004230373002062
:100FBC007047C04670B5051C0E1C006800F0E0FCC4
:100FCC00301C00F0B3FD013000F0D0FC041E04D145
:100FDC0003232B7300232B6003E0311C00F09EFDD8
:100FEC002C6070BD70B5051C067B731E9E41F6B25D
:100FFC00002408E0281C211CFFF7D0FF03785A1EA0
:10100C0093411E430134AB68A342F3DC301C70BD2A
:10101C0038B5041CFFF7C2FF051C201CFFF7E2FFCC
:10102C000023002800D12B7A58B238BDF0B54F46BA
:10103C004646C0B485B0061C0C1C081C00F0F8F821
:10104C00301CFFF7CFFF002800D0B6E03768381C03
:10105C0000F06CFD421C03258543201C391C00F05C
:10106C00FDF804E0201C002100F0F0F83D1C6F1E80
:10107C00002DF7D1201C2C2100F0E8F808E0301CE2
:10108C00291CFFF7C5FFC1B2201C00F0DFF80135A9
:10109C00B268AA42F3DC0323934306D1042304E091
:1010AC00201C002100F0D2F82B1C5D1E002BF7D168
:1010BC000027032291460423984678E0301C391C03
:1010CC00FFF76CFF051C8368732B01D0622B12D1C8
:1010DC00201C29696A6800F0C1F86B685B424A46BB
:1010EC00134004E0201C002100F0B0F82B1C5D1E06
:1010FC00002BF7D15AE0642B11D1173002AA082328
:10110C0004E0037813700B1C01320138591E002BBC
:10111C00F7DC201C02A9082200F0A0F846E0742B92
:10112C002ED1011C103102A8082200F033FC01A9B9
:10113C006A460B32434604E013780B70031C0131F2
:10114C00013A581E002BF7DC019B0093201C6946CA
:10115C00424600F083F801A96A460F32434604E088
:10116C0013780B70031C0131013A581E002BF7DC6D
:10117C00019A0092201C6946424600F06FF815E077
:10118C00542B13D0462B11D0011C133102AA434609
:10119C0004E00B781370031C01320139581E002B2C
:1011AC00F7DC6A68201C02A900F058F80137B36814
:1011BC00BB4283DC201C00F041F805B00CBC90460F
:1011CC009946F0BD10B5041C0069102100F088FC94
:1011DC002061002802D01023A36103E003232373B2
:1011EC00002323610023636110BDC04638B5041C85
:1011FC000025056085600573456005614561856165
:10120C00FFF7E0FF657338BD38B5041C0D1CFFF704
:10121C00EDFF201C291CFFF7CDFE201C38BDC0465D
:10122C0010B5041CFFF7E2FF02232373201C10BD32
:10123C00002280235B00C2547047C04680235B00B1
:10124C00C25C0223FF33C2547047C04680235B004C
:10125C00C25C81540132C2547047C04670B5061C42
:10126C0006E04D1C0978301CFFF7F0FF221C291CEE
:10127C00541E002AF5D170BD10B582B080208002BA
:10128C000121FFF7FBF98020C0020121FFF7F6F9DD
:10129C0008230093012369460B7100238B710322F1
:1012AC004A71CB71044C201CFEF7A2FF201C0821B4
:1012BC00FFF72CF802B010BD00040048016042603A
:1012CC008360044BC36000230361242283542522D2
:1012DC00835470479423000800B583B080208002AB
:1012EC000121FFF7CBF90223009300236A46137107
:1012FC000123D3719020C0056946FEF779FF03B036
:10130C0000BDC046012303710023A322D2008350E9
:10131C00822292008350C422920083500160704755
:10132C0010B5C0290CD18221890043585A1CC3180E
:10133C00DB245C71531C43508018DC23437115E093
:10134C00DB290CD18221890043585A1CC318DB2499
:10135C005C71531C43508018DD23437106E08222DC
:10136C00920083585C1C8450C018417110BDC0465B
:10137C00012282239B00C250C02343717047C04698
:10138C00822189004258531C43508218C02151714C
:10139C008322920083507047F0B5474680B4804654
:1013AC000D1C141CFFF7E4FF06E06F1C2978404667
:1013BC00FFF7B6FF341C3D1C661E002CF5D14046D1
:1013CC00FFF7DEFF04BC9046F0BDC046F8B5041C28
:1013DC00FFF7E2FF00238326B60081218900002756
:1013EC000FE02268505A451C5552E5186D791218B9
:1013FC000132FF3215712268505AFF2800D957521A
:10140C000133A2599A42ECD882239B002268D3580C
:10141C000020984783239B00E058F8BD08B50C4B7F
:10142C001868FA21890000F04BFA0138094B9842F0
:10143C000DD8094B5860094A106A0002000AC021F5
:10144C0009060143116200229A6007221A6008BD46
:10145C001C000020FFFFFF0010E000E000ED00E0AA
:10146C000022014B1A6070478C0C0020014B18684D
:10147C007047C0468C0C0020034B18601A1C136874
:10148C00002BFCD17047C046880C0020064B1B6813
:10149C00002B03D0044B1A68013A1A60034B1A68EC
:1014AC0001321A607047C046880C00208C0C00205A
:1014BC0008B5FFF7EBFF08BD38B5012812D10A4B70
:1014CC0099420FD1094D281C0949FFF71BFF094C04
:1014DC00201C0949FFF716FF084809492A1C231C40
:1014EC00FFF7ECFE38BDC046FFFF000018020020DD
:1014FC00900C00205C0700209C0E0020340700207C
:10150C001401002070B5041C0E1C182000F0C4F946
:10151C00051C311CFFF73AFD2B78032B01D12373EB
:10152C0011E0A16801318900606800F0D9FA002847
:10153C0002D10323237306E06060A2689300C550B8
:10154C00A3680133A360201C70BDC046F0B58FB0FA
:10155C0000F0A6F8FFF790FEFFF760FF1B48FFF7BF
:10156C00BBFE6846FFF75CFE07A81949FFF74CFE67
:10157C0007A81849FFF7C6FF07A81749FFF756FD3C
:10158C00FFF76EFF154E144D154F301C0821FEF75A
:10159C00EDFE6420FFF770FF301C0821FEF7B6FE4D
:1015AC006420FFF769FF0223FF33EA5C381C291C17
:1015BC00FFF70CFFF424FF3401E000F027F8FFF7ED
:1015CC0055FFA042F9D9FFF74BFFDEE734070020A7
:1015DC00AC2300082E160000140100200004004863
:1015EC005C07002008B501200149FFF765FF08BD25
:1015FC00FFFF000008B500200149FFF75DFF08BDA3
:10160C00FFFF00007047C0467047C04610B51F482A
:10161C008021FFF785FA002816D01D4B81229200FD
:10162C009A5A1C495B5A9A420ED05C1CA4B2184AB6
:10163C00081C5452D3180133FF331979FF231C4073
:10164C0014521248FFF79AF913488021FFF768FAF1
:10165C00002819D0114B812292009A5A0D495B5ADD
:10166C009A4211D05A1C92B20C490A480A52CB1811
:10167C000133FF331979FF2A03D90020054B074AA0
:10168C00D0520548FFF77AF910BDC046004400401F
:10169C009C0E00200602000000380140900C002037
:1016AC00F0B55F4656464D464446F0B48BB0564BAB
:1016BC00802676000024002291469C5381256D00E3
:1016CC005C53812080001C5250495C528222920053
:1016DC004F4F9F504F4B9C535C531C525C524E4986
:1016EC00995080239B029A46181C0121FEF7C6FFD5
:1016FC0050460121FFF712F89027FF05381C0221F4
:10170C000122FEF763FE381C03210122FEF75EFE68
:10171C0002AD0C23029303226A7102232B714A46F9
:10172C00AA7101239846EB71381C291CFEF760FD49
:10173C00E1235B02049305940694079409940C220C
:10174C000892364B9B46181C04A9FFF70FF8584615
:10175C0033490122FFF762F901AE1C2333704A466C
:10176C0072704346B370301CFEF77AFE5846012166
:10177C00FFF7D2F850460121FEF780FF8020C00110
:10178C000121FEF7A3FF381C09210122FEF71EFEE2
:10179C00381C0A210122FEF719FEC023DB0002933C
:1017AC0003226A7102232B714A46AA714346EB71DC
:1017BC00381C291CFEF71CFDE122520204920594F0
:1017CC000694079409940C230893164C201C04A926
:1017DC00FEF7CCFF201C12490122FFF71FF91B2337
:1017EC0033704A4672704346B370301CFEF738FEB5
:1017FC00201C0121FFF790F80BB03CBC9046994699
:10180C00A246AB46F0BDC046900C0020060200007C
:10181C00111600089C0E002015160008004400400C
:10182C00050105000038014070B50A480A49FFF768
:10183C00EBF900280CD0094C80256D00665B05483F
:10184C00FFF7CAF8A055635B0133FF2213406353C3
:10185C0070BDC04600440040050105009C0E0020F0
:10186C0070B50A480A49FFF7CFF900280CD0094C8B
:10187C0080256D00665B0548FFF7AEF8A055635BED
:10188C000133FF221340635370BDC0460038014042
:10189C0005010500900C002010B5041E02D1012496
:1018AC0000E09847201C00F061F8002805D1034B9C
:1018BC001B68002BF5D1FFF733FA10BD780C002014
:1018CC00002934D00123002210B488422CD30124E7
:1018DC002407A14204D2814202D209011B01F8E77C
:1018EC00E400A14204D2814202D249005B00F8E735
:1018FC00884201D3401A1A434C08A04202D3001B61
:10190C005C0822438C08A04202D3001B9C08224393
:10191C00CC08A04202D3001BDC082243002803D0D1
:10192C001B0901D00909E3E7101C10BC7047002803
:10193C0001D00020C04307B4024802A14018029015
:10194C0003BDC046190000000029F0D003B5FFF715
:10195C00B9FF0EBC4243891A1847C0467047C046AF
:10196C00014B18687047C0468000002008B5034B37
:10197C00011C186800F060F808BDC046800000200B
:10198C0008B5034B011C186800F00EF808BDC046E2
:10199C008000002010B50023934203D0CC5CC454CB
:1019AC000133F9E710BD000030B5002940D00439EF
:1019BC000B68002B00DAC9181E4A1368141C002B84
:1019CC0002D14B60116033E099420FD208680A18BB
:1019DC009A4205D113685268C01808604A6000E04A
:1019EC004B60216024E08A4203D8131C5A68002AF9
:1019FC00F9D11D685C198C420BD10968691858180B
:101A0C001960904214D114685268091919605A600F
:101A1C000EE08C4202D90C23036009E008680C1814
:101A2C00944203D114685268001908604A605960E6
:101A3C0030BDC046800C002070B50323CD1C9D43E7
:101A4C000835061C0C2D01D20C2501E0002D3FDBC6
:101A5C008D423DD3204B1C681A1C211C002913D02D
:101A6C000868431B0DD40B2B02D90B60CC181EE05D
:101A7C008C4202D1636813601AE0486860600C1CE9
:101A8C0016E00C1C4968E9E7144C2068002803D1C7
:101A9C00301C00F031F82060301C291C00F02CF8B0
:101AAC00431C15D0C41C03239C4384420AD12560DB
:101ABC00201C0B300722231D9043C31A0BD05A4213
:101ACC00E25008E0211A301C00F016F80130EED17B
:101ADC000C233360002070BD800C00207C0C002097
:101AEC0008B50A1C0349031C0868191C00F05EFBAE
:101AFC0008BDC0468000002038B5074C0023051CEB
:101B0C00081C2360FFF716F9431C03D12368002B34
:101B1C0000D02B6038BDC046840C0020031C0A7812
:101B2C0001311A700133002AF9D170470023C25CCD
:101B3C000133002AFBD1581E70470000F0B58D68A8
:101B4C0085B0071C0C1C03920193AB4245D3902229
:101B5C008B89D20013423DD0626903265643096932
:101B6C002068F20F401A96190290021C019801325B
:101B7C0012187610964200D2161C381C5A050FD536
:101B8C00311CFFF759FF051E13D0029A2169FFF78C
:101B9C0001FFA289184B134080221343A38111E04B
:101BAC00321C00F003FB051E0CD1381C2169FFF719
:101BBC00FBFE0C233B60A389402213430120A3812D
:101BCC00404217E0029B2561ED1825606661019D7E
:101BDC00F61AA6600198A84200D2019D2A1C206822
:101BEC00039900F0CAFAA2680020531BA360236873
:101BFC005D19256005B0F0BD7FFBFFFFF0B59FB010
:101C0C00039005938B890E1C171C19060FD532698E
:101C1C00002A0CD14021FFF70FFF30603061002803
:101C2C0003D103990C230B60C9E04023736106AD0B
:101C3C0000236B6120236B763023AB763C1C23781E
:101C4C00002B03D1E21B029211D003E0252BF9D01B
:101C5C000134F4E70398311C3A1C029BFFF76EFF2A
:101C6C00013000D1A6E06969029A8B186B61237868
:101C7C00002B00D19EE0012252426A606A4600238A
:101C8C005B3201342B60EB60AB601370AB654E4F75
:101C9C002178381C052200F065FA002807D0C71BF4
:101CAC002B680120B840184328600134EFE72B68FB
:101CBC00D90603D56A4620215B3211701A0703D569
:101CCC006A462B215B32117022782A2A01D0099B9B
:101CDC000EE0059A111D12680591002A01DB09928C
:101CEC0004E05242EA60022213432B60013409E003
:101CFC002278303A092A04D80A214B4301349B1824
:101D0C00F6E7099323782E2B18D163782A2B09D167
:101D1C00059B02341A1D1B680592002B0DDA01235A
:101D2C005B420AE0013400232278303A092A04D8B5
:101D3C000A214B4301349B18F6E70793234F217874
:101D4C00381C032200F00EFA002806D0C71B2B68A3
:101D5C004020B84018432860013421781C480622E2
:101D6C00671C297600F0FEF9002812D0194B002BC5
:101D7C0006D1059B0722073393430833059314E0E0
:101D8C0005AB00930398291C321C134B00E000BFD9
:101D9C0007E005AB00930398291C321C0E4B00F096
:101DAC0091F804900499013104D06A69049953188C
:101DBC006B6143E7B3895A0601D40B9801E001200B
:101DCC0040421FB0F0BDC046B6230008BC2300083B
:101DDC00C023000800000000491B0008F7B5151CC3
:101DEC0001930A698B68061C0C1C934200DA131CC5
:101DFC00221C2B6043321278002A01D001332B6055
:101E0C002068800602D52B6802332B6021680627D8
:101E1C000F401FD0231C43331B785A1E934122685A
:101E2C0092061FD5E11840313020C870211C5A1C75
:101E3C0045310978A21840320233D17012E0221CCD
:101E4C00301C019919320123089FB847013011D079
:101E5C00009F01370097E0682968009F431A9F4252
:101E6C00EDDBD7E7221C301C01994332089FB847A1
:101E7C00013002D10120404223E0206806212B686A
:101E8C00E26801400025042903D1D51AEB43DB1786
:101E9C001D40A26823699A4201DDD31AED18002770
:101EAC000097009FAF420BDA221C301C01991A32AA
:101EBC000123089FB8470130DCD0009F0137EFE7C2
:101ECC000020FEBDF0B50D1C8BB04335069205907D
:101EDC00079304950B7E0C1C109A6E2B00D1A7E077
:101EEC0011D8632B22D009D8002B00D1B0E0582B8D
:101EFC0000D0C0E045310B707B4D4EE0642B1CD004
:101F0C00692B1AD0B7E0732B00D1A5E009D86F2B41
:101F1C0029D0702B00D0AEE00E68202333430B6029
:101F2C0036E0752B1FD0782B32D0A4E013680D1C33
:101F3C00191D423511601B689FE0216813680E065D
:101F4C0003D5191D11601E6805E04806F9D5191D49
:101F5C00116000215E5E644B002E3BDA049D2D2245
:101F6C0076422A7036E0216813680E0603D5191DD7
:101F7C0011601E6804E04806F9D5191D1E88116011
:101F8C00594B227E039308276F2A1ED00A271CE088
:101F9C00231C78214533554D197011682368081D91
:101FAC00039510601E0601D50E6802E05806FBD59D
:101FBC000E88D90702D52022134323601027002E48
:101FCC0003D1226820239A432260231C002243332E
:101FDC001A7001E003930A276368A360002B03DBEC
:101FEC002568042295432560002E02D1049D002B08
:101FFC000ED0049D301C391CFFF7A6FC0398013D44
:10200C00435C301C2B70391CFFF75AFC061EF1D1B7
:10201C00082F09D12168C90706D5626823699A423D
:10202C0002DC013D30232B70049E731B23612AE0DC
:10203C00086813684969050604D5181D10601B68EB
:10204C00196005E04606F8D5181D10601B6819804C
:10205C0000232361049D16E01368191D11601D688F
:10206C00281CFFF763FD63682061984200D9236147
:10207C002069606004E0251C42352B70012323612C
:10208C00049E00233370079E05980096211C09AA14
:10209C00069BFFF7A3FE013002D10120404221E054
:1020AC002A1C059806992369079DA8470130F4D08E
:1020BC002668B60705D4099BE068984212DA181C0A
:1020CC0010E00025E0680999431A9D42F3DA221CBE
:1020DC000598069919320123079EB0470130DCD0D0
:1020EC000135EFE70BB0F0BDC7230008D82300087B
:1020FC0030B5051C9BB0141E04DA8B230360012041
:10210C0040421DE082229200684600910491002119
:10211C0082818C4200D0611E0122524202910591B3
:10212C006946CA81281C1A1C1E9BFFF767FD421CBE
:10213C0001DA8B232B60002C02D0009900230B704A
:10214C001BB030BD73B5141C054A061C0D1C106861
:10215C00311C00932A1C231CFFF7CAFF76BDC04616
:10216C0080000020C9B28218904204D003788B42C0
:10217C0002D00130F8E70020704770B5814201D3DE
:10218C0000230CE08C18A042FAD28518131C013BDA
:10219C000BD351426618F65C6918CE54F7E793429C
:1021AC0003D0CC5CC4540133F9E770BDF8B5061C00
:1021BC000C1C151C002904D1111CFFF73DFC041C40
:1021CC0018E0002A03D1FFF7EFFB2C1C12E000F003
:1021DC0013F8A8420ED2301C291CFFF72DFC071E49
:1021EC0007D0211C2A1CFFF7D5FB301C211CFFF744
:1021FC00DBFB3C1C201CF8BD04390B68181F002BA2
:10220C0002DAC8581B18181F704700002E2E2F73A7
:10221C00797374656D2F7372632F73746D333266BB
:10222C00302D7374647065726970682F73746D33BC
:10223C0032663078785F6770696F2E63000000003B
:10224C002E2E2F73797374656D2F7372632F7374C5
:10225C006D333266302D7374647065726970682FDB
:10226C0073746D3332663078785F6D6973632E6387
:10227C00000000002E2E2F73797374656D2F73720E
:10228C00632F73746D333266302D737464706572A2
:10229C006970682F73746D3332663078785F72634F
:1022AC00632E63002E2E2F73797374656D2F7372EA
:1022BC00632F73746D333266302D73746470657272
:1022CC006970682F73746D3332663078785F75730C
:1022DC006172742E6300000061626F727428292C85
:1022EC002065786974696E672E2E2E002C20667519
:1022FC006E6374696F6E3A20000000006173736541
:10230C007274696F6E2022257322206661696C6578
:10231C00643A2066696C6520222573222C206C6936
:10232C006E65202564257325730A0000617373653F
:10233C0072745F706172616D2829206661696C65C9
:10234C00643A2066696C6520222573222C206C6906
:10235C006E652025640A00000A0000006D61696E3C
:10236C0028617267633D25642C20617267763D5B42
:10237C00000000002C200000222573220000000029
:10238C005D293B0A000000006B6579002F25732F37
:10239C00256400002F2573002F73746174000000F6
:1023AC002F636F6F6C0000004300232D302B200037
:1023BC00686C4C00656667454647003031323334F3
:1023CC003536373839414243444546003031323393
:0D23DC003435363738396162636465660058
:1023EC0078563412000000000102030401020304B9
:1023FC00060708099000002000000000006CDC02B9
:10240C0000000000000000000000000000000000C0
:10241C0000000000000000000000000000000000B0
:10242C00B4230008000000000000000000000000C1
:10243C000000000000000000000000000000000090
:10244C000000000000000000000000000000000080
:10245C000000000000000000000000000000000070
:08246C00200000203254769894
:04000005080000C52A
:00000001FF
