:020000040800F2
:1000000000200020D5010008DD010008E101000802
:1000100000000000000000000000000000000000E0
:10002000000000000000000000000000E5010008E2
:100030000000000000000000E9010008C90F0008EE
:10004000F1010008F1010008F1010008F1010008C8
:10005000F1010008F1010008F1010008F1010008B8
:10006000F1010008F1010008F1010008F1010008A8
:10007000F1010008F1010008F1010008F101000898
:10008000F1010008F101000800000000F101000882
:10009000F1010008F1010008F1010008F101000878
:1000A000F1010008F1010008F101000861120008E7
:1000B0002912000800000000F10100080000000003
:1000C0005FF808F130B583B0314B324A1360324AE1
:1000D0001360324B3249002201E01A6004338B4234
:1000E000FBD32C4B1B68002B03D12B4B1B68002B25
:1000F00000D0FEE7264B2B4A13602B4A13602B4B94
:100100002B4A2C4903E010681860043304328B42F8
:10011000F9D3244B1A68284B9A4204D1224B1A680F
:100120001B689A4200D0FEE700F002FE01A8694673
:1001300000F084FD214B224DED1AAD10002404E0A7
:10014000A3001E4A9B5898470134A542F8DC1D4B7A
:100150001D4DED1AAD10002404E0A30019481B58F2
:1001600098470134A542F8DC0198009900F056FF49
:10017000051C164B164CE41AA41004E0013CA30025
:10018000124A9B589847002CF8DC281C00F028FDE8
:10019000BABADECA88000020A4100020880000201F
:1001A000A810002000000020840000200000002093
:1001B0006C1D00088800002078563412F4010008F5
:1001C000F4010008F4010008F8010008F801000833
:1001D000FC01000808B5FFF775FFC046FEE7C04602
:1001E000FEE7C046FEE7C046FEE7C046FEE7C04663
:0401F000FEE7C04620
:0801F4007910000889100008D1
:1001FC00F8B5051C0E1C9023DB05984212D03D4B24
:10020C0098420FD03C4B98420CD03C4B984209D0B2
:10021C003B4B984206D03B4B984203D03A48B42112
:10022C0000F00EFD3368002B03D13748B52100F0E8
:10023C0007FD3379032B03D93348B62100F000FDB9
:10024C00F379022B03D93048B72100F0F9FC0024D4
:10025C0001274BE03B1CA34032681A409A4244D120
:10026C003379013B012B28D87379012B05D9032B4A
:10027C0003D02548C72100F0E3FCAA6863000321E2
:10028C0099408A43AA60AA68717999400B1C134360
:10029C00AB60B379012B03D91B48CE2100F0D0FC05
:1002AC00AA8823041B0C391C99408A43AA80AA886B
:1002BC00B17999408BB21343AB8029686300032258
:1002CC00101C98408143296028683179994001437A
:1002DC002960E9682004C00B82409143E960EA6818
:1002EC00F17999400B1C1343EB6001340F2CB1D9FD
:1002FC00F8BDC0460004004800080048000C004847
:10030C000010004800140048AC1B000838B5041C51
:10031C000D1C9023DB05984213D00E4B984210D045
:10032C000D4B98420DD00D4B98420AD00C4B984275
:10033C0007D00C4B984204D00B48C821490000F060
:10034C007FFC002D04D108489221FF3100F078FC8D
:10035C00A56138BD0004004800080048000C0048A6
:10036C000010004800140048AC1B000838B5041CF1
:10037C000D1C9023DB05984213D00E4B984210D0E5
:10038C000D4B98420DD00D4B98420AD00C4B984215
:10039C0007D00C4B984204D00B48A621FF3100F03B
:1003AC004FFC002D04D10848D321490000F048FC33
:1003BC00258538BD0004004800080048000C0048A2
:1003CC000010004800140048AC1B000870B5041C59
:1003DC000D1C161C9023DB05984212D0174B98422B
:1003EC000FD0174B98420CD0164B984209D0164B95
:1003FC00984206D0154B984203D01548154900F089
:10040C001FFC0F2D03D91248134900F019FC072EBD
:10041C0003D90F48114900F013FC07232B409B0014
:10042C009E40E908083189000A590F209840824300
:10043C000A510B591E430E5170BDC04600040048B2
:10044C0000080048000C0048001000480014004848
:10045C00AC1B00080D0200000E0200000F02000091
:10046C0070B5041C8378012B03D91A48522100F073
:10047C00E7FB6378032B03D91648532100F0E0FB0C
:10048C00A378002B1BD02578AA08134BC0329200FE
:10049C00D65803210D40E900FF20051C8D40AE43CA
:1004AC00351C6678B60130408840011C2943D15078
:1004BC0022781F210A4001219140196008E023781D
:1004CC001F21194001238B40191C8023024AD15053
:1004DC0070BDC046E01B000800E100E070B5041CD4
:1004EC005E4B5B680C221340042B0CD002D8002B03
:1004FC0005D028E0082B0AD00C2B20D023E0584B39
:10050C000360002022E0564B036000201EE0534B9A
:10051C005D68AD025A682D0F0235C0235B021A428A
:10052C0002D15048684308E04C4BDB6A0F2119405C
:10053C0001314B4800F0AAFE6843206006E04A4BAC
:10054C000360002002E0464B23600020434B5A68B6
:10055C001206120F454DA95CC9B22668321CCA405E
:10056C00111C62605A685205520FAA5CD2B2D1407B
:10057C000A1CA1601B6BD90502D43D4BE36008E05B
:10058C00364B5B68590402D45308E36001E09308CE
:10059C00E360324B1B6B590602D4364B236102E0ED
:1005AC0080231B0223612D4B1B6BD90602D42C4BD1
:1005BC00636100E06661294B1B6B990701D1A26155
:1005CC0019E0264B1B6B03210B40012B01D1A661BB
:1005DC0011E0224B1B6B03210B40022B03D1802318
:1005EC001B02A36107E01D4B1B6B03210B40032B6C
:1005FC0001D11B4BA361194B196BC0239B021942F0
:10060C0001D1E26120E0154B1B6BC02292021A4013
:10061C0080235B029A4201D1E66115E00F4B1B6B04
:10062C00C02292021A4080239B029A4203D180235B
:10063C001B02E36108E0094B1A6BC0239B021A40B2
:10064C009A4201D1064BE361044B1B6B1A0602D490
:10065C00054B236200E0206270BDC04600100240D2
:10066C0000127A0000093D00006CDC02040000203E
:10067C00809FD5001280000038B5041C0D1C0D4B5A
:10068C00184201D1002803D10B480C4900F0D8FACC
:10069C00012D03D908480A4900F0D2FA002D04D0E4
:1006AC00084B5A6914435C6103E0064B5A69A24338
:1006BC005A6138BDAAFF81FE141C000836050000E3
:1006CC00370500000010024038B5041C0D1C0D4B02
:1006DC00184201D1002803D10B480C4900F0B0FAA4
:1006EC00012D03D908480A4900F0AAFA002D04D0BC
:1006FC00084B9A6914439C6103E0064B9A69A24328
:10070C009A6138BDFEA5B8FF141C00085A050000FC
:10071C005B0500000010024038B5041C0D1C0E4B8C
:10072C00184201D1002803D10C480D4900F088FA79
:10073C00012D04D90948B121C90000F081FA002D1E
:10074C0004D0084BDA691443DC6103E0054BDA6929
:10075C00A243DA6138BDC046CCB61185141C000822
:10076C008705000000100240F0B5474680B48AB0FF
:10077C00041C0D1C5C4B98420CD05C4B984209D06D
:10078C005B4B984206D05B4B984203D05A48DC2115
:10079C0000F056FA2A68013A584B9A4203D9564847
:1007AC00DD2100F04DFA6B68002B0AD0802252013B
:1007BC00934206D0524A934203D04F48DE2100F0B8
:1007CC003FFAAB68002B0BD080229201934207D0EA
:1007DC00C0229201934203D04748DF2100F030FA47
:1007EC00EB68002B0BD08022D200934207D0C022A2
:1007FC00D200934203D04048E02100F021FA2B694B
:10080C000C22191C914301D1002B03D13A48E12150
:10081C0000F016FA6B69002B0FD080225200934225
:10082C000BD080229200934207D0C02292009342B8
:10083C0003D03148E22100F003FA236801229343EC
:10084C00236062682F4B1340AA68134363602268CD
:10085C002D4B1A406B68E9680B4329690B43134312
:10086C002360A268294B13406A691343A36001A853
:10087C00FFF734FE1C4B9C4201D1079F05E01B4B3C
:10088C009C4201D1089F00E0039F236819040CD5FA
:10089C007F00B8462F684046391C00F0F7FC061C58
:1008AC004046391C00F036FD0AE02A689046381C98
:1008BC00111C00F0EBFC061C381C414600F02AFD14
:1008CC002A685208002391425B41F61823681904E8
:1008DC0004D533075B0F0E4A16401E43B6B2A681F1
:1008EC000AB004BC9046F0BD003801400044004002
:1008FC0000480040004C0040441C00087F8D5B0009
:10090C0000100010FFCFFFFFF3E9FFFFFFFCFFFF1C
:10091C00F0FF000038B5041C0D1C124B98420DD092
:10092C00114B98420AD0114B984207D0104B984269
:10093C0004D01048C821490000F082F9012D04D9D7
:10094C000C489221FF3100F07BF9002D04D0226875
:10095C0001231343236003E02368012293432360A4
:10096C0038BDC046003801400044004000480040FB
:10097C00004C0040441C000810B5041C094B984264
:10098C000CD0094B984209D0084B984206D0084B22
:10099C00984203D00748084900F052F9A08CC005D2
:1009AC00C00D10BD0038014000440040004800401C
:1009BC00004C0040441C0008A603000070B5051C48
:1009CC000C1C161C2C4B98420CD02C4B984209D06A
:1009DC002B4B984206D02B4B984203D02A482B49DC
:1009EC0000F02EF984235B009C4225D0284B9C42BE
:1009FC0022D0284B9C421FD0274B9C421CD0274B0B
:100A0C009C4219D0264B9C4216D0264B9C4213D0AC
:100A1C00C0239B009C420FD0234B9C420CD0234BF9
:100A2C009C4209D0224B9C4206D0224B9C4203D0C4
:100A3C001548214900F004F9012E03D912481F4929
:100A4C0000F0FEF82B1CA2B2120AFF210C4001216F
:100A5C00A1400C1C022A01D12B1D03E0032A01D159
:100A6C002B1C0833002E03D01A6814431C6002E0C0
:100A7C001A68A2431A6070BD00380140004400405F
:100A8C0000480040004C0040441C000805070000D2
:100A9C00070107000601060005010500040104001A
:100AAC00060208000A0309001A010B001B010C00C6
:100ABC000E011100160314000607000007070000C2
:100ACC0038B5051C0C1C2F4B98420CD02E4B984261
:100ADC0009D02E4B984206D02D4B984203D02D486E
:100AEC002D4900F0ADF884235B009C422AD02B4B9F
:100AFC009C4227D02A4B9C4224D02A4B9C4221D08A
:100B0C00294B9C421ED0294B9C421BD0284B9C420B
:100B1C0018D0284B9C4215D0274B9C4212D0274B07
:100B2C009C420FD0264B9C420CD0264B9C4209D0A9
:100B3C00254B9C4206D0254B9C4203D0154824499A
:100B4C0000F07EF8A3B21B0AFF2222400121914043
:100B5C000A1C012B02D129680A4006E0022B02D1A3
:100B6C0069680A4001E0A9680A40240C0123A340EB
:100B7C001C1CEB691C400020002A02D0201C441EC7
:100B8C00A04138BD003801400044004000480040FE
:100B9C00004C0040441C0008E60700000701070059
:100BAC000601060005010500040104000602080008
:100BBC000A03090000030300000302000003010004
:100BCC001A010B001B010C000E011100160314007E
:100BDC00E7070000FEE7C04608B5034800F054F8EC
:100BEC000120FFF7F7FFC046781C000808B50D4B35
:100BFC001B68002B02D10C4A0A4B1A60094B1B686C
:100C0C000330032290431818084A904206D900F08A
:100C1C008DFB0C2303600120404202E0014A10606E
:100C2C00181C08BD8C000020A8100020001C0020FF
:100C3C0001230360014B0B607047C0461400002079
:100C4C0008B5031C0A1C0348191C00F005F8FFF733
:100C5C00C3FFC046CC1C00080FB400B583B004AB76
:100C6C0004CB01930748802100F036FF011E03DD01
:100C7C00044800F053F8011C081C03B008BC04B075
:100C8C001847C0469400002010B5041C00F018FC56
:100C9C00011C201C00F042F80248012100F03EF833
:100CAC0010BDC046F81C0008F0B55F4656464D46D0
:100CBC004446F0B485B0041C8A46435C0E1C002BE1
:100CCC001BD10425281C211CABBE041C1DE0351EA9
:100CDC00102D00D95D46434604E022786946CA547B
:100CEC0001330134AB42F8D36F464246FA544846BE
:100CFC00391CABBE071C761B05E010239B4600215C
:100D0C00884604229146002EE1D1504605B03CBCE9
:100D1C0090469946A246AB46F0BDC04608B5FFF7D3
:100D2C00C3FF08BD08B500F05BF808BD82B0002316
:100D3C0001930093274B1968802252020A431A60D0
:100D4C00191C80229202A020C0010B681340009352
:100D5C00019B01330193009B002B02D1019B834229
:100D6C00F3D11C4B1B689A0302D50123009301E0BD
:100D7C0000230093009B012B2AD11122164B1A60E1
:100D8C00144B5A685A605A685A605968134A0A4098
:100D9C005A605968882252030A435A6019688022A3
:100DAC0052040A431A60191C802292040B681342E5
:100DBC00FCD0084B5A6803218A435A6059680222B6
:100DCC000A435A60191C0C224B681340082BFBD1A8
:100DDC0002B070470010024000200240FF7FC0FFAD
:100DEC0008B5124B19680122114319605868104953
:100DFC000140596018680F490140196018680E4984
:100E0C000140196058680D4901405960D96A0F209A
:100E1C008143D962186B0A4901401963596B91439C
:100E2C00596300229A60FFF781FF08BD0010024051
:100E3C000CB8FF08FFFFF6FEFFFFFBFFFFFFC0FF34
:100E4C00ACFEFFFF10B5041C0069102100F01AFB6A
:100E5C002061002802D01023A36103E00323237335
:100E6C00002323610023636110BDC04638B5041C08
:100E7C0000250560856005734560056145618561E8
:100E8C00FFF7E0FF657338BD10B5041CFFF7EEFFEC
:100E9C0002232373201C10BD10B582B08020800269
:100EAC000121FFF7E9FB8020C0020121FFF7E4FBE1
:100EBC0008230093012369460B7100238B710322D5
:100ECC004A71CB71044C201CFFF792F9201C0821AD
:100EDC00FFF71CFA02B010BD00040048016042602C
:100EEC008360044BC36000230361242283542522B6
:100EFC0083547047281D000800B583B08020800201
:100F0C000121FFF7B9FB0223009300236A461371FA
:100F1C000123D3719020C0056946FFF769F903B02E
:100F2C0000BDC046012303710023A322D2008350CD
:100F3C00822292008350C422920083500160704739
:100F4C0008B50C4B1868FA21890000F09FF901389C
:100F5C00094B98420DD8094B5860094A106A000297
:100F6C00000AC02109060143116200229A6007227F
:100F7C001A6008BD1C000020FFFFFF0010E000E01D
:100F8C0000ED00E0034B18601A1C1368002BFCD119
:100F9C007047C046840C0020064B1B68002B03D006
:100FAC00044B1A68013A1A60034B1A6801321A6032
:100FBC007047C046840C0020880C002008B5FFF751
:100FCC00EBFF08BD38B5012812D10A4B99420FD15D
:100FDC00094D281C0949FFF7A5FF094C201C09499C
:100FEC00FFF7A0FF084809492A1C231CFFF776FFCE
:100FFC0038BDC046FFFF0000180200208C0C0020FA
:10100C005C070020980E00203407002014010020FB
:10101C0010B588B000F03EF8FFF73EFFFFF790FFE9
:10102C001048FFF769FF01A8FFF72EFF0E4C201C9C
:10103C000821FFF76BF96420FFF7A4FF201C08219F
:10104C00FFF794F96420FFF79DFF201C0821FFF7A0
:10105C005DF96420FFF796FF201C0821FFF786F945
:10106C00E5E7C046340700200004004808B501201D
:10107C000149FFF7A7FF08BDFFFF000008B50020DE
:10108C000149FFF79FFF08BDFFFF00007047C046F6
:10109C007047C046F0B55F4656464D464446F0B4E0
:1010AC008BB0564B802676000024002291469C5330
:1010BC0081256D005C53812080001C5250495C528C
:1010CC00822292004F4F9F504F4B9C535C531C52AB
:1010DC005C524E49995080239B029A46181C012160
:1010EC00FFF7CAFA50460121FFF716FB9027FF05C0
:1010FC00381C02210122FFF769F9381C0321012257
:10110C00FFF764F902AD0C23029303226A710223E8
:10111C002B714A46AA7101239846EB71381C291C85
:10112C00FFF766F8E1235B02049305940694079499
:10113C0009940C220892364B9B46181C04A9FFF705
:10114C0013FB584633490122FFF738FC01AE1C2330
:10115C0033704A4672704346B370301CFFF780F907
:10116C0058460121FFF7D6FB50460121FFF784FAC0
:10117C008020C0010121FFF7A7FA381C09210122A8
:10118C00FFF724F9381C0A210122FFF71FF9C023AD
:10119C00DB00029303226A7102232B714A46AA7167
:1011AC004346EB71381C291CFFF722F8E12252024E
:1011BC00049205940694079409940C230893164CF6
:1011CC00201C04A9FFF7D0FA201C12490122FFF7BA
:1011DC00F5FB1B2333704A4672704346B370301CC8
:1011EC00FFF73EF9201C0121FFF794FB0BB03CBC30
:1011FC0090469946A246AB46F0BDC0468C0C0020EA
:10120C000602000099100008980E00209D1000089E
:10121C0000440040050105000038014070B50A4843
:10122C000A49FFF74DFC00280CD0094C80256D00B5
:10123C00665B0548FFF7A0FBA055635B0133FF22FB
:10124C001340635370BDC0460044004005010500C7
:10125C00980E002070B50A480A49FFF731FC0028A7
:10126C000CD0094C80256D00665B0548FFF784FBAC
:10127C00A055635B0133FF221340635370BDC0461E
:10128C0000380140050105008C0C0020002934D0E9
:10129C000123002210B488422CD301242407A1423C
:1012AC0004D2814202D209011B01F8E7E400A142F9
:1012BC0004D2814202D249005B00F8E7884201D394
:1012CC00401A1A434C08A04202D3001B5C0822436C
:1012DC008C08A04202D3001B9C082243CC08A042DD
:1012EC0002D3001BDC082243002803D01B0901D0C9
:1012FC000909E3E7101C10BC7047002801D000203E
:10130C00C04307B4024802A14018029003BDC04676
:10131C00190000000029F0D003B5FFF7B9FF0EBC8F
:10132C004243891A1847C0467047C046014B18689B
:10133C007047C0468000002010B50023934203D0B4
:10134C00CC5CC4540133F9E710BD000030B5002962
:10135C0040D004390B68002B00DAC9181E4A1368F8
:10136C00141C002B02D14B60116033E099420FD258
:10137C0008680A189A4205D113685268C0180860A8
:10138C004A6000E04B60216024E08A4203D8131CC1
:10139C005A68002AF9D11D685C198C420BD1096876
:1013AC00691858181960904214D1146852680919B8
:1013BC0019605A600EE08C4202D90C23036009E0DC
:1013CC0008680C18944203D114685268001908601C
:1013DC004A60596030BDC0467C0C002070B50323B8
:1013EC00CD1C9D430835061C0C2D01D20C2501E0AB
:1013FC00002D3FDB8D423DD3204B1C681A1C211C59
:10140C00002913D00868431B0DD40B2B02D90B6099
:10141C00CC181EE08C4202D1636813601AE0486855
:10142C0060600C1C16E00C1C4968E9E7144C206841
:10143C00002803D1301C00F031F82060301C291C2E
:10144C0000F02CF8431C15D0C41C03239C4384428D
:10145C000AD12560201C0B300722231D9043C31A90
:10146C000BD05A42E25008E0211A301C00F016F85A
:10147C000130EED10C233360002070BD7C0C0020B9
:10148C00780C002008B50A1C0349031C0868191CB9
:10149C0000F056FB08BDC0468000002038B5074C54
:1014AC000023051C081C2360FFF7A0FB431C03D181
:1014BC002368002B00D02B6038BDC046800C002068
:1014CC000023C25C0133002AFBD1581E7047000078
:1014DC00F0B58D6885B0071C0C1C03920193AB42D0
:1014EC0045D390228B89D20013423DD062690326EA
:1014FC00564309692068F20F401A96190290021C93
:10150C000198013212187610964200D2161C381C23
:10151C005A050FD5311CFFF761FF051E13D0029A37
:10152C002169FFF709FFA289184B1340802213434E
:10153C00A38111E0321C00F003FB051E0CD1381CFA
:10154C002169FFF703FF0C233B60A389402213435F
:10155C000120A381404217E0029B2561ED18256014
:10156C006661019DF61AA6600198A84200D2019D01
:10157C002A1C2068039900F0CAFAA2680020531BA9
:10158C00A36023685D19256005B0F0BD7FFBFFFFEC
:10159C00F0B59FB0039005938B890E1C171C190690
:1015AC000FD53269002A0CD14021FFF717FF3060AC
:1015BC003061002803D103990C230B60C9E0402350
:1015CC00736106AD00236B6120236B763023AB7601
:1015DC003C1C2378002B03D1E21B029211D003E0B8
:1015EC00252BF9D00134F4E70398311C3A1C029BEB
:1015FC00FFF76EFF013000D1A6E06969029A8B18E3
:10160C006B612378002B00D19EE0012252426A606C
:10161C006A4600235B3201342B60EB60AB601370C5
:10162C00AB654E4F2178381C052200F065FA002876
:10163C0007D0C71B2B680120B84018432860013421
:10164C00EFE72B68D90603D56A4620215B3211706F
:10165C001A0703D56A462B215B32117022782A2A8D
:10166C0001D0099B0EE0059A111D12680591002A04
:10167C0001DB099204E05242EA60022213432B6020
:10168C00013409E02278303A092A04D80A214B4364
:10169C0001349B18F6E7099323782E2B18D1637825
:1016AC002A2B09D1059B02341A1D1B680592002BAD
:1016BC000DDA01235B420AE0013400232278303A30
:1016CC00092A04D80A214B4301349B18F6E70793E7
:1016DC00234F2178381C032200F00EFA002806D084
:1016EC00C71B2B684020B840184328600134217870
:1016FC001C480622671C297600F0FEF9002812D03F
:10170C00194B002B06D1059B072207339343083353
:10171C00059314E005AB00930398291C321C134B62
:10172C0000E000BF07E005AB00930398291C321CB6
:10173C000E4B00F091F804900499013104D06A69C1
:10174C00049953186B6143E7B3895A0601D40B987B
:10175C0001E0012040421FB0F0BDC046361D00081C
:10176C003C1D0008401D000800000000DD140008AE
:10177C00F7B5151C01930A698B68061C0C1C934267
:10178C0000DA131C221C2B6043321278002A01D081
:10179C0001332B602068800602D52B6802332B6046
:1017AC00216806270F401FD0231C43331B785A1E79
:1017BC009341226892061FD5E11840313020C87041
:1017CC00211C5A1C45310978A21840320233D170C1
:1017DC0012E0221C301C019919320123089FB847D2
:1017EC00013011D0009F01370097E0682968009FF5
:1017FC00431A9F42EDDBD7E7221C301C0199433280
:10180C00089FB847013002D10120404223E02068F4
:10181C0006212B68E26801400025042903D1D51A62
:10182C00EB43DB171D40A26823699A4201DDD31AF2
:10183C00ED1800270097009FAF420BDA221C301CDA
:10184C0001991A320123089FB8470130DCD0009F60
:10185C000137EFE70020FEBDF0B50D1C8BB0433512
:10186C0006920590079304950B7E0C1C109A6E2B18
:10187C0000D1A7E011D8632B22D009D8002B00D1BE
:10188C00B0E0582B00D0C0E045310B707B4D4EE0E2
:10189C00642B1CD0692B1AD0B7E0732B00D1A5E0B8
:1018AC0009D86F2B29D0702B00D0AEE00E68202306
:1018BC0033430B6036E0752B1FD0782B32D0A4E06D
:1018CC0013680D1C191D423511601B689FE02168BF
:1018DC0013680E0603D5191D11601E6805E0480635
:1018EC00F9D5191D116000215E5E644B002E3BDAA8
:1018FC00049D2D2276422A7036E0216813680E066C
:10190C0003D5191D11601E6804E04806F9D5191D90
:10191C001E881160594B227E039308276F2A1ED014
:10192C000A271CE0231C78214533554D197011688A
:10193C002368081D039510601E0601D50E6802E091
:10194C005806FBD50E88D90702D5202213432360F5
:10195C001027002E03D1226820239A432260231CD7
:10196C00002243331A7001E003930A276368A360D3
:10197C00002B03DB2568042295432560002E02D141
:10198C00049D002B0ED0049D301C391CFFF7C2FCAB
:10199C000398013D435C301C2B70391CFFF776FC1F
:1019AC00061EF1D1082F09D12168C90706D5626836
:1019BC0023699A4202DC013D30232B70049E731B79
:1019CC0023612AE0086813684969050604D5181DC7
:1019DC0010601B68196005E04606F8D5181D1060EC
:1019EC001B68198000232361049D16E01368191DE0
:1019FC0011601D68281CFFF763FD63682061984225
:101A0C0000D923612069606004E0251C42352B70ED
:101A1C0001232361049E00233370079E05980096D2
:101A2C00211C09AA069BFFF7A3FE013002D101205D
:101A3C00404221E02A1C059806992369079DA84776
:101A4C000130F4D02668B60705D4099BE0689842AB
:101A5C0012DA181C10E00025E0680999431A9D421F
:101A6C00F3DA221C0598069919320123079EB04718
:101A7C000130DCD00135EFE70BB0F0BD471D00089D
:101A8C00581D000830B5051C9BB0141E04DA8B23BE
:101A9C000360012040421DE08222920068460091C2
:101AAC000491002182818C4200D0611E012252429D
:101ABC00029105916946CA81281C1A1C1E9BFFF7CE
:101ACC0067FD421C01DA8B232B60002C02D000999D
:101ADC0000230B701BB030BD73B5141C054A061CDB
:101AEC000D1C1068311C00932A1C231CFFF7CAFF25
:101AFC0076BDC04680000020C9B28218904204D046
:101B0C0003788B4202D00130F8E70020704770B5A3
:101B1C00814201D300230CE08C18A042FAD2851824
:101B2C00131C013B0BD351426618F65C6918CE545A
:101B3C00F7E7934203D0CC5CC4540133F9E770BD92
:101B4C00F8B5061C0C1C151C002904D1111CFFF740
:101B5C0045FC041C18E0002A03D1FFF7F7FB2C1CF2
:101B6C0012E000F013F8A8420ED2301C291CFFF72B
:101B7C0035FC071E07D0211C2A1CFFF7DDFB301C8F
:101B8C00211CFFF7E3FB3C1C201CF8BD04390B683F
:101B9C00181F002B02DAC8581B18181F70470000BA
:101BAC002E2E2F73797374656D2F7372632F73746C
:101BBC006D333266302D7374647065726970682F82
:101BCC0073746D3332663078785F6770696F2E632B
:101BDC00000000002E2E2F73797374656D2F7372B5
:101BEC00632F73746D333266302D73746470657249
:101BFC006970682F73746D3332663078785F6D69F5
:101C0C0073632E63000000002E2E2F73797374659E
:101C1C006D2F7372632F73746D333266302D737442
:101C2C00647065726970682F73746D3332663078C6
:101C3C00785F7263632E63002E2E2F737973746535
:101C4C006D2F7372632F73746D333266302D737412
:101C5C00647065726970682F73746D333266307896
:101C6C00785F75736172742E6300000061626F722D
:101C7C007428292C2065786974696E672E2E2E00C5
:101C8C002C2066756E6374696F6E3A20000000003C
:101C9C00617373657274696F6E20222573222066DE
:101CAC0061696C65643A2066696C65202225732233
:101CBC002C206C696E65202564257325730A000041
:101CCC006173736572745F706172616D282920662F
:101CDC0061696C65643A2066696C65202225732203
:101CEC002C206C696E652025640A00000A00000037
:101CFC006D61696E28617267633D25642C20617289
:101D0C0067763D5B000000002C200000222573222A
:101D1C00000000005D293B0A000000006B657900A3
:101D2C002F25732F256400004300232D302B20001A
:101D3C00686C4C0065666745464700303132333479
:101D4C003536373839414243444546003031323319
:0D1D5C0034353637383961626364656600DE
:101D6C00785634120000000001020304010203043F
:101D7C00060708099000002000000000006CDC023F
:101D8C000000000000000000000000000000000047
:101D9C000000000000000000000000000000000037
:101DAC00341D0008000000000000000000000000CE
:101DBC000000000000000000000000000000000017
:101DCC000000000000000000000000000000000007
:101DDC0000000000000000000000000000000000F7
:081DEC0020000020325476981B
:04000005080000C52A
:00000001FF
