:020000040800F2
:1000000000200020D5010008DD010008E101000802
:1000100000000000000000000000000000000000E0
:10002000000000000000000000000000E5010008E2
:100030000000000000000000E9010008F1170008BE
:10004000F1010008F1010008F1010008F1010008C8
:10005000F1010008F1010008F1010008F1010008B8
:10006000F1010008F1010008F1010008F1010008A8
:10007000F1010008F1010008F1010008F101000898
:10008000F1010008F101000800000000F101000882
:10009000F1010008F1010008F1010008F101000878
:1000A000F1010008F1010008F1010008A91A000897
:1000B000A51A000800000000F1010008000000007F
:1000C0005FF808F130B583B0314B324A1360324AE1
:1000D0001360324B3249002201E01A6004338B4234
:1000E000FBD32C4B1B68002B03D12B4B1B68002B25
:1000F00000D0FEE7264B2B4A13602B4A13602B4B94
:100100002B4A2C4903E010681860043304328B42F8
:10011000F9D3244B1A68284B9A4204D1224B1A680F
:100120001B689A4200D0FEE701F09EF801A86946DC
:1001300001F020F8214B224DED1AAD10002404E00F
:10014000A3001E4A9B5898470134A542F8DC1D4B7A
:100150001D4DED1AAD10002404E0A30019481B58F2
:1001600098470134A542F8DC0198009901F05CFB46
:10017000051C164B164CE41AA41004E0013CA30025
:10018000124A9B589847002CF8DC281C00F0C4FF4A
:10019000BABADECA88000020740800208800002057
:1001A00078080020000000208400002000000020CB
:1001B000F82500088800002078563412F401000861
:1001C000F4010008F4010008F8010008F801000833
:1001D000FC01000808B5FFF775FFC046FEE7C04602
:1001E000FEE7C046FEE7C046FEE7C046FEE7C04663
:0401F000FEE7C04620
:0801F4006D1900087D190008D7
:1001FC0010B5041C0A4B984203D00A48852100F024
:10020C00BBFF074B9C4209D18024A400201C012178
:10021C0000F032FC201C002100F02EFC10BDC0466A
:10022C0000240140DC23000838B5051C0C1C314BA4
:10023C00984203D03048A12100F09EFF2368002B88
:10024C0009D0082B07D0102B05D0182B03D02A4827
:10025C00A22100F091FF2379012B03D92648A32179
:10026C0000F08AFFA368002B0FD08022D2009342AB
:10027C000BD080221201934207D0C022120193426C
:10028C0003D01D48A42100F077FFE368002B0DD0AC
:10029C00402B0BD0802B09D0C02B07D080225200D2
:1002AC00934203D01448A52100F066FF2369002B6C
:1002BC0005D0202B03D01048A62100F05DFF636908
:1002CC00002B05D0042B03D00B48A72100F054FFC2
:1002DC00EA680A4B1A4023795B0321680B43A16837
:1002EC000B43E1680B4321690B4361690B431343D7
:1002FC00EB6038BD00240140DC23000803D2FFFF73
:10030C000023036003718360C36003614361704722
:10031C0038B5041C0D1C0C4B984203D00B48E9213A
:10032C0000F02AFF012D03D90848EA2100F024FF30
:10033C00002D04D0A26801231343A36003E0A2683C
:10034C0002231343A36038BD00240140DC230008C2
:10035C0070B5041C0D1C161C0D4B984203D00D4897
:10036C000D4900F009FF002D01D0EB0C04D0094819
:10037C00B421890000F000FF072E03D90548074976
:10038C0000F0FAFEA36A1D43A562666170BDC0460B
:10039C0000240140DC230008CF020000D102000041
:1003AC0010B5041C0E4B984203D00E480E4900F0B9
:1003BC00E3FEA26880231B061343A3600023F021F5
:1003CC000902A268D20FD20701338B4201D0002A56
:1003DC00F7D1A368002B01DB206C00E0002010BDDE
:1003EC0000240140DC2300083D03000010B5041C70
:1003FC00054B984203D00548054900F0BDFEA268A4
:10040C0004231343A36010BD00240140DC23000827
:10041C006F03000010B5041C054B984204D005482E
:10042C00DF21890000F0A8FE206C80B210BDC04610
:10043C0000240140DC23000838B5051C0C1C194BAA
:10044C00984203D01848194900F096FE631E012B00
:10045C001CD9042C1AD0082C18D0802C16D0102C97
:10046C0014D0134B9C4211D0124B9C420ED0124B09
:10047C009C420BD0114B9C4208D081231B069C4202
:10048C0004D009488B21C90000F076FEE30103D5A6
:10049C00A8680B4B184000E028680440201C441E40
:1004AC00A04138BD00240140DC23000857040000A3
:1004BC000100000102000001040000011000000115
:1004CC00FFFFFFFEF8B5051C0E1C9023DB059842C0
:1004DC0012D03D4B98420FD03C4B98420CD03C4B29
:1004EC00984209D03B4B984206D03B4B984203D0E4
:1004FC003A48B42100F040FE3368002B03D1374852
:10050C00B52100F039FE3379032B03D93348B621DA
:10051C0000F032FEF379022B03D93048B72100F0FA
:10052C002BFE002401274BE03B1CA34032681A40F1
:10053C009A4244D13379013B012B28D87379012B92
:10054C0005D9032B03D02548C72100F015FEAA6856
:10055C006300032199408A43AA60AA687179994083
:10056C000B1C1343AB60B379012B03D91B48CE2171
:10057C0000F002FEAA8823041B0C391C99408A4304
:10058C00AA80AA88B17999408BB21343AB802968B1
:10059C0063000322101C984081432960286831793C
:1005AC00994001432960E9682004C00B82409143C3
:1005BC00E960EA68F17999400B1C1343EB60013454
:1005CC000F2CB1D9F8BDC046000400480008004803
:1005DC00000C004800100048001400480C240008CF
:1005EC0038B5041C0D1C9023DB05984213D00E4B20
:1005FC00984210D00D4B98420DD00D4B98420AD01A
:10060C000C4B984207D00C4B984204D00B48C82195
:10061C00490000F0B1FD002D04D108489221FF31B2
:10062C0000F0AAFDA56138BD000400480008004890
:10063C00000C004800100048001400480C2400086E
:10064C0038B5041C0D1C9023DB05984213D00E4BBF
:10065C00984210D00D4B98420DD00D4B98420AD0B9
:10066C000C4B984207D00C4B984204D00B48A62157
:10067C00FF3100F081FD002D04D10848D321490041
:10068C0000F07AFD258538BD0004004800080048BC
:10069C00000C004800100048001400480C2400080E
:1006AC0070B5041C0D1C161C9023DB05984212D04F
:1006BC00174B98420FD0174B98420CD0164B9842C0
:1006CC0009D0164B984206D0154B984203D01548CA
:1006DC00154900F051FD0F2D03D91248134900F0B4
:1006EC004BFD072E03D90F48114900F045FD072398
:1006FC002B409B009E40E908083189000A590F20C5
:10070C00984082430A510B591E430E5170BDC0468E
:10071C000004004800080048000C00480010004885
:10072C00001400480C2400080D0200000E0200000A
:10073C000F02000010B5041C054B984205D0002890
:10074C0003D00448942100F017FD034B1C6010BD2E
:10075C0055550000402400080030004010B5041E20
:10076C00062C03D90348A82100F006FD024B5C605F
:10077C0010BDC046402400080030004010B5041CD9
:10078C00044B984203D90448B52100F0F5FC034B07
:10079C009C6010BDFF0F000040240008003000409A
:1007AC00014A024B1A607047AAAA000000300040B0
:1007BC00014A024B1A607047CCCC0000003000405C
:1007CC0070B5041C8378012B03D91A48522100F010
:1007DC00D3FC6378032B03D91648532100F0CCFCCF
:1007EC00A378002B1BD02578AA08134BC03292009B
:1007FC00D65803210D40E900FF20051C8D40AE4367
:10080C00351C6678B60130408840011C2943D15014
:10081C0022781F210A4001219140196008E02378B9
:10082C001F21194001238B40191C8023024AD150EF
:10083C0070BDC0467424000800E100E070B5041CD3
:10084C005E4B5B680C221340042B0CD002D8002B9F
:10085C0005D028E0082B0AD00C2B20D023E0584BD5
:10086C000360002022E0564B036000201EE0534B37
:10087C005D68AD025A682D0F0235C0235B021A4227
:10088C0002D15048684308E04C4BDB6A0F211940F9
:10089C0001314B4801F01EF96843206006E04A4BD9
:1008AC000360002002E0464B23600020434B5A6853
:1008BC001206120F454DA95CC9B22668321CCA40FB
:1008CC00111C62605A685205520FAA5CD2B2D14018
:1008DC000A1CA1601B6BD90502D43D4BE36008E0F8
:1008EC00364B5B68590402D45308E36001E093086B
:1008FC00E360324B1B6B590602D4364B236102E08A
:10090C0080231B0223612D4B1B6BD90602D42C4B6D
:10091C00636100E06661294B1B6B990701D1A261F1
:10092C0019E0264B1B6B03210B40012B01D1A66157
:10093C0011E0224B1B6B03210B40022B03D18023B4
:10094C001B02A36107E01D4B1B6B03210B40032B08
:10095C0001D11B4BA361194B196BC0239B0219428C
:10096C0001D1E26120E0154B1B6BC02292021A40B0
:10097C0080235B029A4201D1E66115E00F4B1B6BA1
:10098C00C02292021A4080239B029A4203D18023F8
:10099C001B02E36108E0094B1A6BC0239B021A404F
:1009AC009A4201D1064BE361044B1B6B1A0602D42D
:1009BC00054B236200E0206270BDC046001002406F
:1009CC0000127A0000093D00006CDC0204000020DB
:1009DC00809FD5001280000038B5041C0D1C0D4BF7
:1009EC00184201D1002803D10B480C4900F0C4FB7C
:1009FC00012D03D908480A4900F0BEFB002D04D094
:100A0C00084B5A6914435C6103E0064B5A69A243D4
:100A1C005A6138BDAAFF81FEA824000836050000E3
:100A2C00370500000010024038B5041C0D1C0D4B9E
:100A3C00184201D1002803D10B480C4900F09CFB53
:100A4C00012D03D908480A4900F096FB002D04D06B
:100A5C00084B9A6914439C6103E0064B9A69A243C4
:100A6C009A6138BDFEA5B8FFA82400085A050000FD
:100A7C005B0500000010024038B5041C0D1C0E4B29
:100A8C00184201D1002803D10C480D4900F074FB29
:100A9C00012D04D90948B921C90000F06DFB002DC6
:100AAC0004D0084BDA681443DC6003E0054BDA68C9
:100ABC00A243DA6038BDC046FEA5B8FFA8240008E2
:100ACC00C70500000010024010B5041E012C20D0F8
:100ADC0011281ED019281CD021281AD0412818D032
:100AEC00592816D05A2814D05B2812D05C2810D064
:100AFC005D280ED05E280CD05F280AD0612808D063
:100B0C00712806D0572804D00D48CA21C90000F01E
:100B1C0033FB630902D10B4B1B680BE0012B02D199
:100B2C00084B1B6A06E0022B02D1064B5B6A01E004
:100B3C00044B5B6B1F200440E3400120184010BDA8
:100B4C00A824000800100240034B596A802252046A
:100B5C000A435A627047C04600100240F0B547463F
:100B6C0080B48AB0041C0D1C5C4B98420CD05C4BBE
:100B7C00984209D05B4B984206D05B4B984203D00D
:100B8C005A48DC2100F0F8FA2A68013A584B9A428C
:100B9C0003D95648DD2100F0EFFA6B68002B0AD020
:100BAC0080225201934206D0524A934203D04F48BE
:100BBC00DE2100F0E1FAAB68002B0BD08022920111
:100BCC00934207D0C0229201934203D04748DF21C1
:100BDC0000F0D2FAEB68002B0BD08022D2009342AB
:100BEC0007D0C022D200934203D04048E02100F04D
:100BFC00C3FA2B690C22191C914301D1002B03D190
:100C0C003A48E12100F0B8FA6B69002B0FD0802232
:100C1C00520093420BD080229200934207D0C02204
:100C2C009200934203D03148E22100F0A5FA2368E8
:100C3C0001229343236062682F4B1340AA6813432D
:100C4C00636022682D4B1A406B68E9680B43296975
:100C5C000B4313432360A268294B13406A69134367
:100C6C00A36001A8FFF7EAFD1C4B9C4201D1079F32
:100C7C0005E01B4B9C4201D1089F00E0039F2368B9
:100C8C0019040CD57F00B8462F684046391C00F07B
:100C9C0021FF061C4046391C00F060FF0AE02A6860
:100CAC009046381C111C00F015FF061C381C4146E0
:100CBC0000F054FF2A685208002391425B41F61859
:100CCC002368190404D533075B0F0E4A16401E43E4
:100CDC00B6B2A6810AB004BC9046F0BD0038014003
:100CEC000044004000480040004C0040D82400085C
:100CFC007F8D5B0000100010FFCFFFFFF3E9FFFFBB
:100D0C00FFFCFFFFF0FF000038B5041C0D1C124B5C
:100D1C0098420DD0114B98420AD0114B984207D0F3
:100D2C00104B984204D01048C821490000F024FA16
:100D3C00012D04D90C489221FF3100F01DFA002D31
:100D4C0004D0226801231343236003E023680122AB
:100D5C009343236038BDC046003801400044004036
:100D6C0000480040004C0040D824000838B5041C52
:100D7C000D1C0D4B98420CD00C4B984209D00C4BCF
:100D8C00984206D00B4B984203D00B480B4900F00D
:100D9C00F3F90B4B9D4203D907480A4900F0ECF9D3
:100DAC00ED05ED0D258538BD0038014000440040AF
:100DBC0000480040004C0040D82400089503000077
:100DCC00FF0100009603000010B5041C094B98426B
:100DDC000CD0094B984209D0084B984206D0084BCE
:100DEC00984203D00748084900F0C6F9A08CC0050A
:100DFC00C00D10BD003801400044004000480040C8
:100E0C00004C0040D8240008A603000070B5051C57
:100E1C000C1C161C2C4B98420CD02C4B984209D015
:100E2C002B4B984206D02B4B984203D02A482B4987
:100E3C0000F0A2F984235B009C4225D0284B9C42F5
:100E4C0022D0284B9C421FD0274B9C421CD0274BB6
:100E5C009C4219D0264B9C4216D0264B9C4213D058
:100E6C00C0239B009C420FD0234B9C420CD0234BA5
:100E7C009C4209D0224B9C4206D0224B9C4203D070
:100E8C001548214900F078F9012E03D912481F4961
:100E9C0000F072F92B1CA2B2120AFF210C400121A6
:100EAC00A1400C1C022A01D12B1D03E0032A01D105
:100EBC002B1C0833002E03D01A6814431C6002E06C
:100ECC001A68A2431A6070BD00380140004400400B
:100EDC0000480040004C0040D824000805070000E2
:100EEC0007010700060106000501050004010400C6
:100EFC00060208000A0309001A010B001B010C0072
:100F0C000E0111001603140006070000070700006D
:100F1C0038B5051C0C1C314B98420CD0304B984208
:100F2C0009D0304B984206D02F4B984203D02F4813
:100F3C002F4900F021F9012C49D0802C47D0402CAE
:100F4C0045D0202C43D0102C41D080235B009C42F8
:100F5C003DD080239B009C4239D0082C37D0042CE8
:100F6C0035D0022C33D08023DB009C422FD0802341
:100F7C001B019C422BD080235B019C4227D08023F9
:100F8C00DB019C4223D080231B029C421FD0802378
:100F9C005B029C421BD080239B029C4217D0802377
:100FAC00DB029C4213D080231B039C420FD0802376
:100FBC005B039C420BD080239B039C4207D0802375
:100FCC00DB039C4203D009480A4900F0D5F8E869D4
:100FDC000440201C441EA04138BDC04600380140CE
:100FEC000044004000480040004C0040D824000859
:100FFC00930700009407000038B5051C0C1C2F4B00
:10100C0098420CD02E4B984209D02E4B984206D0C9
:10101C002D4B984203D02D482D4900F0ADF8842378
:10102C005B009C422AD02B4B9C4227D02A4B9C42E3
:10103C0024D02A4B9C4221D0294B9C421ED0294BB8
:10104C009C421BD0284B9C4218D0284B9C4215D05C
:10105C00274B9C4212D0274B9C420FD0264B9C42D4
:10106C000CD0264B9C4209D0254B9C4206D0254BDC
:10107C009C4203D01548244900F07EF8A3B21B0A09
:10108C00FF222240012191400A1C012B02D1296828
:10109C000A4006E0022B02D169680A4001E0A96807
:1010AC000A40240C0123A3401C1CEB691C400020AB
:1010BC00002A02D0201C441EA04138BD003801403B
:1010CC000044004000480040004C0040D824000878
:1010DC00E6070000070107000601060005010500F0
:1010EC0004010400060208000A03090000030300BF
:1010FC0000030200000301001A010B001B010C008D
:10110C000E01110016031400E7070000FEE7C046AD
:10111C0008B5034800F054F80120FFF7F7FFC0466C
:10112C000C25000808B50D4B1B68002B02D10C4A8E
:10113C000A4B1A60094B1B680330032290431818A2
:10114C00084A904206D900F015FD0C2303600120DB
:10115C00404202E0014A1060181C08BD8C000020BF
:10116C0078080020001C002001230360014B0B6059
:10117C007047C0461400002008B5031C0A1C034825
:10118C00191C00F005F8FFF7C3FFC04660250008E6
:10119C000FB400B583B004AB04CB01930748802196
:1011AC0001F0B2F8011E03DD044800F053F8011CF5
:1011BC00081C03B008BC04B01847C04694000020BB
:1011CC0010B5041C00F094FD011C201C00F042F82A
:1011DC000248012100F03EF810BDC0468C250008E5
:1011EC00F0B55F4656464D464446F0B485B0041CF7
:1011FC008A46435C0E1C002B1BD10425281C211C89
:10120C00ABBE041C1DE0351E102D00D95D464346B7
:10121C0004E022786946CA5401330134AB42F8D356
:10122C006F464246FA544846391CABBE071C761B27
:10123C0005E010239B460021884604229146002E8F
:10124C00E1D1504605B03CBC90469946A246AB460F
:10125C00F0BDC04608B5FFF7C3FF08BD08B500F0E8
:10126C005BF808BD82B0002301930093274B1968EB
:10127C00802252020A431A60191C80229202A0207A
:10128C00C0010B6813400093019B01330193009B39
:10129C00002B02D1019B8342F3D11C4B1B689A0398
:1012AC0002D50123009301E000230093009B012B46
:1012BC002AD11122164B1A60144B5A685A605A687C
:1012CC005A605968134A0A405A6059688822520376
:1012DC000A435A601968802252040A431A60191C86
:1012EC00802292040B681342FCD0084B5A680321ED
:1012FC008A435A60596802220A435A60191C0C220C
:10130C004B681340082BFBD102B070470010024011
:10131C0000200240FF7FC0FF08B5124B1968012264
:10132C0011431960586810490140596018680F49F9
:10133C000140196018680E490140196058680D4940
:10134C0001405960D96A0F208143D962186B0A4950
:10135C0001401963596B9143596300229A60FFF75E
:10136C0081FF08BD001002400CB8FF08FFFFF6FE1D
:10137C00FFFFFBFFFFFFC0FFACFEFFFF10B582B00D
:10138C00802080020121FFF727FB8020C002012171
:10139C00FFF722FB08230093012369460B710023FE
:1013AC008B7103224A71CB71044C201CFFF78AF815
:1013BC00201C0821FFF714F902B010BD00040048EE
:1013CC000160054B4360FE2303720023C36143831A
:1013DC0020230022C2547047BC250008F0B589B008
:1013EC00204D281CFEF704FF802080020121FFF70E
:1013FC00F3FA802080000121FFF716FB01270097EC
:10140C0003236A4613710026D6719020C0056946E5
:10141C00FFF758F802AC201CFEF772FF082302936A
:10142C002771A660E66026616661281C211CFEF708
:10143C00FBFE281C01210522FEF78AFF281CFEF763
:10144C00AFFF281C0121FEF763FF2C1C201C01217F
:10145C00FEF7F2FF0028F9D00248FEF7C7FF09B0EB
:10146C00F0BDC046002401407047C04630B583B083
:10147C00041C01AB00221A70027A5A70C369013342
:10148C00C361092B3FD90023C361204D281C0421C3
:10149C00FEF7D2FF0028F9D01C48FEF7BBFF03B2C1
:1014AC009B109BB2002B02D01AB2FF2A0BD11A222E
:1014BC00A15E1AB2891A4A1E91412022A05C0143F6
:1014CC00A154638311E01BB258109B101A21625E69
:1014DC009110C3185B189BB219B28A1A0132022AF6
:1014EC0003D901212022A15463832023E35C002B28
:1014FC0009D000222023E25401A9638B8B70206851
:10150C00032200F0FDF803B030BDC04600240140BA
:10151C00012303710023A322D20083508222920064
:10152C008350C422920083500160704710B5C029CB
:10153C000CD18221890043585A1CC318DB245C71DE
:10154C00531C43508018DC23437115E0DB290CD16C
:10155C008221890043585A1CC318DB245C71531C2C
:10156C0043508018DD23437106E082229200835899
:10157C005C1C8450C018417110BDC046F0B5474684
:10158C0080B40024C4239B00C4500023C426B6009E
:10159C00DB24A446C025A84629E0CC182578DB2DF1
:1015AC001BD15C1C0C192578DC2D08D185596F1CBE
:1015BC00875145198427BF00ED1947462F702478B1
:1015CC00DD2C08D18459651C855104198425AD0086
:1015DC00641967462770023309E085596F1C8751DF
:1015EC00247845198427BF00ED192C7001339342E0
:1015FC00D3DBC4239B00C258C5239B00C25004BC40
:10160C009046F0BDF8B54F464646C0B4812149001E
:10161C0080256D00FF26A327FF0002239846012397
:10162C009C46C6239B00994631E0541C5C529C5C42
:10163C0003685A5A32405A520379012B0BD1C02CF1
:10164C0002D16346037122E06346C3514B46C45436
:10165C00434603711BE0022B19D1C259FF2A02D950
:10166C006346037113E0C02C08D101230371C62318
:10167C009B00C118FFF782FF01200EE0531CC351E1
:10168C008218C6239B00D21814704346037103685A
:10169C005A5A5C5BA242C8D100200CBC90469946B9
:1016AC00F8BDC046012282239B00C250C023437167
:1016BC007047C046822189004258531C43508218FF
:1016CC00C02151718322920083507047F0B5474678
:1016DC0080B480460D1C141CFFF7E4FF06E06F1C61
:1016EC0029784046FFF722FF341C3D1C661E002C57
:1016FC00F5D14046FFF7DEFF04BC9046F0BDC04676
:10170C00F8B5041CFFF7E2FF00238326B600812105
:10171C00890000270FE02268505A451C5552E518E5
:10172C006D7912180132FF3215712268505AFF2858
:10173C0000D957520133A2599A42ECD882239B000C
:10174C002268D3580020984783239B00E058F8BDAB
:10175C0008B50C4B1868FA21890000F0BBF9013868
:10176C00094B98420DD8094B5860094A106A00027F
:10177C00000AC02109060143116200229A60072267
:10178C001A6008BD1C000020FFFFFF0010E000E005
:10179C0000ED00E00022014B1A6070476406002047
:1017AC00014B18687047C04664060020034B186054
:1017BC001A1C1368002BFCD17047C0466006002031
:1017CC00064B1B68002B03D0044B1A68013A1A60B5
:1017DC00034B1A6801321A607047C046600600203D
:1017EC006406002008B5FFF7EBFF08BD10B5012813
:1017FC000BD1064B994208D1054C201C0549FFF72B
:10180C0087FE0548211CFFF7DBFD10BDFFFF000024
:10181C00380100206806002014010020F0B547466E
:10182C0080B492B00023002102E002AAD15401330B
:10183C003F2BFADD5D20FFF747F9002801D0FFF7B9
:10184C0083F900F0C7F8FFF799FDFFF781FF3D48DA
:10185C00FFF7C4FD3C4C201C0821FEF7F1FE0A20CA
:10186C00FFF7A4FF201C0821FEF7BAFE0A20FFF7A1
:10187C009DFF201C0821FEF7E3FE0A20FFF796FFD0
:10188C00201C0821FEF7ACFE0A20FFF78FFF2F4823
:10189C00FEF750FF0320FEF761FF2D4B01930198DB
:1018AC00C00980B2FEF76AFFFEF77AFFFEF780FFF1
:1018BC00201C0821FEF794FE264C261C251C842394
:1018CC009B00E718B846201CFFF79CFE00282AD086
:1018DC0084239B00F25C1B4B1B7A9A4204D119485F
:1018EC004146FFF7C1FD1EE084239B00194AD25AE2
:1018FC00194B9A4210D102A9FF230B7001234B7094
:10190C001448164BC35C0133DBB28B700D4A137257
:10191C000322FFF7F5FE06E0C5239B00EA58281CBE
:10192C00391CFFF7EDFEFFF73BFF022804D9FFF748
:10193C0031FF0448FFF79AFD00F024F8FEF730FF62
:10194C00C1E7C046140100200004004855550000B2
:10195C00409C000038010020FF0100001202000032
:10196C0008B501200149FFF741FF08BDFFFF00004A
:10197C0008B500200149FFF739FF08BDFFFF000043
:10198C007047C04608B510488021FFF7C1FA0028FF
:10199C0019D00E4B812292009A5A0D495B5A9A42E9
:1019AC0011D05A1C92B2094909480A52CB1801337A
:1019BC00FF331979FF2A03D90020054B034AD05273
:1019CC000148FFF7D3F908BD003801406806002034
:1019DC0006020000F0B58BB02A4B002400278022B1
:1019EC0052009C52812252009C52812292009C52A5
:1019FC00254A9C52254982229200995080208002CF
:101A0C000121FEF7E9FF8020C0010121FFF70CF84E
:101A1C009025ED05281C09210122FEF741FE281C0A
:101A2C000A210122FEF73CFE02A9C023DB0002932F
:101A3C0003234B7102230B718F710126CE71281C6D
:101A4C00FEF740FDE1235B02049305940694079492
:101A5C0009940C2308930E4C201C04A9FFF77EF864
:101A6C00201C0C490122FFF7D1F901A81B2202709E
:101A7C0047708670FEF7A4FE201C0121FFF744F985
:101A8C000BB0F0BD68060020060200008D1900089E
:101A9C0000380140050105007047C04670B50A4882
:101AAC000A49FFF7A9FA00280CD0094C80256D00D3
:101ABC00665B0548FFF788F9A055635B0133FF228D
:101ACC001340635370BDC04600380140050105004A
:101ADC0068060020002934D00123002210B488426B
:101AEC002CD301242407A14204D2814202D2090141
:101AFC001B01F8E7E400A14204D2814202D2490062
:101B0C005B00F8E7884201D3401A1A434C08A04204
:101B1C0002D3001B5C0822438C08A04202D3001B9A
:101B2C009C082243CC08A04202D3001BDC082243B1
:101B3C00002803D01B0901D00909E3E7101C10BCD5
:101B4C007047002801D00020C04307B4024802A10E
:101B5C004018029003BDC046190000000029F0D0C7
:101B6C0003B5FFF7B9FF0EBC4243891A1847C046AC
:101B7C007047C046014B18687047C0468000002073
:101B8C0010B50023934203D0CC5CC4540133F9E765
:101B9C0010BD000030B5002940D004390B68002B73
:101BAC0000DAC9181E4A1368141C002B02D14B60B2
:101BBC00116033E099420FD208680A189A4205D195
:101BCC0013685268C01808604A6000E04B602160DE
:101BDC0024E08A4203D8131C5A68002AF9D11D68E4
:101BEC005C198C420BD1096869185818196090421D
:101BFC0014D114685268091919605A600EE08C42AD
:101C0C0002D90C23036009E008680C18944203D134
:101C1C0014685268001908604A60596030BDC046AB
:101C2C005806002070B50323CD1C9D430835061CB7
:101C3C000C2D01D20C2501E0002D3FDB8D423DD354
:101C4C00204B1C681A1C211C002913D00868431B4C
:101C5C000DD40B2B02D90B60CC181EE08C4202D198
:101C6C00636813601AE0486860600C1C16E00C1C7A
:101C7C004968E9E7144C2068002803D1301C00F0B7
:101C8C0025F82060301C291C00F020F8431C15D0CE
:101C9C00C41C03239C4384420AD12560201C0B30B6
:101CAC000722231D9043C31A0BD05A42E25008E07E
:101CBC00211A301C00F00AF80130EED10C233360ED
:101CCC00002070BD580600205406002038B5074C83
:101CDC000023051C081C2360FFF724FA431C03D1C6
:101CEC002368002B00D02B6038BDC0465C0600205A
:101CFC000023C25C0133002AFBD1581E7047000040
:101D0C00F0B58D6885B0071C0C1C03920193AB4297
:101D1C0045D390228B89D20013423DD062690326B1
:101D2C00564309692068F20F401A96190290021C5A
:101D3C000198013212187610964200D2161C381CEB
:101D4C005A050FD5311CFFF76DFF051E13D0029AF3
:101D5C002169FFF715FFA289184B1340802213430A
:101D6C00A38111E0321C00F003FB051E0CD1381CC2
:101D7C002169FFF70FFF0C233B60A389402213431B
:101D8C000120A381404217E0029B2561ED182560DC
:101D9C006661019DF61AA6600198A84200D2019DC9
:101DAC002A1C2068039900F0CAFAA2680020531B71
:101DBC00A36023685D19256005B0F0BD7FFBFFFFB4
:101DCC00F0B59FB0039005938B890E1C171C190658
:101DDC000FD53269002A0CD14021FFF723FF306068
:101DEC003061002803D103990C230B60C9E0402318
:101DFC00736106AD00236B6120236B763023AB76C9
:101E0C003C1C2378002B03D1E21B029211D003E07F
:101E1C00252BF9D00134F4E70398311C3A1C029BB2
:101E2C00FFF76EFF013000D1A6E06969029A8B18AA
:101E3C006B612378002B00D19EE0012252426A6034
:101E4C006A4600235B3201342B60EB60AB6013708D
:101E5C00AB654E4F2178381C052200F065FA00283E
:101E6C0007D0C71B2B680120B840184328600134E9
:101E7C00EFE72B68D90603D56A4620215B32117037
:101E8C001A0703D56A462B215B32117022782A2A55
:101E9C0001D0099B0EE0059A111D12680591002ACC
:101EAC0001DB099204E05242EA60022213432B60E8
:101EBC00013409E02278303A092A04D80A214B432C
:101ECC0001349B18F6E7099323782E2B18D16378ED
:101EDC002A2B09D1059B02341A1D1B680592002B75
:101EEC000DDA01235B420AE0013400232278303AF8
:101EFC00092A04D80A214B4301349B18F6E70793AF
:101F0C00234F2178381C032200F00EFA002806D04B
:101F1C00C71B2B684020B840184328600134217837
:101F2C001C480622671C297600F0FEF9002812D006
:101F3C00194B002B06D1059B07220733934308331B
:101F4C00059314E005AB00930398291C321C134B2A
:101F5C0000E000BF07E005AB00930398291C321C7E
:101F6C000E4B00F091F804900499013104D06A6989
:101F7C00049953186B6143E7B3895A0601D40B9843
:101F8C0001E0012040421FB0F0BDC046C225000850
:101F9C00C8250008CC250008000000000D1D000815
:101FAC00F7B5151C01930A698B68061C0C1C93422F
:101FBC0000DA131C221C2B6043321278002A01D049
:101FCC0001332B602068800602D52B6802332B600E
:101FDC00216806270F401FD0231C43331B785A1E41
:101FEC009341226892061FD5E11840313020C87009
:101FFC00211C5A1C45310978A21840320233D17089
:10200C0012E0221C301C019919320123089FB84799
:10201C00013011D0009F01370097E0682968009FBC
:10202C00431A9F42EDDBD7E7221C301C0199433247
:10203C00089FB847013002D10120404223E02068BC
:10204C0006212B68E26801400025042903D1D51A2A
:10205C00EB43DB171D40A26823699A4201DDD31ABA
:10206C00ED1800270097009FAF420BDA221C301CA2
:10207C0001991A320123089FB8470130DCD0009F28
:10208C000137EFE70020FEBDF0B50D1C8BB04335DA
:10209C0006920590079304950B7E0C1C109A6E2BE0
:1020AC0000D1A7E011D8632B22D009D8002B00D186
:1020BC00B0E0582B00D0C0E045310B707B4D4EE0AA
:1020CC00642B1CD0692B1AD0B7E0732B00D1A5E080
:1020DC0009D86F2B29D0702B00D0AEE00E682023CE
:1020EC0033430B6036E0752B1FD0782B32D0A4E035
:1020FC0013680D1C191D423511601B689FE0216887
:10210C0013680E0603D5191D11601E6805E04806FC
:10211C00F9D5191D116000215E5E644B002E3BDA6F
:10212C00049D2D2276422A7036E0216813680E0633
:10213C0003D5191D11601E6804E04806F9D5191D58
:10214C001E881160594B227E039308276F2A1ED0DC
:10215C000A271CE0231C78214533554D1970116852
:10216C002368081D039510601E0601D50E6802E059
:10217C005806FBD50E88D90702D5202213432360BD
:10218C001027002E03D1226820239A432260231C9F
:10219C00002243331A7001E003930A276368A3609B
:1021AC00002B03DB2568042295432560002E02D109
:1021BC00049D002B0ED0049D301C391CFFF7CEFC67
:1021CC000398013D435C301C2B70391CFFF782FCDB
:1021DC00061EF1D1082F09D12168C90706D56268FE
:1021EC0023699A4202DC013D30232B70049E731B41
:1021FC0023612AE0086813684969050604D5181D8F
:10220C0010601B68196005E04606F8D5181D1060B3
:10221C001B68198000232361049D16E01368191DA7
:10222C0011601D68281CFFF763FD636820619842EC
:10223C0000D923612069606004E0251C42352B70B5
:10224C0001232361049E00233370079E059800969A
:10225C00211C09AA069BFFF7A3FE013002D1012025
:10226C00404221E02A1C059806992369079DA8473E
:10227C000130F4D02668B60705D4099BE068984273
:10228C0012DA181C10E00025E0680999431A9D42E7
:10229C00F3DA221C0598069919320123079EB047E0
:1022AC000130DCD00135EFE70BB0F0BDD3250008D1
:1022BC00E425000830B5051C9BB0141E04DA8B23F2
:1022CC000360012040421DE082229200684600918A
:1022DC000491002182818C4200D0611E0122524265
:1022EC00029105916946CA81281C1A1C1E9BFFF796
:1022FC0067FD421C01DA8B232B60002C02D0009965
:10230C0000230B701BB030BD73B5141C054A061CA2
:10231C000D1C1068311C00932A1C231CFFF7CAFFEC
:10232C0076BDC04680000020C9B28218904204D00D
:10233C0003788B4202D00130F8E70020704770B56B
:10234C00814201D300230CE08C18A042FAD28518EC
:10235C00131C013B0BD351426618F65C6918CE5422
:10236C00F7E7934203D0CC5CC4540133F9E770BD5A
:10237C00F8B5061C0C1C151C002904D1111CFFF708
:10238C0051FC041C18E0002A03D1FFF703FC2C1CA1
:10239C0012E000F013F8A8420ED2301C291CFFF7F3
:1023AC0041FC071E07D0211C2A1CFFF7E9FB301C3F
:1023BC00211CFFF7EFFB3C1C201CF8BD04390B68FB
:1023CC00181F002B02DAC8581B18181F7047000082
:1023DC002E2E2F73797374656D2F7372632F737434
:1023EC006D333266302D7374647065726970682F4A
:1023FC0073746D3332663078785F6164632E63007A
:10240C002E2E2F73797374656D2F7372632F737403
:10241C006D333266302D7374647065726970682F19
:10242C0073746D3332663078785F6770696F2E63C2
:10243C00000000002E2E2F73797374656D2F73724C
:10244C00632F73746D333266302D737464706572E0
:10245C006970682F73746D3332663078785F697782
:10246C0064672E63000000002E2E2F737973746541
:10247C006D2F7372632F73746D333266302D7374DA
:10248C00647065726970682F73746D33326630785E
:10249C00785F6D6973632E63000000002E2E2F731E
:1024AC00797374656D2F7372632F73746D33326629
:1024BC00302D7374647065726970682F73746D332A
:1024CC0032663078785F7263632E63002E2E2F7322
:1024DC00797374656D2F7372632F73746D333266F9
:1024EC00302D7374647065726970682F73746D33FA
:1024FC0032663078785F75736172742E63000000F9
:10250C0061626F727428292C2065786974696E6712
:10251C002E2E2E002C2066756E6374696F6E3A2019
:10252C0000000000617373657274696F6E20222560
:10253C007322206661696C65643A2066696C65205B
:10254C00222573222C206C696E6520256425732549
:10255C00730A00006173736572745F706172616DF0
:10256C002829206661696C65643A2066696C65206F
:10257C00222573222C206C696E652025640A0000CC
:10258C000A0000006D61696E28617267633D256405
:10259C002C20617267763D5B000000002C2000004F
:1025AC0022257322000000005D293B0A0000000078
:1025BC00706F74004300232D302B2000686C4C008E
:1025CC006566674546470030313233343536373827
:1025DC003941424344454600303132333435363785
:0925EC0038396162636465660020
:1025F80078563412000000000102030401020304AB
:10260800060708099000002000000000006CDC02AA
:1026180000000000000000000000000000000000B2
:1026280000000000000000000000000000000000A2
:10263800C0250008000000000000000000000000A5
:102648000000000000000000000000000000000082
:102658000000000000000000000000000000000072
:102668000000000000000000000000000000000062
:08267800200000203254769886
:04000005080000C52A
:00000001FF
