:020000040800F2
:1000000000200020D5010008DD010008E101000802
:1000100000000000000000000000000000000000E0
:10002000000000000000000000000000E5010008E2
:100030000000000000000000E9010008952C000805
:10004000F1010008F1010008F1010008F1010008C8
:10005000F1010008F1010008F1010008F1010008B8
:10006000F1010008F1010008F1010008F1010008A8
:10007000F1010008F1010008F1010008F101000898
:10008000F1010008F101000800000000F101000882
:10009000F1010008F1010008F1010008F101000878
:1000A000F1010008F1010008F10100081132000817
:1000B0000D32000800000000F101000800000000FF
:1000C0005FF808F130B583B0314B324A1360324AE1
:1000D0001360324B3249002201E01A6004338B4234
:1000E000FBD32C4B1B68002B03D12B4B1B68002B25
:1000F00000D0FEE7264B2B4A13602B4A13602B4B94
:100100002B4A2C4903E010681860043304328B42F8
:10011000F9D3244B1A68284B9A4204D1224B1A680F
:100120001B689A4200D0FEE700F06EFF01A8694606
:1001300000F0F0FE214B224DED1AAD10002404E03A
:10014000A3001E4A9B5898470134A542F8DC1D4B7A
:100150001D4DED1AAD10002404E0A30019481B58F2
:1001600098470134A542F8DC0198009902F084FE1A
:10017000051C164B164CE41AA41004E0013CA30025
:10018000124A9B589847002CF8DC281C00F094FE7B
:10019000BABADECA8800002080090020880000204A
:1001A00084090020000000208400002000000020BE
:1001B000E83E00088800002078563412F401000858
:1001C000F4010008F4010008F8010008F801000833
:1001D000FC01000808B5FFF775FFC046FEE7C04602
:1001E000FEE7C046FEE7C046FEE7C046FEE7C04663
:0401F000FEE7C04620
:0801F400D5300008E5300008D9
:1001FC00F8B5051C0E1C9023DB05984212D03D4B24
:10020C0098420FD03C4B98420CD03C4B984209D0B2
:10021C003B4B984206D03B4B984203D03A48B42112
:10022C0000F07AFE3368002B03D13748B52100F07B
:10023C0073FE3379032B03D93348B62100F06CFEDF
:10024C00F379022B03D93048B72100F065FE002466
:10025C0001274BE03B1CA34032681A409A4244D120
:10026C003379013B012B28D87379012B05D9032B4A
:10027C0003D02548C72100F04FFEAA686300032174
:10028C0099408A43AA60AA68717999400B1C134360
:10029C00AB60B379012B03D91B48CE2100F03CFE97
:1002AC00AA8823041B0C391C99408A43AA80AA886B
:1002BC00B17999408BB21343AB8029686300032258
:1002CC00101C98408143296028683179994001437A
:1002DC002960E9682004C00B82409143E960EA6818
:1002EC00F17999400B1C1343EB6001340F2CB1D9FD
:1002FC00F8BDC0460004004800080048000C004847
:10030C0000100048001400484C3C000838B5041C90
:10031C000D1C9023DB05984213D0274B984210D02C
:10032C00264B98420DD0264B98420AD0254B98422A
:10033C0007D0254B984204D024489B21490000F05B
:10034C00EBFD6B1E9BB2012B30D9042D2ED0082D4A
:10035C002CD0102D2AD0202D28D0402D26D0802D09
:10036C0024D080235B009D4220D080239B009D42A3
:10037C001CD08023DB009D4218D080231B019D42A2
:10038C0014D080235B019D4210D080239B019D42A1
:10039C000CD08023DB019D4208D080231B029D42A0
:1003AC0004D00A483821FF3100F0B6FD208A054000
:1003BC00281C451EA84138BD000400480008004810
:1003CC00000C004800100048001400484C3C000889
:1003DC0038B5041C0D1C9023DB05984213D00E4B32
:1003EC00984210D00D4B98420DD00D4B98420AD02C
:1003FC000C4B984207D00C4B984204D00B48C821A8
:10040C00490000F089FD002D04D108489221FF31EC
:10041C0000F082FDA56138BD0004004800080048CA
:10042C00000C004800100048001400484C3C000828
:10043C0038B5041C0D1C9023DB05984213D00E4BD1
:10044C00984210D00D4B98420DD00D4B98420AD0CB
:10045C000C4B984207D00C4B984204D00B48A62169
:10046C00FF3100F059FD002D04D10848D32149007B
:10047C0000F052FD258538BD0004004800080048F6
:10048C00000C004800100048001400484C3C0008C8
:10049C0070B5041C0D1C161C9023DB05984212D061
:1004AC00174B98420FD0174B98420CD0164B9842D2
:1004BC0009D0164B984206D0154B984203D01548DC
:1004CC00154900F029FD0F2D03D91248134900F0EE
:1004DC0023FD072E03D90F48114900F01DFD0723FA
:1004EC002B409B009E40E908083189000A590F20D7
:1004FC00984082430A510B591E430E5170BDC046A1
:10050C000004004800080048000C00480010004897
:10051C00001400484C3C00080D0200000E020000C4
:10052C000F02000010B5041C054B984205D00028A2
:10053C0003D00448942100F0EFFC034B1C6010BD69
:10054C0055550000803C00080030004010B5041EDA
:10055C00062C03D90348A82100F0DEFC024B5C609A
:10056C0010BDC046803C00080030004010B5041C93
:10057C00044B984203D90448B52100F0CDFC034B41
:10058C009C6010BDFF0F0000803C00080030004054
:10059C00014A024B1A607047AAAA000000300040C2
:1005AC00014A024B1A607047CCCC0000003000406E
:1005BC0070B5041C8378012B03D91A48522100F022
:1005CC00ABFC6378032B03D91648532100F0A4FC31
:1005DC00A378002B1BD02578AA08134BC0329200AD
:1005EC00D65803210D40E900FF20051C8D40AE4379
:1005FC00351C6678B60130408840011C2943D15027
:10060C0022781F210A4001219140196008E02378CB
:10061C001F21194001238B40191C8023024AD15001
:10062C0070BDC046B43C000800E100E070B5041C8D
:10063C005E4B5B680C221340042B0CD002D8002BB1
:10064C0005D028E0082B0AD00C2B20D023E0584BE7
:10065C000360002022E0564B036000201EE0534B49
:10066C005D68AD025A682D0F0235C0235B021A4239
:10067C0002D15048684308E04C4BDB6A0F2119400B
:10068C0001314B4802F0F4FD6843206006E04A4B10
:10069C000360002002E0464B23600020434B5A6865
:1006AC001206120F454DA95CC9B22668321CCA400D
:1006BC00111C62605A685205520FAA5CD2B2D1402A
:1006CC000A1CA1601B6BD90502D43D4BE36008E00A
:1006DC00364B5B68590402D45308E36001E093087D
:1006EC00E360324B1B6B590602D4364B236102E09C
:1006FC0080231B0223612D4B1B6BD90602D42C4B80
:10070C00636100E06661294B1B6B990701D1A26103
:10071C0019E0264B1B6B03210B40012B01D1A66169
:10072C0011E0224B1B6B03210B40022B03D18023C6
:10073C001B02A36107E01D4B1B6B03210B40032B1A
:10074C0001D11B4BA361194B196BC0239B0219429E
:10075C0001D1E26120E0154B1B6BC02292021A40C2
:10076C0080235B029A4201D1E66115E00F4B1B6BB3
:10077C00C02292021A4080239B029A4203D180230A
:10078C001B02E36108E0094B1A6BC0239B021A4061
:10079C009A4201D1064BE361044B1B6B1A0602D43F
:1007AC00054B236200E0206270BDC0460010024081
:1007BC0000127A0000093D00006CDC0204000020ED
:1007CC00809FD5001280000038B5041C0D1C0D4B09
:1007DC00184201D1002803D10B480C4900F09CFBB6
:1007EC00012D03D908480A4900F096FB002D04D0CE
:1007FC00084B5A6914435C6103E0064B5A69A243E7
:10080C005A6138BDAAFF81FEE83C0008360500009D
:10081C00370500000010024038B5041C0D1C0D4BB0
:10082C00184201D1002803D10B480C4900F074FB8D
:10083C00012D03D908480A4900F06EFB002D04D0A5
:10084C00084B9A6914439C6103E0064B9A69A243D6
:10085C009A6138BDFEA5B8FFE83C00085A050000B7
:10086C005B0500000010024010B5041E012C20D0C6
:10087C0011281ED019281CD021281AD0412818D094
:10088C00592816D05A2814D05B2812D05C2810D0C6
:10089C005D280ED05E280CD05F280AD0612808D0C5
:1008AC00712806D0572804D00D48CA21C90000F081
:1008BC0033FB630902D10B4B1B680BE0012B02D1FC
:1008CC00084B1B6A06E0022B02D1064B5B6A01E067
:1008DC00044B5B6B1F200440E3400120184010BD0B
:1008EC00E83C000800100240034B596A8022520475
:1008FC000A435A627047C04600100240F0B54746A2
:10090C0080B48AB0041C0D1C5C4B98420CD05C4B20
:10091C00984209D05B4B984206D05B4B984203D06F
:10092C005A48DC2100F0F8FA2A68013A584B9A42EE
:10093C0003D95648DD2100F0EFFA6B68002B0AD082
:10094C0080225201934206D0524A934203D04F4820
:10095C00DE2100F0E1FAAB68002B0BD08022920173
:10096C00934207D0C0229201934203D04748DF2123
:10097C0000F0D2FAEB68002B0BD08022D20093420D
:10098C0007D0C022D200934203D04048E02100F0AF
:10099C00C3FA2B690C22191C914301D1002B03D1F2
:1009AC003A48E12100F0B8FA6B69002B0FD0802295
:1009BC00520093420BD080229200934207D0C02267
:1009CC009200934203D03148E22100F0A5FA23684B
:1009DC0001229343236062682F4B1340AA68134390
:1009EC00636022682D4B1A406B68E9680B432969D8
:1009FC000B4313432360A268294B13406A691343CA
:100A0C00A36001A8FFF712FE1C4B9C4201D1079F6B
:100A1C0005E01B4B9C4201D1089F00E0039F23681B
:100A2C0019040CD57F00B8462F684046391C02F0DB
:100A3C001FFC061C4046391C02F05EFC0AE02A68CA
:100A4C009046381C111C02F013FC061C381C414645
:100A5C0002F052FC2A685208002391425B41F618BE
:100A6C002368190404D533075B0F0E4A16401E4346
:100A7C00B6B2A6810AB004BC9046F0BD0038014065
:100A8C000044004000480040004C0040183D000865
:100A9C007F8D5B0000100010FFCFFFFFF3E9FFFF1D
:100AAC00FFFCFFFFF0FF000038B5041C0D1C124BBF
:100ABC0098420DD0114B98420AD0114B984207D056
:100ACC00104B984204D01048C821490000F024FA79
:100ADC00012D04D90C489221FF3100F01DFA002D94
:100AEC0004D0226801231343236003E0236801220E
:100AFC009343236038BDC046003801400044004099
:100B0C0000480040004C0040183D000838B5041C5B
:100B1C000D1C0D4B98420CD00C4B984209D00C4B31
:100B2C00984206D00B4B984203D00B480B4900F06F
:100B3C00F3F90B4B9D4203D907480A4900F0ECF935
:100B4C00ED05ED0D258538BD003801400044004011
:100B5C0000480040004C0040183D00089503000080
:100B6C00FF0100009603000010B5041C094B9842CD
:100B7C000CD0094B984209D0084B984206D0084B30
:100B8C00984203D00748084900F0C6F9A08CC0056C
:100B9C00C00D10BD0038014000440040004800402A
:100BAC00004C0040183D0008A603000070B5051C61
:100BBC000C1C161C2C4B98420CD02C4B984209D078
:100BCC002B4B984206D02B4B984203D02A482B49EA
:100BDC0000F0A2F984235B009C4225D0284B9C4258
:100BEC0022D0284B9C421FD0274B9C421CD0274B19
:100BFC009C4219D0264B9C4216D0264B9C4213D0BB
:100C0C00C0239B009C420FD0234B9C420CD0234B07
:100C1C009C4209D0224B9C4206D0224B9C4203D0D2
:100C2C001548214900F078F9012E03D912481F49C3
:100C3C0000F072F92B1CA2B2120AFF210C40012108
:100C4C00A1400C1C022A01D12B1D03E0032A01D167
:100C5C002B1C0833002E03D01A6814431C6002E0CE
:100C6C001A68A2431A6070BD00380140004400406D
:100C7C0000480040004C0040183D000805070000EB
:100C8C000701070006010600050105000401040028
:100C9C00060208000A0309001A010B001B010C00D4
:100CAC000E011100160314000607000007070000D0
:100CBC0038B5051C0C1C314B98420CD0304B98426B
:100CCC0009D0304B984206D02F4B984203D02F4876
:100CDC002F4900F021F9012C49D0802C47D0402C11
:100CEC0045D0202C43D0102C41D080235B009C425B
:100CFC003DD080239B009C4239D0082C37D0042C4B
:100D0C0035D0022C33D08023DB009C422FD08023A3
:100D1C001B019C422BD080235B019C4227D080235B
:100D2C00DB019C4223D080231B029C421FD08023DA
:100D3C005B029C421BD080239B029C4217D08023D9
:100D4C00DB029C4213D080231B039C420FD08023D8
:100D5C005B039C420BD080239B039C4207D08023D7
:100D6C00DB039C4203D009480A4900F0D5F8E86936
:100D7C000440201C441EA04138BDC0460038014030
:100D8C000044004000480040004C0040183D000862
:100D9C00930700009407000038B5051C0C1C2F4B62
:100DAC0098420CD02E4B984209D02E4B984206D02C
:100DBC002D4B984203D02D482D4900F0ADF88423DB
:100DCC005B009C422AD02B4B9C4227D02A4B9C4246
:100DDC0024D02A4B9C4221D0294B9C421ED0294B1B
:100DEC009C421BD0284B9C4218D0284B9C4215D0BF
:100DFC00274B9C4212D0274B9C420FD0264B9C4237
:100E0C000CD0264B9C4209D0254B9C4206D0254B3E
:100E1C009C4203D01548244900F07EF8A3B21B0A6B
:100E2C00FF222240012191400A1C012B02D129688A
:100E3C000A4006E0022B02D169680A4001E0A96869
:100E4C000A40240C0123A3401C1CEB691C4000200D
:100E5C00002A02D0201C441EA04138BD003801409D
:100E6C000044004000480040004C0040183D000881
:100E7C00E607000007010700060106000501050052
:100E8C0004010400060208000A0309000003030021
:100E9C0000030200000301001A010B001B010C00EF
:100EAC000E01110016031400E7070000FEE7C04610
:100EBC0008B5034800F054F80120FFF7F7FFC046CF
:100ECC004C3D000808B50D4B1B68002B02D10C4A99
:100EDC000A4B1A60094B1B68033003229043181805
:100EEC00084A904206D902F013FA0C230360012041
:100EFC00404202E0014A1060181C08BD8C00002022
:100F0C0084090020001C002001230360014B0B60AE
:100F1C007047C0461400002008B5031C0A1C034887
:100F2C00191C00F005F8FFF7C3FFC046A03D0008F0
:100F3C000FB400B583B004AB04CB019307488021F8
:100F4C0002F01AFE011E03DD044800F053F8011CE8
:100F5C00081C03B008BC04B01847C046940000201D
:100F6C0010B5041C02F0E6FA011C201C00F042F83B
:100F7C000248012100F03EF810BDC046CC3D0008EF
:100F8C00F0B55F4656464D464446F0B485B0041C59
:100F9C008A46435C0E1C002B1BD10425281C211CEB
:100FAC00ABBE041C1DE0351E102D00D95D4643461A
:100FBC0004E022786946CA5401330134AB42F8D3B9
:100FCC006F464246FA544846391CABBE071C761B8A
:100FDC0005E010239B460021884604229146002EF2
:100FEC00E1D1504605B03CBC90469946A246AB4672
:100FFC00F0BDC04608B5FFF7C3FF08BD08B500F04B
:10100C005BF808BD82B0002301930093274B19684D
:10101C00802252020A431A60191C80229202A020DC
:10102C00C0010B6813400093019B01330193009B9B
:10103C00002B02D1019B8342F3D11C4B1B689A03FA
:10104C0002D50123009301E000230093009B012BA8
:10105C002AD11122164B1A60144B5A685A605A68DE
:10106C005A605968134A0A405A60596888225203D8
:10107C000A435A601968802252040A431A60191CE8
:10108C00802292040B681342FCD0084B5A6803214F
:10109C008A435A60596802220A435A60191C0C226E
:1010AC004B681340082BFBD102B070470010024074
:1010BC0000200240FF7FC0FF08B5124B19680122C7
:1010CC0011431960586810490140596018680F495C
:1010DC000140196018680E490140196058680D49A3
:1010EC0001405960D96A0F208143D962186B0A49B3
:1010FC0001401963596B9143596300229A60FFF7C1
:10110C0081FF08BD001002400CB8FF08FFFFF6FE7F
:10111C00FFFFFBFFFFFFC0FFACFEFFFF70B5041C21
:10112C000E1C0023037073238360081C02F002FA68
:10113C000130606002F0F2F8051E02D10323237027
:10114C0003E0311C02F0EEF92561201C70BDC04695
:10115C00002303706923836004234360016170479B
:10116C00002303706923836004234360016170478B
:10117C00002303706623836004234360016170477E
:10118C0010B582B06B46009101920022027074225D
:10119C00826008224260021C103212CB12C202B0D2
:1011AC0010BDC0460021017008214160642181609E
:1011BC00026143617047C046F0B54F464646C0B425
:1011CC0083B0071C8946904600230370622383601A
:1011DC00101C04307860009201AD6C46033404237B
:1011EC0004E023782B70331C0135013C5E1E002B70
:1011FC00F7DC019C009400280DDD02F08FF8051E31
:10120C0002D103233B7008E010C04946424602F06D
:10121C0099F83D6101E000233B61381C03B00CBC24
:10122C0090469946F0BDC04610B5041C4368002B8F
:10123C000BDD8368732B03D1006902F079F804E0AD
:10124C00622B02D1006902F073F8201C10BDC0465D
:10125C00022303708160002343607047002382687F
:10126C00692A00D10369181C7047C04670B5431C2D
:10127C00012282560126212A01D1831C00267042AC
:10128C007041C0B214E001241C572D2C0AD10C78EB
:10129C0052B265B2AA4203DC02229A5695420DDD87
:1012AC00033305E052B200240C57A24208D001339C
:1012BC001A785D2A05D0002AE5D102E0301C00E046
:1012CC00301C70BD70B50E1C013013E0013400E011
:1012DC00041C23787D2B05D0002B03D02F2B01D0A1
:1012EC002C2BF3D1251A311C2A1C02F02AF90028C8
:1012FC0009D0601C03787D2B07D0002B07D02F2B37
:10130C00E6D1002004E0281C02E0002000E00020D0
:10131C0070BDC04608B5031C02785D2A12D050B2CD
:10132C005D2805DC01203F2A27D05B2A05D01EE072
:10133C007B2A0FD07D2A12D019E0181CFFF796FFDC
:10134C001BE0013B00229A565B2AFAD1181CFFF7CE
:10135C008DFF12E0181CFFF7B5FF0EE0013B0022D9
:10136C009A567B2AFAD1181CFFF7ACFF05E050B255
:10137C000023CB56C01A4242504108BD70B5041C24
:10138C000D1C0B782F2B01D0002B0ED123782F2B7B
:10139C002ED00120002B2ED000202A2B2BD16078B0
:1013AC002F2827D04342584125E006782A2E0BD10E
:1013BC000130FFF7E3FF031C0120002B1BD1691C3C
:1013CC00201CFFF7DBFF16E0FFF7A4FF002812D06C
:1013DC005B2E03D07B2E06D100E0013423785D2BED
:1013EC0001D07D2BF9D1601C691CFFF7C7FF02E00F
:1013FC00012000E0012070BDF0B557464E46454631
:10140C00E0B480460F1C0B7800200A1C002B01D185
:10141C0078E0013213782F2B04D0002BF9D14446FD
:10142C00002008E04446002005E05BB22A3B59420C
:10143C004B41C018013423782F2B01D0002BF4D151
:10144C00013C551E012815D002282BD054E0201C3D
:10145C00291CFFF75FFF002854D05D2E03D07D2E92
:10146C0006D100E0013C23785B2B01D07B2BF9D11A
:10147C00013C013D26782A2EE9D1012042E0201CB6
:10148C00291CFFF747FF00283CD05D2E03D07D2E92
:10149C0006D100E0013C23785B2B01D07B2BF9D1EA
:1014AC00013C013D26782A2EE9D10135A946013CA3
:1014BC00A2461DE0544601235B4299444E4612E07D
:1014CC00201C311CFFF726FF00280FD05D2D03D008
:1014DC007D2D06D100E0013C23785B2B01D07B2BCA
:1014EC00F9D1013C013E25782A2DE9D1444508D09B
:1014FC00B945DFD8002005E04046391CFFF73EFF18
:10150C0000E001201CBC90469946A246F0BDC046A6
:10151C00F0B557464E464546E0B480460F1C924601
:10152C00994601F0F5FF00280BD1404602F002F875
:10153C0052461060381C01F0FDFF4B46186003202A
:10154C0064E00023524613604A4613603D1C444637
:10155C0045E02A2E14D1201C291CFFF74DFF002832
:10156C0001D153E0013423782F2B03D0002BF9D178
:10157C0000E001352B782F2B31D0002BF9D12EE048
:10158C002A2B0ED100E0013426782F2E03D0002E0A
:10159C00F9D100E001352E782F2E20D0002EF9D174
:1015AC001DE0201C291CFFF7B5FE00282DD05B2E5A
:1015BC0008D100E001340023E3565D2BFAD101344D
:1015CC0001350CE07B2E08D100E001340023E356FA
:1015DC007D2BFAD101342D1801E0013401352B7823
:1015EC00002B02D02678002EB3D14246A31A5246C5
:1015FC001360EF1B4B461F602878434258412378F9
:10160C00002B03D10223184300E000201CBC9046A1
:10161C009946A246F0BDC04683688B4203DD436801
:10162C008900C85802E00423037300207047C046A9
:10163C0000B583B00068801801AA6B46FFF768FFFD
:10164C00033843425841C0B203B000BD38B5041C46
:10165C00151C1A1CFFF7ECFF0023002802D0201CDD
:10166C00A8470123181C38BD70B5051C0E1C00685A
:10167C0001F05EFE301C01F05DFF013001F04EFE0A
:10168C00041E04D103232B7300232B6003E0311CB5
:10169C0001F048FF2C6070BD70B5051C067B731EF5
:1016AC009E41F6B2002408E0281C211CFFF7B4FF71
:1016BC0003785A1E93411E430134AB68A342F3DCFA
:1016CC00301C70BD38B5041CFFF7A6FF051C201C90
:1016DC00FFF7E2FF021C0020002A02D1281CFFF7B2
:1016EC00BDFD38BD38B5041CFFF796FF051C201C4A
:1016FC00FFF7D2FF0023002800D12B7A58B238BD57
:10170C0070B5041C151CFFF787FF061C201CFFF787
:10171C00C3FF011C0020002904D1B3685B1B5D4290
:10172C006B41D8B270BDC04608B56922FFF7E8FF1F
:10173C0008BDC046F0B54F464646C0B485B0061C41
:10174C000C1C081C00F054FC301CFFF7A5FF0028F3
:10175C0000D0B6E03768381C01F0ECFE421C0325C3
:10176C008543201C391C00F059FC04E0201C00218E
:10177C0000F04CFC3D1C6F1E002DF7D1201C2C21C1
:10178C0000F044FC08E0301C291CFFF7ABFFC1B291
:10179C00201C00F03BFC0135B268AA42F3DC0323A9
:1017AC00934306D1042304E0201C002100F02EFCFE
:1017BC002B1C5D1E002BF7D100270322914604231E
:1017CC00984678E0301C391CFFF726FF051C83680F
:1017DC00732B01D0622B12D1201C29696A6800F08E
:1017EC001DFC6B685B424A46134004E0201C002140
:1017FC0000F00CFC2B1C5D1E002BF7D15AE0642B67
:10180C0011D1173002AA082304E0037813700B1CC3
:10181C0001320138591E002BF7DC201C02A90822CA
:10182C0000F0FCFB46E0742B2ED1011C103102A8F9
:10183C00082201F087FD01A96A460B32434604E0F9
:10184C0013780B70031C0131013A581E002BF7DC86
:10185C00019B0093201C6946424600F0DFFB01A966
:10186C006A460F32434604E013780B70031C0131B7
:10187C00013A581E002BF7DC019A0092201C694695
:10188C00424600F0CBFB15E0542B13D0462B11D065
:10189C00011C133102AA434604E00B781370031C9D
:1018AC0001320139581E002BF7DC6A68201C02A992
:1018BC0000F0B4FB0137B368BB4283DC201C00F0A2
:1018CC009DFB05B00CBC90469946F0BD70B5041C50
:1018DC00CEB2182001F0B8FC051C71B2FFF7B8FCB1
:1018EC002B78032B01D1237311E0A16801318900FE
:1018FC00606801F0CDFD002802D10323237306E0BC
:10190C006060A2689300C550A3680133A36070BDEA
:10191C0038B5041C0D1C8269002A08DD43695A1C69
:10192C0042610269D1548369013B836110E04169D2
:10193C001131006901F0ACFD2061002806D063690B
:10194C005A1C6261C5541023A36101E00323237365
:10195C0038BDC04610B5041C0069102101F098FD7B
:10196C002061002802D01023A36103E0032323731A
:10197C00002323610023636110BDC04638B5041CED
:10198C0000250560856005734560056145618561CD
:10199C00FFF7E0FF657338BD38B5041C0D1CFFF76D
:1019AC00EDFF201C291CFFF75FFE201C38BDC04634
:1019BC0010B5041CFFF7E2FF02232373201C10BD9B
:1019CC0070B5061C0023037300240BE0301C211C93
:1019DC00FFF722FE051E04D0FFF726FC281C01F0A1
:1019EC002DFC0134B368A342F0DC706801F0A0FC5C
:1019FC0000237360B3607373301CFFF7ABFF70BDD3
:101A0C0010B5041C006801F093FC201CFFF7D8FFF4
:101A1C00206901F08DFC201C10BDC04610B5041CC3
:101A2C002169FFF721FE00232373201CFFF792FF8F
:101A3C0010BDC046F0B5474680B48AB0071C0C1CDC
:101A4C0000265FE2381C311CFFF7E6FD0378022B01
:101A5C0000D056E28368623B122B00D956E29B0001
:101A6C00CB4AD3589F467A69042A00D04EE202A88A
:101A7C00396901F067FC04A96A460B32042304E0BF
:101A8C0013780B70031C0131013A581E002BF7DC44
:101A9C00049DBB689E421ADA381C311CFFF7BCFD52
:101AAC00041E04D0FFF7C0FB201C01F0C7FB18205C
:101ABC0001F0CAFB041C291CFFF74AFB2378032BFB
:101ACC0001D13B7326E0B6007B689C5122E09E421C
:101ADC001ED1182001F0B8FB041C291CFFF738FBA1
:101AEC002378032B01D13B7314E0B96801318900D1
:101AFC00786801F0CDFC002802D103233B7309E088
:101B0C007860BA689300C450BB680133BB6001E0D5
:101B1C0004233B73381CFFF71DFFF7E17B69042B93
:101B2C0000D0F3E102A83969042201F00BFC04A9EE
:101B3C006A460B32042304E013780B70031C01314A
:101B4C00013A581E002BF7DC049DBB689E421ADA42
:101B5C00381C311CFFF760FD041E04D0FFF764FB3A
:101B6C00201C01F06BFB182001F06EFB041C291CDF
:101B7C00FFF7FEFA2378032B01D13B7326E0B60066
:101B8C007A68945122E09E421ED1182001F05CFB31
:101B9C00041C291CFFF7ECFA2378032B01D13B73AF
:101BAC0014E0B96801318900786801F071FC0028F3
:101BBC0002D103233B7309E07860BA689300C450E8
:101BCC00BB680133BB6001E004233B73381CFFF797
:101BDC00C1FE9BE17B69082B00D097E102A8396913
:101BEC00082201F0AFFB04A96A460F32082304E077
:101BFC0013780B70031C0131013A581E002BF7DCD3
:101C0C00049C059DBB689E421EDA381C311CFFF7F4
:101C1C0003FD8046002804D0FFF706FB404601F088
:101C2C000DFB182001F010FB8046221C2B1CFFF72B
:101C3C00B9FA42461378032B01D13B7328E0B60066
:101C4C0042467B689A5123E09E421FD1182001F036
:101C5C00FBFA061C221C2B1CFFF7A4FA3378032B6F
:101C6C0001D13B7314E0B96801318900786801F047
:101C7C000FFC002802D103233B7309E07860BA689B
:101C8C009300C650BB680133BB6001E004233B7377
:101C9C00381CFFF75FFE39E17B69082B00D035E17A
:101CAC0068463969082201F04DFB04A96A460332E3
:101CBC00042304E013780B70031C0131013A581E05
:101CCC00002BF7DC049A009204A96A46073204231D
:101CDC0004E013780B70031C0131013A581E002BE1
:101CEC00F7DC049B019302A86946082201F02AFB49
:101CFC00BB689E4220DA381C311CFFF78DFC041E99
:101D0C0004D0FFF791FA201C01F098FA06A802A95A
:101D1C00082201F017FB182001F096FA041C069912
:101D2C00079AFFF72DFA2378032B01D13B7333E08D
:101D3C00B6007A6894512FE09E422BD104A802A9D8
:101D4C00082201F0FFFA08A804A9082201F0FAFA07
:101D5C00182001F079FA041C0899099AFFF710FA77
:101D6C002378032B01D13B7316E0B968013189004C
:101D7C00786801F08DFB002802D103233B730BE044
:101D8C007860BA689300C450BB680133BB6003E051
:101D9C00FC3D000804233B73381CFFF7DBFDB5E06A
:101DAC00002C00D0B2E03D69BB689E421ADA381CA8
:101DBC00311CFFF731FC041E04D0FFF735FA201C50
:101DCC0001F03CFA182001F03FFA041C291CFFF723
:101DDC00A5F92378032B01D13B7326E0B6007B6871
:101DEC009C5122E09E421ED1182001F02DFA041CB9
:101DFC00291CFFF793F92378032B01D13B7314E0D3
:101E0C00B96801318900786801F042FB002802D1E1
:101E1C0003233B7309E07860BA689300C450BB6835
:101E2C000133BB6001E004233B73381CFFF792FDC8
:101E3C0006237B736AE07D69042D67DD3B69984658
:101E4C0002A8191C042201F07DFA04A86A460B3280
:101E5C00042304E013780370231C0130013A5C1E48
:101E6C00002BF7DC049C231D9D424FD1042290448F
:101E7C00BB689E421BDA381C311CFFF7CDFB051EDC
:101E8C0004D0FFF7D1F9281C01F0D8F9182001F083
:101E9C00DBF9051C4146221CFFF78EF92B78032B2E
:101EAC0001D13B7327E0B6007B689D5123E09E4235
:101EBC001FD1182001F0C8F9051C4146221CFFF760
:101ECC007BF92B78032B01D13B7314E0B9680131FA
:101EDC008900786801F0DCFA002802D103233B73F7
:101EEC0009E07860BA689300C550BB680133BB60E9
:101EFC0001E004233B73381CFFF72CFD06237B7396
:101F0C0004E00136BB68B34200DD9BE50AB004BCBB
:101F1C009046F0BD38B5041C0D1CFFF7F9FC637B33
:101F2C00062B53D89B002A4AD3589F462F2D4DD1B0
:101F3C00012363734AE0002D48D1201CFFF76EFD8E
:101F4C000223637342E02C2D40D103236373201CC6
:101F5C00FFF700FD3AE0002D04D0201C291CFFF7F0
:101F6C00B5FC01E004236373A2680323934300D1FF
:101F7C0004239B186169994228D1201CFFF7EAFCC5
:101F8C000523637322E0201C291CFFF753FD1DE081
:101F9C00A568013D18E0201C291CFFF73DFB0378C8
:101FAC00002B10D143685B420322134002D105235E
:101FBC0063730BE062699A4208D1201CFFF7CAFCDC
:101FCC000523637302E0013D002DE4DA38BDC04601
:101FDC00483E000870B5061C06E04D1C0978301C04
:101FEC00FFF798FF221C291C541E002AF5D170BD46
:101FFC00002280235B00C2547047C04680235B00E4
:10200C00C25C0223FF33C2547047C04680235B007E
:10201C00C25C81540132C2547047C04670B5061C74
:10202C0006E04D1C0978301CFFF7F0FF221C291C20
:10203C00541E002AF5D170BD10B582B080208002EC
:10204C000121FEF7C1FB8020C0020121FEF7BCFB81
:10205C0008230093012369460B7100238B71032223
:10206C004A71CB71044C201CFEF7C2F8201C0821CD
:10207C00FEF7AEF902B010BD0004004801604260EA
:10208C000A4B83600023C360272283542622835487
:10209C0025228354242283542322835422228354C2
:1020AC0021228354202283547047C046643E00088A
:1020BC00F0B5474680B482B08025AD02281C0121C2
:1020CC00FEF782FB0F23009300266A461671012748
:1020DC00D7719024E405201C6946FEF789F8281C6A
:1020EC000121FEF771FB8020C0020121FEF76CFB81
:1020FC00332300936B461F719E71032290465A71D5
:10210C00DE71244D281C6946FEF772F8224B0093B1
:10211C006B461F719E7142465A71DE71201C6946D6
:10212C00FEF766F8281C0121FEF752F9201C8021CD
:10213C00FEF74EF9201C4021FEF74AF9201C102115
:10214C00FEF746F9201C2021FEF742F9201C8021C5
:10215C004900FEF73DF9201C80210901FEF738F9F2
:10216C00201C80214901FEF733F9201C8021090233
:10217C00FEF72EF9281C0221FEF72AF9281C102143
:10218C00FEF726F9281C2021FEF722F902B004BC28
:10219C009046F0BD00040048F099000070B50C1C8E
:1021AC00081C0021FFF7C0FA0023002806D0201CD1
:1021BC000121FFF7B9FA031C581E8341002B00D1F3
:1021CC0034E2201C0021FFF77DFA051C201C0121A4
:1021DC00FFF778FAC3175B0FC01807240440E41A02
:1021EC00012D7FD1002C0DD1E2480121FEF7F0F832
:1021FC009026F605301C8021FEF7EAF8301C4021B1
:10220C00FEF7E6F8012C0DD1DA480121FEF7E0F8D3
:10221C009026F605301C8021FEF7DAF8301C4021A0
:10222C00FEF706F9022C0DD1D2480121FEF7D0F8A9
:10223C009026F605301C8021FEF7FAF8301C402160
:10224C00FEF7C6F8032C0DD1CA480121FEF7C0F8E1
:10225C009026F605301C8021FEF7EAF8301C402150
:10226C00FEF7E6F8042C0DD1C2480121FEF7E0F888
:10227C009026F605301C8021FEF7AAF8301C402170
:10228C00FEF7A6F8052C0DD1BA480121FEF7D0F8BF
:10229C009026F605301C8021FEF79AF8301C402160
:1022AC00FEF7C6F8062C0DD1B2480121FEF7C0F896
:1022BC009026F605301C8021FEF7BAF8301C402120
:1022CC00FEF786F8072C0DD1AA480121FEF7B0F8CD
:1022DC009026F605301C8021FEF7AAF8301C402110
:1022EC00FEF7A6F8022D00D087E0002C0ED1902628
:1022FC00F605301C1021FEF76BF8301C2021FEF780
:10230C0067F8301C80214900FEF762F8012C0ED1D1
:10231C009026F605301C1021FEF75AF8301C2021AF
:10232C00FEF756F8301C80214900FEF781F8022C8C
:10233C000ED19026F605301C1021FEF749F8301C02
:10234C002021FEF775F8301C80214900FEF740F87B
:10235C00032C0ED19026F605301C1021FEF738F810
:10236C00301C2021FEF764F8301C80214900FEF758
:10237C005FF8042C0ED19026F605301C1021FEF7C8
:10238C0057F8301C2021FEF723F8301C802149001F
:10239C00FEF71EF8052C0ED19026F605301C1021E8
:1023AC00FEF746F8301C2021FEF712F8301C802175
:1023BC004900FEF73DF8062C0ED19026F605301C90
:1023CC001021FEF735F8301C2021FEF731F8301CB7
:1023DC0080214900FDF7FCFF072C0ED19026F60555
:1023EC00301C1021FEF724F8301C2021FEF720F8B9
:1023FC00301C80214900FEF71BF8032D00D097E01C
:10240C00002C10D19026F605301C80210901FDF717
:10241C00DFFF301C80214901FDF7DAFF301C8021E1
:10242C000902FDF7D5FF012C10D19026F605301CC2
:10243C0080210901FDF7CCFF301C80214901FDF7FB
:10244C00C7FF301C80210902FDF7F2FF022C10D1CE
:10245C009026F605301C80210901FDF7B9FF301CD0
:10246C0080214901FDF7E4FF301C80210902FDF7B2
:10247C00AFFF032C10D19026F605301C80210901EA
:10248C00FDF7A6FF301C80214901FDF7D1FF301C60
:10249C0080210902FDF7CCFF042C10D19026F60503
:1024AC00301C80210901FDF7C3FF301C802149013C
:1024BC00FDF78EFF301C80210902FDF789FF052CEA
:1024CC0010D19026F605301C80210901FDF7B0FFD4
:1024DC00301C80214901FDF77BFF301C8021090253
:1024EC00FDF7A6FF062C10D19026F605301C802196
:1024FC000901FDF79DFF301C80214901FDF798FF74
:10250C00301C80210902FDF763FF072C10D19026A7
:10251C00F605301C80210901FDF78AFF301C802153
:10252C004901FDF785FF301C80210902FDF780FF72
:10253C00042D7BD1002C0CD10E4D281C0221FDF753
:10254C0047FF281C1021FDF743FF281C2021FDF715
:10255C003FFF012C10D1074D281C0221FDF738FF3D
:10256C00281C1021FDF734FF281C2021FDF760FFEB
:10257C0002E0C04600040048022C0CD12C4D281C53
:10258C000221FDF725FF281C1021FDF751FF281C07
:10259C002021FDF71DFF032C0CD1254D281C0221F9
:1025AC00FDF716FF281C1021FDF742FF281C2021E7
:1025BC00FDF73EFF042C0CD11D4D281C0221FDF70C
:1025CC0037FF281C1021FDF703FF281C2021FDF7E5
:1025DC00FFFE052C0CD1164D281C0221FDF728FFFF
:1025EC00281C1021FDF7F4FE281C2021FDF720FFEC
:1025FC00062C0CD10E4D281C0221FDF719FF281CAE
:10260C001021FDF715FF281C2021FDF7E1FE072CFA
:10261C000CD1074C201C0221FDF70AFF201C1021B5
:10262C00FDF706FF201C2021FDF702FF70BDC04600
:10263C000004004870B588B0041C9020C00502212D
:10264C00FDF764FE43425841C0B22023E0542123DD
:10265C00E35C98425FD02123E054251C1035281CE4
:10266C00D349A268E36800F031FF01A8291CFFF7E9
:10267C0093F9182000F0E8FD051C0121FEF768FD18
:10268C002B78032B03D1032201AB1A7312E00298AF
:10269C0003990131890000F0FBFE002803D10322CD
:1026AC0001AB1A7306E00290039A9300C550039B8A
:1026BC00013303932023E65C182000F0C5FD051CB4
:1026CC00311CFEF74DFD2B78032B03D1032201ABFC
:1026DC001A7312E0029803990131890000F0D8FEB8
:1026EC00002803D1032201AB1A7306E00290039A6F
:1026FC009300C550039B0133039301A82168FFF796
:10270C0019F821680223FF33CA5C606800F04AFAAA
:10271C0001A8FFF775F99020C0050121FDF7F6FD22
:10272C0043425841C0B22223E0542323E35C984235
:10273C005FD02323E054251C1035281C9C49A2682B
:10274C00E36800F0C3FE01A8291CFFF725F9182047
:10275C0000F07AFD051C0221FEF7FAFC2B78032B06
:10276C0003D1032201AB1A7312E0029803990131D1
:10277C00890000F08DFE002803D1032201AB1A73EF
:10278C0006E00290039A9300C550039B0133039318
:10279C002223E65C182000F057FD051C311CFEF7C7
:1027AC00DFFC2B78032B03D1032201AB1A7312E04D
:1027BC00029803990131890000F06AFE002803D1C8
:1027CC00032201AB1A7306E00290039A9300C550E2
:1027DC00039B0133039301A82168FEF7ABFF21682B
:1027EC000223FF33CA5C606800F0DCF901A8FFF734
:1027FC0007F99020C0050421FDF788FD434258419C
:10280C00C0B22423E0542523E35C98425FD02523F7
:10281C00E054251C1035281C6549A268E36800F0BB
:10282C0055FE01A8291CFFF7B7F8182000F00CFD85
:10283C00051C0321FEF78CFC2B78032B03D1032200
:10284C0001AB1A7312E0029803990131890000F070
:10285C001FFE002803D1032201AB1A7306E002907D
:10286C00039A9300C550039B013303932423E65C26
:10287C00182000F0E9FC051C311CFEF771FC2B78CC
:10288C00032B03D1032201AB1A7312E002980399B4
:10289C000131890000F0FCFD002803D1032201ABBB
:1028AC001A7306E00290039A9300C550039B013300
:1028BC00039301A82168FEF73DFF21680223FF3333
:1028CC00CA5C606800F06EF901A8FFF799F89020D7
:1028DC00C0050821FDF71AFD43425841C0B226231A
:1028EC00E0542723E35C98425FD02723E054251C57
:1028FC001035281C2E49A268E36800F0E7FD01A8FA
:10290C00291CFFF749F8182000F09EFC051C042137
:10291C00FEF71EFC2B78032B03D1032201AB1A7399
:10292C0012E0029803990131890000F0B1FD0028F2
:10293C0003D1032201AB1A7306E00290039A9300B1
:10294C00C550039B013303932623E65C182000F04B
:10295C007BFC051C311CFEF703FC2B78032B03D1ED
:10296C00032201AB1A7312E002980399013189001A
:10297C0000F08EFD002803D1032201AB1A7306E090
:10298C000290039A9300C550039B0133039301A853
:10299C002168FEF7CFFE606821680223FF33CA5C12
:1029AC0000F000F901A8FFF72BF808B070BDC04685
:1029BC006C3E0008012303710023A322D200835034
:1029CC00822292008350C42292008350016070478F
:1029DC0010B5C0290CD18221890043585A1CC31848
:1029EC00DB245C71531C43508018DC23437115E0CD
:1029FC00DB290CD18221890043585A1CC318DB24D3
:102A0C005C71531C43508018DD23437106E0822215
:102A1C00920083585C1C8450C018417110BDC04694
:102A2C00F0B5474680B40024C4239B00C450002357
:102A3C00C426B600DB24A446C025A84629E0CC1841
:102A4C002578DB2D1BD15C1C0C192578DC2D08D1CD
:102A5C0085596F1C875145198427BF00ED194746CE
:102A6C002F702478DD2C08D18459651C85510419EC
:102A7C008425AD00641967462770023309E0855937
:102A8C006F1C8751247845198427BF00ED192C70D1
:102A9C0001339342D3DBC4239B00C258C5239B0054
:102AAC00C25004BC9046F0BDF8B54F464646C0B483
:102ABC008121490080256D00FF26A327FF000223FA
:102ACC00984601239C46C6239B00994631E0541C32
:102ADC005C529C5C03685A5A32405A520379012B5F
:102AEC000BD1C02C02D16346037122E06346C35163
:102AFC004B46C454434603711BE0022B19D1C259F7
:102B0C00FF2A02D96346037113E0C02C08D10123BC
:102B1C000371C6239B00C118FFF782FF01200EE052
:102B2C00531CC3518218C6239B00D2181470434601
:102B3C00037103685A5A5C5BA242C8D100200CBCDA
:102B4C0090469946F8BDC046012282239B00C25094
:102B5C00C02343717047C046822189004258531CE0
:102B6C0043508218C02151718322920083507047C8
:102B7C00F0B5474680B480460D1C141CFFF7E4FFEB
:102B8C0006E06F1C29784046FFF722FF341C3D1CE1
:102B9C00661E002CF5D14046FFF7DEFF04BC9046C4
:102BAC00F0BDC046F8B5041CFFF7E2FF00238326F6
:102BBC00B6008121890000270FE02268505A451C7D
:102BCC005552E5186D7912180132FF3215712268D1
:102BDC00505AFF2800D957520133A2599A42ECD8C7
:102BEC0082239B002268D3580020984783239B00A4
:102BFC00E058F8BD08B50C4B1868FA21890000F0B4
:102C0C0037FB0138094B98420DD8094B5860094ADB
:102C1C00106A0002000AC021090601431162002259
:102C2C009A6007221A6008BD1C000020FFFFFF00FD
:102C3C0010E000E000ED00E00022014B1A6070474C
:102C4C0070070020014B18687047C04670070020C1
:102C5C00034B18601A1C1368002BFCD17047C0463C
:102C6C006C070020064B1B68002B03D0044B1A6822
:102C7C00013A1A60034B1A6801321A607047C04659
:102C8C006C0700207007002008B5FFF7EBFF08BDAC
:102C9C00024BDA680132DA607047C0461802002035
:102CAC0008B503480123C360FFF702FA08BDC0460C
:102CBC001802002010B588B00D4CA2681034201CEE
:102CCC000C4900F003FC01A8211CFEF765FE0A4C20
:102CDC0001A8211CFEF72EFD0223FF33E25C0748FE
:102CEC00211CFFF75FFF01A8FEF78AFE08B010BD9C
:102CFC0018020020783E0008140100204002002039
:102D0C0008B5011C0148FFF749FA08BD180200205C
:102D1C0010B501280CD1074B994209D1064C201C47
:102D2C000649FFF747FE06480649221CFFF7A6F99D
:102D3C0010BDC046FFFF00004002002074070020B9
:102D4C00180200201401002010B588B03148082169
:102D5C00FDF76EFB01A83049FEF71EFE182000F0AF
:102D6C0073FA041C7B21FEF7FBF92378032B03D1A8
:102D7C00032201AB1A7312E0029803990131890006
:102D8C0000F086FB002803D1032201AB1A7306E086
:102D9C000290039A9300C450039B013303931820B1
:102DAC0000F052FA041CE4214900FEF7D9F923780B
:102DBC00032B03D1032201AB1A7312E0029803997F
:102DCC000131890000F064FB002803D1032201AB20
:102DDC001A7306E00290039A9300C450039B0133CC
:102DEC0003930E4C01A8211CFEF7A4FC0223FF3315
:102DFC00E25C0B48211CFFF7D5FE01A8FEF7E0FDB5
:102E0C0004480821FDF7E4FA01A8FEF7F9FD08B023
:102E1C0010BDC046000400487C3E00081401002090
:102E2C004002002070B5041C0E1C182000F00CFA97
:102E3C00051C311CFEF794F92B78032B01D123735D
:102E4C0011E0A16801318900606800F021FB0028C5
:102E5C0002D10323237306E06060A2689300C5507F
:102E6C00A3680133A360201C70BDC046F0B54F466B
:102E7C004646C0B491B05D20FDF7F6FC0025002855
:102E8C0002D0FDF731FD012500F058F9FFF7D4F819
:102E9C00FFF7B0FE7A48FFF70BF902A8FEF788FDA2
:102EAC0009A87849FEF778FD774C201C0821FDF71E
:102EBC00BFFA0A20FFF7CCFE201C0821FDF788FA88
:102ECC000A20FFF7C5FE201C0821FDF7B1FA0A20E5
:102EDC00FFF7BEFE201C0821FDF77AFA0A20FFF747
:102EEC00B7FE09A8291CFFF79DFF684C09A8211CF7
:102EFC00FEF720FC0223FF33E25C6548211CFFF740
:102F0C0051FEFFF799FEF424FF3401E000F0EEF8D7
:102F1C00FFF798FEA042F9D9FFF78EFE5D48FDF74A
:102F2C0001FB0320FDF712FB5B4B01930198C009D9
:102F3C0080B2FDF71BFBFDF72BFBFDF731FB544D6E
:102F4C002C1C842189006E18281CFFF7ADFD00286D
:102F5C0037D0C5239B00E25802A8311CFFF73AF882
:102F6C0002A8FEF799FB002828D102A84B490022A1
:102F7C00FEF75EFB00281DD0444C02A8211CFEF776
:102F8C00D9FB0223FF33E25C4148211CFFF70AFE08
:102F9C0002A8FEF715FD3C480821FDF719FA3C4C38
:102FAC00A046842189008946C144384F344E351CD3
:102FBC00103509E002A8FEF703FD02E002A8FEF7B7
:102FCC00FFFCFDF7E5FABFE7201CFFF76DFD0028BD
:102FDC0047D0C5239B004146CA5802A84946FEF774
:102FEC00F9FF02A8FEF758FB002837D102A8391CBC
:102FFC00FEF7A0FB0223FF33FA5C2548391CFFF7D0
:10300C00D1FD281C2649B268F36800F05FFA02A8CB
:10301C00291C244A0023FEF719FB281C2249B268FC
:10302C0000F054FA02A8291C204A0023FEF70EFBDC
:10303C0002A81F491F4A0023FEF708FB02A81E49DD
:10304C001E4A0023FEF702FB02A81D491D4A00235D
:10305C00FEF7FCFA02A8FEF7B3FC02E002A8FEF7AA
:10306C00AFFCFFF7EFFD022804D9FFF7E5FD04489C
:10307C00FFF7E0FA00F03AF8FDF78AFAA4E7C04649
:10308C0018020020843E00080004004814010020AF
:10309C004002002055550000409C0000883E00086E
:1030AC00903E00080D2D0008783E00089D2C00086D
:1030BC00983E0008C12C0008A43E0008AD2C000866
:1030CC007C3E0008552D000808B501200149FFF78A
:1030DC001FFE08BDFFFF000008B500200149FFF7E7
:1030EC0017FE08BDFFFF00007047C04608B510482A
:1030FC008021FDF7DDFD002819D00E4B81229200B6
:10310C009A5A0D495B5A9A4211D05A1C92B20949EB
:10311C0009480A52CB180133FF331979FF2A03D916
:10312C000020054B034AD0520148FDF7EFFC08BDC7
:10313C00003801407407002006020000F0B58BB087
:10314C002A4B00240027802252009C5281225200DC
:10315C009C52812292009C52254A9C5225498222E3
:10316C0092009950802080020121FDF72DFB8020D8
:10317C00C0010121FDF750FB9025ED05281C09210C
:10318C000122FDF785F9281C0A210122FDF780F99F
:10319C0002A9C023DB00029303234B7102230B71A2
:1031AC008F710126CE71281CFDF722F8E1235B02FA
:1031BC00049305940694079409940C2308930E4CDD
:1031CC00201C04A9FDF79AFB201C0C490122FDF7D9
:1031DC00EDFC01A81B22027047708670FDF7E8F920
:1031EC00201C0121FDF760FC0BB0F0BD7407002022
:1031FC0006020000F530000800380140050105000A
:10320C007047C04670B50A480A49FDF7C5FD00284D
:10321C000CD0094C80256D00665B0548FDF7A4FCBD
:10322C00A055635B0133FF221340635370BDC0464E
:10323C0000380140050105007407002008B500287E
:10324C0001D000F075F808BD10B5041E02D10124A0
:10325C0000E09847201C00F061F8002805D1034BD2
:10326C001B68002BF5D1FDF723FE10BD5C07002079
:10327C00002934D00123002210B488422CD301241D
:10328C002407A14204D2814202D209011B01F8E7B2
:10329C00E400A14204D2814202D249005B00F8E76B
:1032AC00884201D3401A1A434C08A04202D3001B97
:1032BC005C0822438C08A04202D3001B9C082243CA
:1032CC00CC08A04202D3001BDC082243002803D008
:1032DC001B0901D00909E3E7101C10BC704700283A
:1032EC0001D00020C04307B4024802A1401802904C
:1032FC0003BDC046190000000029F0D003B5FFF74C
:10330C00B9FF0EBC4243891A1847C0467047C046E5
:10331C00014B18687047C0468000002008B5034B6D
:10332C00011C186800F060F808BDC0468000002041
:10333C0008B5034B011C186800F00EF808BDC04618
:10334C008000002010B50023934203D0CC5CC45401
:10335C000133F9E710BD000030B5002940D0043925
:10336C000B68002B00DAC9181E4A1368141C002BBA
:10337C0002D14B60116033E099420FD208680A18F1
:10338C009A4205D113685268C01808604A6000E080
:10339C004B60216024E08A4203D8131C5A68002A2F
:1033AC00F9D11D685C198C420BD109686918581841
:1033BC001960904214D114685268091919605A6046
:1033CC000EE08C4202D90C23036009E008680C184B
:1033DC00944203D114685268001908604A6059601D
:1033EC0030BDC0466407002070B50323CD1C9D433F
:1033FC000835061C0C2D01D20C2501E0002D3FDBFD
:10340C008D423DD3204B1C681A1C211C002913D063
:10341C000868431B0DD40B2B02D90B60CC181EE093
:10342C008C4202D1636813601AE0486860600C1C1F
:10343C0016E00C1C4968E9E7144C2068002803D1FD
:10344C00301C00F031F82060301C291C00F02CF8E6
:10345C00431C15D0C41C03239C4384420AD1256011
:10346C00201C0B300722231D9043C31A0BD05A4249
:10347C00E25008E0211A301C00F016F80130EED1B1
:10348C000C233360002070BD64070020600700200F
:10349C0008B50A1C0349031C0868191C00F0A0FBA2
:1034AC0008BDC0468000002038B5074C0023051C21
:1034BC00081C2360FDF706FD431C03D12368002B79
:1034CC0000D02B6038BDC046680700200EB400B594
:1034DC009CB01DAB04CB822202A992008A810A4ABD
:1034EC0002908A604A6101225242CA81074A0861ED
:1034FC0010681D9A019300F09BF8029A0023137038
:10350C001CB008BC03B01847FFFFFF7F80000020F1
:10351C0002780B7801300131002A01D09A42F7D0A1
:10352C00D01A7047031C0A7801311A700133002A33
:10353C00F9D170470023C25C0133002AFBD1581E1D
:10354C007047031C002010B582420FD01C780878FD
:10355C00A04201D1012A03D118780B78C01A05E0DA
:10356C00013A0028F8D001330131EFE710BD00001B
:10357C00F0B58D6885B0071C0C1C03920193AB420F
:10358C0045D390228B89D20013423DD06269032629
:10359C00564309692068F20F401A96190290021CD2
:1035AC000198013212187610964200D2161C381C63
:1035BC005A050FD5311CFFF717FF051E13D0029AC1
:1035CC002169FFF7BFFEA289184B134080221343D9
:1035DC00A38111E0321C00F003FB051E0CD1381C3A
:1035EC002169FFF7B9FE0C233B60A38940221343EA
:1035FC000120A381404217E0029B2561ED18256054
:10360C006661019DF61AA6600198A84200D2019D40
:10361C002A1C2068039900F0CAFAA2680020531BE8
:10362C00A36023685D19256005B0F0BD7FFBFFFF2B
:10363C00F0B59FB0039005938B890E1C171C1906CF
:10364C000FD53269002A0CD14021FFF7CDFE306036
:10365C003061002803D103990C230B60C9E040238F
:10366C00736106AD00236B6120236B763023AB7640
:10367C003C1C2378002B03D1E21B029211D003E0F7
:10368C00252BF9D00134F4E70398311C3A1C029B2A
:10369C00FFF76EFF013000D1A6E06969029A8B1822
:1036AC006B612378002B00D19EE0012252426A60AC
:1036BC006A4600235B3201342B60EB60AB60137005
:1036CC00AB654E4F2178381C052200F065FA0028B6
:1036DC0007D0C71B2B680120B84018432860013461
:1036EC00EFE72B68D90603D56A4620215B321170AF
:1036FC001A0703D56A462B215B32117022782A2ACD
:10370C0001D0099B0EE0059A111D12680591002A43
:10371C0001DB099204E05242EA60022213432B605F
:10372C00013409E02278303A092A04D80A214B43A3
:10373C0001349B18F6E7099323782E2B18D1637864
:10374C002A2B09D1059B02341A1D1B680592002BEC
:10375C000DDA01235B420AE0013400232278303A6F
:10376C00092A04D80A214B4301349B18F6E7079326
:10377C00234F2178381C032200F00EFA002806D0C3
:10378C00C71B2B684020B8401843286001342178AF
:10379C001C480622671C297600F0FEF9002812D07E
:1037AC00194B002B06D1059B072207339343083393
:1037BC00059314E005AB00930398291C321C134BA2
:1037CC0000E000BF07E005AB00930398291C321CF6
:1037DC000E4B00F091F804900499013104D06A6901
:1037EC00049953186B6143E7B3895A0601D40B98BB
:1037FC0001E0012040421FB0F0BDC046B23E0008BF
:10380C00B83E0008BC3E0008000000007D350008F2
:10381C00F7B5151C01930A698B68061C0C1C9342A6
:10382C0000DA131C221C2B6043321278002A01D0C0
:10383C0001332B602068800602D52B6802332B6085
:10384C00216806270F401FD0231C43331B785A1EB8
:10385C009341226892061FD5E11840313020C87080
:10386C00211C5A1C45310978A21840320233D17000
:10387C0012E0221C301C019919320123089FB84711
:10388C00013011D0009F01370097E0682968009F34
:10389C00431A9F42EDDBD7E7221C301C01994332BF
:1038AC00089FB847013002D10120404223E0206834
:1038BC0006212B68E26801400025042903D1D51AA2
:1038CC00EB43DB171D40A26823699A4201DDD31A32
:1038DC00ED1800270097009FAF420BDA221C301C1A
:1038EC0001991A320123089FB8470130DCD0009FA0
:1038FC000137EFE70020FEBDF0B50D1C8BB0433552
:10390C0006920590079304950B7E0C1C109A6E2B57
:10391C0000D1A7E011D8632B22D009D8002B00D1FD
:10392C00B0E0582B00D0C0E045310B707B4D4EE021
:10393C00642B1CD0692B1AD0B7E0732B00D1A5E0F7
:10394C0009D86F2B29D0702B00D0AEE00E68202345
:10395C0033430B6036E0752B1FD0782B32D0A4E0AC
:10396C0013680D1C191D423511601B689FE02168FE
:10397C0013680E0603D5191D11601E6805E0480674
:10398C00F9D5191D116000215E5E644B002E3BDAE7
:10399C00049D2D2276422A7036E0216813680E06AB
:1039AC0003D5191D11601E6804E04806F9D5191DD0
:1039BC001E881160594B227E039308276F2A1ED054
:1039CC000A271CE0231C78214533554D19701168CA
:1039DC002368081D039510601E0601D50E6802E0D1
:1039EC005806FBD50E88D90702D520221343236035
:1039FC001027002E03D1226820239A432260231C17
:103A0C00002243331A7001E003930A276368A36012
:103A1C00002B03DB2568042295432560002E02D180
:103A2C00049D002B0ED0049D301C391CFFF764FC48
:103A3C000398013D435C301C2B70391CFFF718FCBC
:103A4C00061EF1D1082F09D12168C90706D5626875
:103A5C0023699A4202DC013D30232B70049E731BB8
:103A6C0023612AE0086813684969050604D5181D06
:103A7C0010601B68196005E04606F8D5181D10602B
:103A8C001B68198000232361049D16E01368191D1F
:103A9C0011601D68281CFFF74DFD6368206198427A
:103AAC0000D923612069606004E0251C42352B702D
:103ABC0001232361049E00233370079E0598009612
:103ACC00211C09AA069BFFF7A3FE013002D101209D
:103ADC00404221E02A1C059806992369079DA847B6
:103AEC000130F4D02668B60705D4099BE0689842EB
:103AFC0012DA181C10E00025E0680999431A9D425F
:103B0C00F3DA221C0598069919320123079EB04757
:103B1C000130DCD00135EFE70BB0F0BDC33E00083F
:103B2C00D43E000830B5051C9BB0141E04DA8B2360
:103B3C000360012040421DE0822292006846009101
:103B4C000491002182818C4200D0611E01225242DC
:103B5C00029105916946CA81281C1A1C1E9BFFF70D
:103B6C0067FD421C01DA8B232B60002C02D00099DC
:103B7C0000230B701BB030BD73B5141C054A061C1A
:103B8C000D1C1068311C00932A1C231CFFF7CAFF64
:103B9C0076BDC04680000020C9B28218904204D085
:103BAC0003788B4202D00130F8E70020704770B5E3
:103BBC00814201D300230CE08C18A042FAD2851864
:103BCC00131C013B0BD351426618F65C6918CE549A
:103BDC00F7E7934203D0CC5CC4540133F9E770BDD2
:103BEC00F8B5061C0C1C151C002904D1111CFFF780
:103BFC00FBFB041C18E0002A03D1FFF7ADFB2C1CC7
:103C0C0012E000F013F8A8420ED2301C291CFFF76A
:103C1C00EBFB071E07D0211C2A1CFFF793FB301C63
:103C2C00211CFFF799FB3C1C201CF8BD04390B68C8
:103C3C00181F002B02DAC8581B18181F70470000F9
:103C4C002E2E2F73797374656D2F7372632F7374AB
:103C5C006D333266302D7374647065726970682FC1
:103C6C0073746D3332663078785F6770696F2E636A
:103C7C00000000002E2E2F73797374656D2F7372F4
:103C8C00632F73746D333266302D73746470657288
:103C9C006970682F73746D3332663078785F69772A
:103CAC0064672E63000000002E2E2F7379737465E9
:103CBC006D2F7372632F73746D333266302D737482
:103CCC00647065726970682F73746D333266307806
:103CDC00785F6D6973632E63000000002E2E2F73C6
:103CEC00797374656D2F7372632F73746D333266D1
:103CFC00302D7374647065726970682F73746D33D2
:103D0C0032663078785F7263632E63002E2E2F73C9
:103D1C00797374656D2F7372632F73746D333266A0
:103D2C00302D7374647065726970682F73746D33A1
:103D3C0032663078785F75736172742E63000000A0
:103D4C0061626F727428292C2065786974696E67BA
:103D5C002E2E2E002C2066756E6374696F6E3A20C1
:103D6C0000000000617373657274696F6E20222508
:103D7C007322206661696C65643A2066696C652003
:103D8C00222573222C206C696E65202564257325F1
:103D9C00730A00006173736572745F706172616D98
:103DAC002829206661696C65643A2066696C652017
:103DBC00222573222C206C696E652025640A000074
:103DCC000A0000006D61696E28617267633D2564AD
:103DDC002C20617267763D5B000000002C200000F7
:103DEC0022257322000000005D293B0A0000000020
:103DFC00421E0008181F0008E01B0008181F0008CE
:103E0C00281B0008181F0008181F0008721A000849
:103E1C00181F0008181F0008181F0008181F00089A
:103E2C00181F0008181F0008181F0008181F00088A
:103E3C00181F0008AC1D0008A41C0008381F00083F
:103E4C00421F0008521F0008621F0008741F000860
:103E5C00921F00089C1F0008346B6C656400000006
:103E6C002F682F25732F2564000000002F25730069
:103E7C002F737461740000002F6869002F726561E4
:103E8C00647900002F25732F256400002F72656E56
:103E9C00756D6265720000002F7265736574696ED2
:103EAC00646578004300232D302B2000686C4C0097
:103EBC00656667454647003031323334353637381E
:103ECC00394142434445460030313233343536377C
:093EDC0038396162636465660017
:103EE80078563412000000000102030401020304A2
:103EF800060708099000002000000000006CDC02A2
:103F080000000000000000000000000000000000A9
:103F18000000000000000000000000000000000099
:103F2800B03E000800000000000000000000000093
:103F38000000000000000000000000000000000079
:103F48000000000000000000000000000000000069
:103F58000000000000000000000000000000000059
:083F680020000020325476987D
:04000005080000C52A
:00000001FF
